:020000040800F2
:10000000400C002001010008BD040008E3020008C4
:10001000B9040008BF010008990C000800000000A6
:100020000000000000000000000000003D09000882
:10003000C30100080000000019090008290A00088F
:100040001B0100081B0100081B0100081B01000820
:100050001B0100081B0100081B0100081B01000810
:100060001B0100081B0100081B0100081B01000800
:100070001B0100081B0100081B0100081B010008F0
:100080001B0100081B0100081B0100081B010008E0
:100090001B0100081B0100081B0100081B010008D0
:1000A0001B0100081B0100081B0100081B010008C0
:1000B0001B0100081B0100081B0100081B010008B0
:1000C0001B0100081B0100081B0100081B010008A0
:1000D0001B0100081B0100081B0100081B01000890
:1000E0001B0100081B0100081B010008DFF80CD0F1
:1000F00000F028F800480047DD0C0008400C002004
:100100000648804706480047FEE7FEE7FEE7FEE7B1
:10011000FEE7FEE7FEE7FEE7FEE7FEE72D0A000842
:10012000ED000008202A04DB203A00FA02F100204A
:1001300070479140C2F1200320FA03F31943904025
:1001400070470000064C074D06E0E06840F00103F0
:1001500094E8070098471034AC42F6D3FFF7CAFF83
:10016000EC0D00080C0E000870B58C1810F8015B3F
:1001700015F0070301D110F8013B2A1106D110F840
:10018000012B03E010F8016B01F8016B5B1EF9D144
:100190002B0705D40023521E0DD401F8013BFAE7CA
:1001A00010F8013BCB1A921C03E013F8015B01F835
:1001B000015B521EF9D5A142D8D3002070BD00BF0B
:1001C000FEE770472DE9F041024600250026002099
:1001D00000230024002791F803C00CF00F0591F8CC
:1001E00003C00CF0100CBCF1000F03D091F802C05A
:1001F0004CEA050591F800C0BCF1000F31D014683D
:1002000000202BE04FF0010C0CFA00F3B1F800C015
:100210000CEA03069E4220D183004FF00F0C0CFA2B
:1002200003F7BC4305FA03FC4CEA040491F803C04D
:10023000BCF1280F06D14FF0010C0CFA00FCC2F8FB
:1002400014C00AE091F803C0BCF1480F05D14FF08B
:10025000010C0CFA00FCC2F810C0401C0828D1D3D5
:100260001460B1F800C0BCF1FF0F34DD5468002009
:100270002EE000F1080C4FF0010808FA0CF3B1F879
:1002800000C00CEA03069E4221D183004FF00F0C00
:100290000CFA03F7BC4305FA03FC4CEA040491F89A
:1002A00003C0BCF1280F05D100F1080C08FA0CF8C6
:1002B000C2F8148091F803C0BCF1480F07D100F1D7
:1002C000080C4FF0010808FA0CF8C2F81080401C26
:1002D0000828CED35460BDE8F081416170470161C8
:1002E000704700BFFEE7002001E0411CC8B20A28A9
:1002F000FBDB704710B50121082000F00FFB142034
:100300000549C8704FF44060088003208870034896
:10031000FFF758FF10BD000000000020000C014056
:1003200070B5054600241DE0C4F1070045FA00F051
:1003300000F0010020B14FF400600F49086003E0B5
:100340004FF000600C4908604FF480600A49086073
:10035000FFF7C9FF4FF0806007490860FFF7C3FF50
:10036000601CC4B2082CDFDB4FF400600249086057
:10037000FFF7B9FF70BD0000100C014010B54FF43D
:1003800000600849086040100860FFF7ACFF4FF0BC
:10039000006004490860FFF7A6FF4FF08060014944
:1003A000086010BD100C014010B54FF00060064908
:1003B00008604010086000140860FFF794FF4FF4D5
:1003C00000600149086010BD100C014010B54FF4E9
:1003D00000600D490860FFF786FF4FF480600A490E
:1003E0000860FFF780FF084808380068C0F3C020A5
:1003F00008B1012400E000244FF080600249086049
:10040000FFF771FF204610BD100C014008B5002019
:1004100000900121042000F081FA02211D48FFF71D
:100420005EFF0220ADF8000010208DF803000320CD
:100430008DF8020069461748FFF7C4FE0121042029
:1004400000F06CFA04211348FFF749FF0420ADF8CF
:10045000000010208DF8030003208DF8020069468B
:100460000C48FFF7AFFE0121042000F057FA0821E5
:100470000848FFF734FF0820ADF8000010208DF881
:10048000030003208DF8020069460248FFF79AFE38
:1004900008BD00000008014070B504460D4629461D
:1004A0002046FFF71CFF70BD70B504460D46294677
:1004B0002046FFF712FF70BD00BFFEE77047000047
:1004C0002DE9F84F81460D4614461E460A9F28190D
:1004D000401E00F0FF0AF019401EC0B20090BAF1B1
:1004E000080F06DA0098802803DA012C01DB012FBF
:1004F00002DA36A000F0E2FBFFF740FF7820FFF7BA
:100500000FFF00BFFFF762FF0028FBD1FFF708FFD6
:1005100000BFFFF75BFF0028FBD12220FFF700FFA1
:1005200000BFFFF753FF0028FBD12846FFF7F8FE76
:1005300000BFFFF74BFF0028FBD15046FFF7F0FE4E
:1005400000BFFFF743FF0028FBD12120FFF7E8FEA3
:1005500000BFFFF73BFF0028FBD13046FFF7E0FE6E
:1005600000BFFFF733FF0028FBD10098FFF7D8FE4C
:1005700000BFFFF72BFF0028FBD1FFF7FFFE78201D
:10058000FFF7CEFE00BFFFF721FF0028FBD1402080
:10059000FFF7C6FE00BFFFF719FF0028FBD104FBE1
:1005A00007FB80460CE019F80800FFF7B9FE00BF12
:1005B000FFF70CFF0028FBD108F101001FFA80F8BB
:1005C000D845F0DBFFF7F0FEBDE8F88F4F4C45440F
:1005D0005F44726177506963E68EA5E694B6E5885C
:1005E000B0E99D9EE6B395E58F82E695B0210000C7
:1005F00008B5802000230822194600900648FFF71E
:100600005FFF002004E00021044A1154411CC8B2DD
:100610001028F8DB08BD000030040020300800205E
:1006200010B5FFF7ABFE7820FFF77AFE00BFFFF7AB
:10063000CDFE0028FBD1FFF773FE00BFFFF7C6FE1B
:100640000028FBD1AF20FFF76BFE00BFFFF7BEFE17
:100650000028FBD18120FFF763FE00BFFFF7B6FE45
:100660000028FBD17F20FFF75BFE00BFFFF7AEFE47
:100670000028FBD12020FFF753FE00BFFFF7A6FEA6
:100680000028FBD10120FFF74BFE00BFFFF79EFEC5
:100690000028FBD12220FFF743FE00BFFFF796FEA4
:1006A0000028FBD1FFF73CFE00BFFFF78FFE0028BC
:1006B000FBD10720FFF734FE00BFFFF787FE0028BD
:1006C000FBD12120FFF72CFE00BFFFF77FFE0028A3
:1006D000FBD1FFF725FE00BFFFF778FE0028FBD116
:1006E0007F20FFF71DFE00BFFFF770FE0028FBD143
:1006F000A020FFF715FE00BFFFF768FE0028FBD122
:10070000C820FFF70DFE00BFFFF760FE0028FBD1F9
:10071000D920FFF705FE00BFFFF758FE0028FBD1E8
:100720002220FFF7FDFD00BFFFF750FE0028FBD1A0
:10073000DB20FFF7F5FD00BFFFF748FE0028FBD1E7
:100740002020FFF7EDFD00BFFFF740FE0028FBD1A2
:100750008D20FFF7E5FD00BFFFF738FE0028FBD135
:100760001420FFF7DDFD00BFFFF730FE0028FBD1AE
:10077000AF20FFF7D5FD00BFFFF728FE0028FBD113
:10078000FFF7FCFD7820FFF7CBFD00BFFFF71EFE53
:100790000028FBD14020FFF7C3FD00BFFFF716FE86
:1007A0000028FBD14FF4806408E00020FFF7B8FD7B
:1007B00000BFFFF70BFE0028FBD1641E002CF4DC09
:1007C000FFF7F2FD10BD00002DE9F041FFF7D6FD67
:1007D0007820FFF7A5FD00BFFFF7F8FD0028FBD14B
:1007E000FFF79EFD00BFFFF7F1FD0028FBD122209F
:1007F000FFF796FD00BFFFF7E9FD0028FBD1FFF7EB
:100800008FFD00BFFFF7E2FD0028FBD10720FFF7B7
:1008100087FD00BFFFF7DAFD0028FBD180460024EA
:100820006FE03B48005D10B94FF0000867E000251D
:100830005FE03748005D80212941084010B94FF042
:10084000000854E005EBC400C6B2B8F1000F3AD17D
:10085000FFF794FD7820FFF763FD00BFFFF7B6FDBB
:100860000028FBD1FFF75CFD00BFFFF7AFFD0028BC
:10087000FBD12120FFF754FD00BFFFF7A7FD0028A3
:10088000FBD13046FFF74CFD00BFFFF79FFD00286E
:10089000FBD17F20FFF744FD00BFFFF797FD002845
:1008A000FBD1FFF76BFD7820FFF73AFD00BFFFF7A4
:1008B0008DFD0028FBD14020FFF732FD00BFFFF780
:1008C00085FD0028FBD100270CE007EBC601114A8B
:1008D000505CFFF725FD00BFFFF778FD0028FBD136
:1008E000781CC7B2082FF0DB4FF0010800BF681C6E
:1008F000C5B2082D9DDB00200549085500BF601CCE
:10090000C4B2102C8DDBFFF74FFDBDE8F081000075
:1009100030080020300400207047000029B1064A4A
:1009200092690243044B9A6104E0034A926982434C
:10093000014B9A617047000000100240704710B5EB
:1009400000F002F810BD00000CB5002001900090EE
:100950003348006840F480303149086000BF3048B7
:10096000006800F4003000900198401C019000984D
:1009700018B90198B0F5A06FF1D12948006800F4CA
:10098000003010B10120009001E00020009000989C
:10099000012843D12348006840F010002149086035
:1009A0000846006820F0070008600846006840F02C
:1009B000020008601A4840681949486008464068C3
:1009C00048600846406840F48060486008464068D7
:1009D00020F47C1048600846406840F4E810486005
:1009E0000846006840F08070086000BF0C4800684E
:1009F00000F000700028F9D00948406820F003009A
:100A0000074948600846406840F00200486000BF5F
:100A10000348406800F00C000828F9D10CBD000024
:100A200000100240002002407047000010B513483B
:100A3000006840F00100114908600846406810490C
:100A400008400E494860084600680E4908400B49B6
:100A500008600846006820F4802008600846406866
:100A600020F4FE0048604FF41F008860FFF767FF26
:100A70004FF000600449086010BD00000010024003
:100A80000000FFF8FFFFF6FE08ED00E02DE9F0475B
:100A900007468C4600200446054600BF0FE00122B1
:100AA000824002EA0C0202B907E03C4A02EBC002B3
:100AB000D2E900321C43154300BF421CD0B20A28C1
:100AC000EDDBC7F1130000EB80001830C1B2CB178B
:100AD00001EB5373DB10324EF35C0A46CE1701EB89
:100AE0005676F610A1EBC608802646FA08F6334380
:100AF0000846CE1701EB5676F610DFF8A48008F80A
:100B00000630012645E08A19D0B24FEAE07800EBC2
:100B100058784FEAE808DFF8889019F8088003460B
:100B20004FEAE07900EB59794FEAE909A0EBC90AED
:100B30004FF0800949FA0AF948EA090802464FEAE3
:100B4000E07900EB59794FEAE909DFF854A00AF897
:100B50000980144A02EBC0030CCB4FF00F08DFF8FA
:100B6000489002EA080203EA0903DFF8388008EB3C
:100B7000C008C8E900230B4A02EBC0030CCB224398
:100B80002B43DFF8208008EBC008C8E90023701C65
:100B9000C6B2042EB7DDBDE8F0870000380D0008AE
:100BA0003008002030040020000080FF10B5002431
:100BB00017E00E4830F8140000F4004000B90EE0D1
:100BC0000A4830F814102046FFF760FF074830F855
:100BD0001400C0F30E00054921F8140000BF601C8A
:100BE000C4B2142CE5DBFFF7EFFD10BD04040020B8
:100BF0002DE9F041002421E00021184A02EBC40253
:100C000011605160002515E005EBC40014490E5C2D
:100C10000027EA0030463946FFF784FA0F4A02EB14
:100C2000C4030CCB104319430C4A02EBC40203C2A9
:100C3000681CC5B2082DE7DB601CC4B2802CDBDB6E
:100C4000002005E00021074A22F81010411CC8B21C
:100C50001428F7DBFFF7CCFCBDE8F081300400205E
:100C6000040000200404002010B5FFF7C1FF48F283
:100C700004000849C88448F28000888448F20400CF
:100C80004881012403E0FFF791FF00BFFEE7002C3D
:100C9000F9D110BD0404002000BFFEE702E008C83F
:100CA000121F08C1002AFAD170477047002001E0E6
:100CB00001C1121F002AFBD1704700000221064823
:100CC000FFF7F2FB04210448FFF7E6FB0821024886
:100CD000FFF7E2FB00BFFEE700080140FFF796FBCD
:100CE000FFF708FBFFF79CFC00BF02210F48FFF74E
:100CF000DBFB04210D48FFF7D7FB08210B48FFF76A
:100D0000D3FB002400E0641C09488442FBDB022181
:100D10000648FFF7C1FB04210448FFF7BDFB08218B
:100D20000248FFF7B9FBFFF79FFFDEE7000801402D
:100D30008888880000000000E0010000000000003A
:100D4000003C0000000000000080070000000000E0
:100D50000000F000000000000000001E0000000085
:100D6000000000C003000000000000007800000048
:100D700000000000000F00000000000000E0010083
:100D80000000000000003C00F0FFFFFFFFFF7F00BD
:100D900018181818181818180030303C3C3030005B
:100DA00000003C3C3C3C0000000C0C3C3C30300063
:100DB0000030303C3C0C0C00000C0C0C0C3C3C009B
:100DC00000303030303C3C000A17053E223E023EE7
:100DD000223A2A2E3E2A2A3E08382E2A3A2E2A3E27
:100DE0003E20203E2A3E3E2A3AC138000C0E000822
:100DF000000000200404000068010008A80E00089C
:100E0000040400203C080000AC0C000841DAFF019B
:100E10002D43680F6D083E7B6B6F2DFC1028176FFC
:100E2000733F2060F55F6B6F6DBFEA7DE5439B6F9D
:100E30006D3C2220F0242D7FB52DE508280D3F20A4
:100E400069FB1FE07F807FAA64E0083CBFA4AD106F
:100E5000291C0912083D3F8410C2283CF7D6DA103D
:100E60003CF4D6C3203BF5D638ED3F84D0C3986917
:100E700001480A13420821841042FEFB0F53FE0F63
:100E80004C80FF0B080A16FE0809FD2809FD2809F9
:100E9000FD2819283BFBFF01480AFE134208218464
:080EA0001042FE0F0300FFFFEA
:04000005080000ED02
:00000001FF
