:020000040800F2
:1000000008080020010100089D040008C302000840
:10001000990400089F0100088D08000800000000F6
:100020000000000000000000000000003907000888
:10003000A3010008000000001707000825080008B9
:100040001B0100081B0100081B0100081B01000820
:100050001B0100081B0100081B0100081B01000810
:100060001B0100081B0100081B0100081B01000800
:100070001B0100081B0100081B0100081B010008F0
:100080001B0100081B0100081B0100081B010008E0
:100090001B0100081B0100081B0100081B010008D0
:1000A0001B0100081B0100081B0100081B010008C0
:1000B0001B0100081B0100081B0100081B010008B0
:1000C0001B0100081B0100081B0100081B010008A0
:1000D0001B0100081B0100081B0100081B01000890
:1000E0001B0100081B0100081B010008DFF80CD0F1
:1000F00000F018F800480047B10800080808002080
:100100000648804706480047FEE7FEE7FEE7FEE7B1
:10011000FEE7FEE7FEE7FEE7FEE7FEE72908000848
:10012000ED000008064C074D06E0E06840F00103D2
:1001300094E8070098471034AC42F6D3FFF7DAFF93
:100140000C0900082C09000870B58C1810F8015B28
:1001500015F0070301D110F8013B2A1106D110F860
:10016000012B03E010F8016B01F8016B5B1EF9D164
:100170002B0705D40023521E0DD401F8013BFAE7EA
:1001800010F8013BCB1A921C03E013F8015B01F855
:10019000015B521EF9D5A142D8D3002070BD00BF2B
:1001A000FEE770472DE9F0410246002500260020B9
:1001B00000230024002791F803C00CF00F0591F8EC
:1001C00003C00CF0100CBCF1000F03D091F802C07A
:1001D0004CEA050591F800C0BCF1000F31D014685D
:1001E00000202BE04FF0010C0CFA00F3B1F800C036
:1001F0000CEA03069E4220D183004FF00F0C0CFA4C
:1002000003F7BC4305FA03FC4CEA040491F803C06D
:10021000BCF1280F06D14FF0010C0CFA00FCC2F81B
:1002200014C00AE091F803C0BCF1480F05D14FF0AB
:10023000010C0CFA00FCC2F810C0401C0828D1D3F5
:100240001460B1F800C0BCF1FF0F34DD5468002029
:100250002EE000F1080C4FF0010808FA0CF3B1F899
:1002600000C00CEA03069E4221D183004FF00F0C20
:100270000CFA03F7BC4305FA03FC4CEA040491F8BA
:1002800003C0BCF1280F05D100F1080C08FA0CF8E6
:10029000C2F8148091F803C0BCF1480F07D100F1F7
:1002A000080C4FF0010808FA0CF8C2F81080401C46
:1002B0000828CED35460BDE8F081416170470161E8
:1002C000704700BFFEE7002001E0411CC8B20A28C9
:1002D000FBDB704710B50121082000F01DFA142047
:1002E0000549C8704FF440600880032088700348B7
:1002F000FFF758FF10BD000000000020000C014077
:1003000070B5054600241DE0C4F1070045FA00F071
:1003100000F0010020B14FF400600F49086003E0D5
:100320004FF000600C4908604FF480600A49086093
:10033000FFF7C9FF4FF0806007490860FFF7C3FF70
:10034000601CC4B2082CDFDB4FF400600249086077
:10035000FFF7B9FF70BD0000100C014010B54FF45D
:1003600000600849086040100860FFF7ACFF4FF0DC
:10037000006004490860FFF7A6FF4FF08060014964
:10038000086010BD100C014010B54FF00060064928
:1003900008604010086000140860FFF794FF4FF4F5
:1003A00000600149086010BD100C014010B54FF409
:1003B00000600D490860FFF786FF4FF480600A492E
:1003C0000860FFF780FF084808380068C0F3C020C5
:1003D00008B1012400E000244FF080600249086069
:1003E000FFF771FF204610BD100C014008B500203A
:1003F00000900121042000F08FF902211D48FFF731
:100400005EFF0220ADF8000010208DF803000320ED
:100410008DF8020069461748FFF7C4FE0121042049
:1004200000F07AF904211348FFF749FF0420ADF8E2
:10043000000010208DF8030003208DF802006946AB
:100440000C48FFF7AFFE0121042000F065F90821F8
:100450000848FFF734FF0820ADF8000010208DF8A1
:10046000030003208DF8020069460248FFF79AFE58
:1004700008BD00000008014070B504460D4629463D
:100480002046FFF71CFF70BD70B504460D46294697
:100490002046FFF712FF70BD00BFFEE77047000067
:1004A00010B5FFF75BFF7820FFF72AFF00BFFFF7CB
:1004B0007DFF0028FBD1FFF723FF00BFFFF776FF8A
:1004C0000028FBD12220FFF71BFF00BFFFF76EFFC4
:1004D0000028FBD1FFF714FF00BFFFF767FF0028DC
:1004E000FBD10720FFF70CFF00BFFFF75FFF0028DD
:1004F000FBD12120FFF704FF00BFFFF757FF0028C3
:10050000FBD1FFF7FDFE00BFFFF750FF0028FBD136
:100510007F20FFF7F5FE00BFFFF748FF0028FBD163
:10052000FFF71CFF7820FFF7EBFE00BFFFF73EFF51
:100530000028FBD14020FFF7E3FE00BFFFF736FFA6
:100540000028FBD100240AE00849085DFFF7D8FE27
:1005500000BFFFF72BFF0028FBD1601C84B2B4F56D
:10056000806FF1DBFFF710FF10BD000004000020DA
:1005700010B5FFF7F3FE7820FFF7C2FE00BFFFF7CC
:1005800015FF0028FBD1FFF7BBFE00BFFFF70EFFF2
:100590000028FBD1AF20FFF7B3FE00BFFFF706FF37
:1005A0000028FBD18120FFF7ABFE00BFFFF7FEFE66
:1005B0000028FBD17F20FFF7A3FE00BFFFF7F6FE68
:1005C0000028FBD12020FFF79BFE00BFFFF7EEFEC7
:1005D0000028FBD10120FFF793FE00BFFFF7E6FEE6
:1005E0000028FBD12220FFF78BFE00BFFFF7DEFEC5
:1005F0000028FBD1FFF784FE00BFFFF7D7FE0028DD
:10060000FBD10720FFF77CFE00BFFFF7CFFE0028DD
:10061000FBD12120FFF774FE00BFFFF7C7FE0028C3
:10062000FBD1FFF76DFE00BFFFF7C0FE0028FBD136
:100630007F20FFF765FE00BFFFF7B8FE0028FBD163
:10064000A020FFF75DFE00BFFFF7B0FE0028FBD142
:10065000C820FFF755FE00BFFFF7A8FE0028FBD11A
:10066000D920FFF74DFE00BFFFF7A0FE0028FBD109
:100670002220FFF745FE00BFFFF798FE0028FBD1C0
:10068000DB20FFF73DFE00BFFFF790FE0028FBD107
:100690002020FFF735FE00BFFFF788FE0028FBD1C2
:1006A0008D20FFF72DFE00BFFFF780FE0028FBD155
:1006B0001420FFF725FE00BFFFF778FE0028FBD1CE
:1006C000AF20FFF71DFE00BFFFF770FE0028FBD133
:1006D000FFF744FE7820FFF713FE00BFFFF766FE2A
:1006E0000028FBD14020FFF70BFE00BFFFF75EFEA6
:1006F0000028FBD14FF4806408E00020FFF700FEE3
:1007000000BFFFF753FE0028FBD1641E002CF4DC71
:10071000FFF73AFE10BD704729B1064A92690243BD
:10072000044B9A6104E0034A92698243014B9A6147
:100730007047000000100240704710B500F002F84A
:1007400010BD00000CB500200190009033480068F7
:1007500040F480303149086000BF3048006800F440
:10076000003000900198401C0190009818B9019841
:10077000B0F5A06FF1D12948006800F4003010B145
:100780000120009001E0002000900098012843D152
:100790002348006840F010002149086008460068BE
:1007A00020F0070008600846006840F0020008607A
:1007B0001A48406819494860084640684860084639
:1007C000406840F4806048600846406820F47C102F
:1007D00048600846406840F4E810486008460068F1
:1007E00040F08070086000BF0C48006800F00070A6
:1007F0000028F9D00948406820F003000749486004
:100800000846406840F00200486000BF0348406866
:1008100000F00C000828F9D10CBD000000100240C7
:10082000002002407047000010B51348006840F0F7
:1008300001001149086008464068104908400E4907
:100840004860084600680E4908400B4908600846A1
:10085000006820F4802008600846406820F4FE000C
:1008600048604FF41F008860FFF767FF4FF000609B
:100870000449086010BD0000001002400000FFF8AD
:10088000FFFFF6FE08ED00E000BFFEE700BFFEE759
:1008900002E008C8121F08C1002AFAD17047704749
:1008A000002001E001C1121F002AFBD170470000A7
:1008B000FFF79CFDFFF70EFDFFF75AFE00BF022178
:1008C0001048FFF7E1FD04210E48FFF7DDFD082188
:1008D0000C48FFF7D9FD002400E0641C0A4884425C
:1008E000FBDB02210748FFF7C7FD04210548FFF79E
:1008F000C3FD08210348FFF7BFFDFFF7D1FDFFF758
:10090000C3FFDCE700080140888888002C09000844
:10091000000000200404000048010008F409000859
:100920000404002004040000A008000841DAFF01CC
:100930002D43680F6D083E7B6B6F2DFC1028176FE1
:10094000733F2060F55F6B6F6DBFEA7DE5439B6F82
:100950006D3C2220F0242D7FB52DE50818153F2091
:1009600069FB1FE07F807FAA64E01FE37F80BFA454
:10097000ADFB082A861C0912081D3F8410C2082EF0
:100980009EBFF7D6DA082D3FF4D6C3383CFFF5D624
:1009900048ED3F84D0C3986901480A134208218476
:1009A000104282FB0F53EE0F580B80E3EBBDF7DED6
:1009B0007BEFBDFE085AA2085AAA085A8A285AFF95
:1009C000105A8208DABA105AFE280A15BF28696040
:1009D00069286950791809FD2809FD280998283BDC
:1009E000FBFF01480AFE13420821841042FE0F0358
:0409F00000FFFF0005
:04000005080000ED02
:00000001FF
