:020000040800F2
:10000000E010002001010008B51100084D0E0008A5
:10001000B11100084F0A0008A51F000800000000E9
:10002000000000000000000000000000E71B0008C6
:10003000C50A000800000000E71A0008D11C0008EB
:100040001B0100081B0100081B0100081B01000820
:100050001B0100081B0100081B0100081B01000810
:100060001B0100081B0100081B0100081B01000800
:100070001B0100081B0100081B0100081B010008F0
:100080001B0100081B0100081B0100081B010008E0
:100090001B0100081B0100081B010008E10A000801
:1000A0001B0100081B0100081B0100081B010008C0
:1000B000A11D00081B0100081B0100081B0100080E
:1000C0001B0100081B0100081B0100081B010008A0
:1000D0001B0100081B0100081B0100081B01000890
:1000E0001B0100081B0100081B010008DFF80CD0F1
:1000F00000F096FA0048004751300008E010002058
:100100000648804706480047FEE7FEE7FEE7FEE7B1
:10011000FEE7FEE7FEE7FEE7FEE7FEE7D91C000884
:10012000ED000008202A04DB203A00FA02F100204A
:1001300070479140C2F1200320FA03F31943904025
:10014000704700000649074A0868504343F23902E5
:10015000104408604008704701490860704700007B
:100160008C0600206D4EC6412DE9FE4F81EA030446
:1001700004F0004421F0004100944FF0000B23F004
:10018000004350EA01045ED052EA03045BD0C3F39B
:100190000A54C1F30A552C44A4F2F3340194A0FB91
:1001A0000254C1F3130141F48011C3F3130343F468
:1001B000801301FB024400FB034E840A970A44EAC1
:1001C000815447EA8357A4FB076802958D0A05FB13
:1001D00007854FEA932C04FB0C542705029D4FEA38
:1001E000065847EA1637B5EB08056EEB070C870E85
:1001F000920E47EA811742EA8312A7FB0201B6EB8F
:100200000B0164EB00042B0D43EA0C335E1844EB46
:100210001C50DA465146E7FB0201C5F313044FEACE
:100220000B3343EA14534FEA0432019C43EA0603BA
:10023000A4F10C040294009CCDE900B400F05CF839
:1002400003B0BDE8F08F00200146F9E70EB5C10FFD
:1002500080EAE0700844CA07002140F233438DE889
:100260000E000A460B4600F047F803B000BD0EB57D
:1002700040F2334102910021CDE900110A460B46BC
:1002800000F03AF803B000BDC1F30A5210B5C1F353
:10029000130140F2FF3341F480119A4201DA002049
:1002A00010BD40F233439A42A2F2334203DC524281
:1002B00000F003F810BD904010BD202A04DB203A66
:1002C00021FA02F00021704721FA02F3D040C2F176
:1002D0002002914008431946704710B5141E73F16F
:1002E000000408DA401C41F1000192185B411A43F6
:1002F00001D120F0010010BD2DE9F04D92469B4642
:1003000011B1B1FA81F202E0B0FA80F220329046E7
:10031000FFF708FF04460F4640EA0A0041EA0B01D6
:1003200053465A46084313D0114653EA010019D0E8
:10033000C8F140025046FFF7C0FF05460E46504642
:1003400059464246FFF7EEFE084305D0012004E07F
:1003500020463946BDE8F08D0020054346EAE076A8
:100360002C4337430A986305E40AA0EB08000022F7
:10037000FD0A44EA47540A3002D500200146E9E765
:10038000010510196941DDE9084500196941BDE819
:10039000F04DA2E72DE9FE4F804681EA0300C00F31
:1003A0000C46009021F0004123F00045B8EB02001C
:1003B000A94105D24046214690461C460B460246BE
:1003C00023F00040104347D0270DC7F30A00C3F3C2
:1003D0000A510290401A019040286BDAC3F31300CF
:1003E00040F4801B0098924620B10023D2EB030A10
:1003F00063EB0B0B01985946C0F140025046FFF7E2
:1004000091FE06460D4650465946019A00F01AF9EB
:1004100010EB08006141002487EA115284EAE77377
:100420001A4340D0009A62B3019A012A4FEA075258
:1004300015DC001B61EB02014FF0004202EA07529B
:10044000CDE90042001C41F5801132462B46FFF7F2
:1004500053FF03B0BDE8F08F40462146F9E7001B8B
:1004600061EB0201001C41F5801300185B4120186C
:10047000A2F5001747EB030140EAD570B6196D41AC
:1004800011E06D084FEA360645EAC0754FEA07529B
:10049000001B61EB0201001C41F5801149084FEA85
:1004A00030000019514132462B4603B0BDE8F04FF1
:1004B000FFF713BF0098012240000023D0EB020297
:1004C00063EBE073009821464FEAE074B8EB00005C
:1004D00061EB0401E9E783F000435BE781F0004151
:1004E00058E72DE9F04D81EA030404F0004B21F0B8
:1004F000004514464FF0000A23F0004150EA05027F
:1005000020D054EA01021DD0C5F30A570246C5F3B4
:100510001303C1F31300C1F30A5640F4801543F4EA
:100520008013A7EB0608101BD64608F2FD3873EBC4
:10053000050002D308F1010801E092185B41B8F10F
:10054000000F03DA00200146BDE8F08D00204FF4D3
:100550008011064684460EE0171B73EB050705D392
:10056000121B63EB050306434CEA010C49084FEAF2
:10057000300092185B4150EA0107EDD152EA0300C6
:1005800012D082EA040083EA0501084305D0101B5B
:10059000AB4106D20122002306E000224FF00043C7
:1005A00002E06FF0010253101AEB06004CEB085109
:1005B00010EB0A0041EB0B01BDE8F04DFFF78DBEDB
:1005C00070B521F0004303430CD0C1F30A55002459
:1005D000D5EB040564EB0403D617AD1AB34102DB77
:1005E0000020014670BD201841EB025170BD000093
:1005F00030B5041E71F1000404DB4FF000444042AA
:1006000064EB0101141E73F1000405DB1C464FF07E
:100610000043524263EB0403994208BF904230BD4D
:10062000064C074D06E0E06840F0010394E807003F
:1006300098471034AC42F6D3FFF75CFD483D000804
:10064000683D0008202A06DBCB17203A41FA02F069
:1006500043EAE07306E041FA02F3D040C2F120021F
:1006600091400843194670472DE9F04D00231A4682
:100670001B1A8A4103DB00200146BDE8F08DC1F35F
:100680000A52C1F3130141F480154FF0000BD1075A
:1006900002D100186D41521E0027044640F2FF119E
:1006A000384601EB620A3E468046024600204FF47F
:1006B0008011FFF702FEC2197141BB1846EB010021
:1006C000B4EB030C75EB000C04D3E41A65EB0005E6
:1006D00017460E46241908F101006D418046342862
:1006E000E3DDF91946EB0600091BA84103D24FF0E0
:1006F000FF32134601E0002213461BEB070046EBD6
:100700000A51BDE8F04DFFF7E8BD70B58C1810F840
:10071000015B15F0070301D110F8013B2A1106D146
:1007200010F8012B03E010F8016B01F8016B5B1E60
:10073000F9D12B0705D40023521E0DD401F8013B3B
:10074000FAE710F8013BCB1A921C03E013F8015BA7
:1007500001F8015B521EF9D5A142D8D3002070BD2B
:1007600010B500BF0221094800F0C4F80028F9D0F4
:10077000064800F0BBF804460221044800F09EF849
:100780000121024800F053F9204610BD0028014025
:1007900070B50024002518E000BF02210D4800F0CC
:1007A000A9F80028F9D00B4800F0A0F8064602216D
:1007B000084800F083F80121064800F038F906F0F7
:1007C000010004436400681CC5B2202DE4DB204610
:1007D00070BD00000024014000B587B0012140F247
:1007E000046001F09FF92120ADF8180000208DF879
:1007F0001B0003208DF81A0006A92D4800F010FAFE
:10080000002001908DF808008DF809004FF4602059
:1008100003900020049001208DF8140001A92548C0
:1008200000F07CF8052301220021224800F09EF808
:100830000121204800F045F801A91F4800F06EF89A
:100840000623012205211C4800F090F801211A48D6
:1008500000F037F8174800F0E5F800BF154800F041
:1008600052F80028FAD1134800F0ECF800BF114804
:1008700000F032F80028FAD10F4800F0D3F800BF9A
:100880000D4800F040F80028FAD10B4800F0DAF8E3
:1008900000BF094800F020F80028FAD101210548DE
:1008A00000F0C5F80121044800F0C1F807B000BD10
:1008B000000801400024014000280140CA430260B2
:1008C000704721B1826842F00102826003E08268D1
:1008D00022F0010282607047014600208A6802F01F
:1008E00004020AB1012000E0002070470146C86CF4
:1008F00080B270470246002013680B400BB1012004
:1009000000E000207047014600208A6802F00802DB
:100910000AB1012000E000207047000030B5024617
:100920000020002350680F4C20400D790C6844EAE9
:1009300005242043506090680B4C2040D1E90254BC
:100940002C434D7944EA450420439060D06A20F45A
:1009500070000C7C641EE4B2234340EA0350D06272
:1009600030BD0000FFFEF0FFFDF7F1FFF0B50446DB
:100970000D4600200021092D11DDE068A5F10A06D1
:1009800006EB4607072606FA07F18843A5F10A0693
:1009900006EB460603FA06F10843E0600CE0206926
:1009A00005EB4507072606FA07F1884305EB4506E0
:1009B00003FA06F108432061072A0FDA606B561E1E
:1009C00006EB86071F2606FA07F18843561E06EB3C
:1009D000860605FA06F10843606322E00D2A0FDA65
:1009E000206BD61F06EB86071F2606FA07F1884301
:1009F000D61F06EB860605FA06F10843206310E0D1
:100A0000E06AA2F10D0606EB86071F2606FA07F13B
:100A10008843A2F10D0606EB860605FA06F10843A7
:100A2000E062F0BD816841F008018160704721B14A
:100A3000826842F4A002826003E0826822F4A0028D
:100A400082607047816841F004018160704700BF97
:100A5000FEE700000120014908707047850600206C
:100A60001FB50621002000F0BBF84020ADF80C00B7
:100A700048208DF80F0003208DF80E0003A91048C0
:100A800000F0CEF8402000900C208DF805000020EA
:100A90008DF8040001208DF80600684600F056F835
:100AA00017208DF8080002208DF8090000208DF82D
:100AB0000A0001208DF80B0002A800F07DFB1FBD8D
:100AC000000801407047000001B504490098086023
:100AD00000BF024800680028FBD108BD8006002046
:100AE00010B5802000F01EF820B1802000F014F82E
:100AF00000F0F0FE402000F015F848B1054800E095
:100B0000401E0028FCD1402000F006F8FFF7A2FFAD
:100B100010BD0000846301000149086070470000B7
:100B200014040140014600200022074B1B6803EA21
:100B30000102054B14331B680B4013B10AB10120AD
:100B400000E000207047000000040140002123491C
:100B50008279002A3AD00A46126803689A430B4603
:100B60001A600A1D126803689A430B1D1A60027905
:100B700011440A6803681A430A60184A0832126866
:100B800003689A43154B08331A601A1D12680368EC
:100B90009A43124B0C331A604279102A0ED11A1F55
:100BA000126803681A430D4B08331A601A1D126845
:100BB00003681A43094B0C331A600DE00749427968
:100BC00011440A6803681A430A6005E00279114477
:100BD0000A6803689A430A607047000000040140F5
:100BE00030B500228B071C0F0F2303FA04F20B4BC6
:100BF0008C1053F824309343084C8D1044F8253062
:100C000023468C1053F824308C07240F00FA04F488
:100C10002343024C8D1044F8253030BD08000140BC
:100C20002DE9F04102460025002600200023002483
:100C3000002791F803C00CF00F0591F803C00CF0E9
:100C4000100CBCF1000F03D091F802C04CEA05056E
:100C500091F800C0BCF1000F31D0146800202BE0E7
:100C60004FF0010C0CFA00F3B1F800C00CEA0306D7
:100C70009E4220D183004FF00F0C0CFA03F7BC43C7
:100C800005FA03FC4CEA040491F803C0BCF1280FF8
:100C900006D14FF0010C0CFA00FCC2F814C00AE0B7
:100CA00091F803C0BCF1480F05D14FF0010C0CFACC
:100CB00000FCC2F810C0401C0828D1D31460B1F861
:100CC00000C0BCF1FF0F34DD546800202EE000F1BD
:100CD000080C4FF0010808FA0CF3B1F800C00CEA58
:100CE00003069E4221D183004FF00F0C0CFA03F74C
:100CF000BC4305FA03FC4CEA040491F803C0BCF1C0
:100D0000280F05D100F1080C08FA0CF8C2F814807D
:100D100091F803C0BCF1480F07D100F1080C4FF067
:100D2000010808FA0CF8C2F81080401C0828CED33D
:100D30005460BDE8F0814161704701617047000077
:100D400038B5044600201849087000F05DF900F03D
:100D500075FA17200423082200210090134800F0A0
:100D6000D1FA07203323082200210090104800F018
:100D7000C9FA072072230822002100900D4800F0D4
:100D8000C1FA204602F02AF80CE000BF06480078BD
:100D90000028FBD000F038F9012800D138BD002030
:100DA00001490870F1E7000089060020580500207D
:100DB000100600204806002038B500201C490870A5
:100DC00000F022F900F03AFA17200423082200214B
:100DD0000090184800F096FA0720332308220021DB
:100DE0000090154800F08EFA072072230822002197
:100DF0000090124800F086FA18E000BF0C48007816
:100E00000028FBD0FFF7ACFC0546C01705EB1060CF
:100E1000C0F3072400F0F8F8012801D1204638BDBE
:100E2000204601F0DBFF002001490870E5E70000E3
:100E30008906002030040020E8040020200500205E
:100E400001200149087070478906002000BFFEE7B5
:100E500010B5044624B14FF400600C49086003E06B
:100E60004FF00060094908604FF48060074908604E
:100E700000F00EF84FF080600449086000F008F8B8
:100E80004FF400600149086010BD0000100C0140E3
:100E9000002001E0411CC8B20A28FBDB70470000BB
:100EA00010B50121082000F03DFE14200549C8704E
:100EB0004FF440600880032088700348FFF7B0FEBD
:100EC00010BD00002C000020000C014070B5002473
:100ED00018E04FF480600D490860FFF7D9FF0B4818
:100EE00008380068C0F3C02020B1C4F10701012018
:100EF0008840C5B24FF0806004490860FFF7C8FF22
:100F0000601CC4B2082CE4DB284670BD100C014004
:100F100070B5054600241DE0C4F1070045FA00F055
:100F200000F0010020B14FF400600F49086003E0B9
:100F30004FF000600C4908604FF480600A49086077
:100F4000FFF7A6FF4FF0806007490860FFF7A0FF9A
:100F5000601CC4B2082CDFDB4FF40060024908605B
:100F6000FFF796FF70BD0000100C014010B54FF464
:100F700000600849086040100860FFF789FF4FF0E3
:100F8000006004490860FFF783FF4FF0806001496B
:100F9000086010BD100C014010B54FF0006006490C
:100FA00008604010086000140860FFF771FF4FF4FC
:100FB00000600149086010BD100C014010B54FF4ED
:100FC00000600D490860FFF763FF4FF480600A4935
:100FD0000860FFF75DFF084808380068C0F3C020CC
:100FE00008B1012400E000244FF08060024908604D
:100FF000FFF74EFF204610BD100C014010B500F069
:10100000CDFCFFF72DFD10BD10B500F005FC04462A
:1010100034B90448007818B101240020014908704F
:10102000204610BD8506002008B500200090012153
:10103000042000F077FD02211D48FFF77EFE02200C
:10104000ADF8000010208DF8030003208DF8020099
:1010500069461748FFF7E4FD0121042000F062FD16
:1010600004211348FFF769FE0420ADF800001020AA
:101070008DF8030003208DF8020069460C48FFF745
:10108000CFFD0121042000F04DFD08210848FFF7A5
:1010900054FE0820ADF8000010208DF80300032056
:1010A0008DF8020069460248FFF7BAFD08BD00004E
:1010B0000008014070B504460D4629462046FFF75A
:1010C0003CFE70BD70B504460D4629462046FFF72C
:1010D00032FE70BD10B52C4890F9000000280ADDE2
:1010E00029480078401E40B227490870022127484D
:1010F000FFF7E8FF0CE02448007848B92248007860
:10110000401E40B22049087002212048FFF7D2FF5C
:101110001F4890F9000000280ADD1D480078401E95
:1011200040B21B49087004211848FFF7CBFF0CE0C0
:101130001748007848B916480078401E40B2144954
:10114000087004211148FFF7B5FF124890F900001C
:1011500000280ADD0F480078401E40B20D49087093
:1011600008210A48FFF7AEFF0CE00A48007848B9AA
:1011700008480078401E40B206490870082103481C
:10118000FFF798FF10BD0000860600200008014010
:101190008706002088060020022001490870704759
:1011A0008806002002200149087070478706002049
:1011B00000BFFEE77047000070B5002100230F223A
:1011C000C47804B3154C246804F4E064C4F5E06406
:1011D000210AC1F10403CA40447804FA03F1847877
:1011E0001440214309010E4C0678A155047804F0FF
:1011F0001F050124AC4005786D11AD0005F1E02517
:10120000C5F8004109E0047804F01F050124AC4052
:10121000044D0678761145F8264070BD0CED00E0CF
:1012200000E400E080E100E002490143024A11606D
:10123000704700000000FA050CED00E010B5FFF764
:1012400095FE7820FFF764FE00BFFFF7B7FE002889
:10125000FBD1FFF75DFE00BFFFF7B0FE0028FBD11A
:101260002220FFF755FE00BFFFF7A8FE0028FBD1A4
:10127000FFF74EFE00BFFFF7A1FE0028FBD10720BD
:10128000FFF746FE00BFFFF799FE0028FBD12120A3
:10129000FFF73EFE00BFFFF791FE0028FBD1FFF7EE
:1012A00037FE00BFFFF78AFE0028FBD17F20FFF743
:1012B0002FFE00BFFFF782FE0028FBD1FFF756FE8E
:1012C0007820FFF725FE00BFFFF778FE0028FBD14E
:1012D0004020FFF71DFE00BFFFF770FE0028FBD186
:1012E0004FF4806408E00020FFF712FE00BFFFF714
:1012F00065FE0028FBD1641E002CF4DCFFF74CFED9
:1013000010BD00002DE9F84F81460D4614461E46DB
:101310000A9F2819401E00F0FF0AF019401EC0B2B3
:101320000090BAF1080F06DA0098802803DA012C41
:1013300001DB012F02DA36A001F052FEFFF716FEA4
:101340007820FFF7E5FD00BFFFF738FE0028FBD14E
:10135000FFF7DEFD00BFFFF731FE0028FBD12220A2
:10136000FFF7D6FD00BFFFF729FE0028FBD1284676
:10137000FFF7CEFD00BFFFF721FE0028FBD150464E
:10138000FFF7C6FD00BFFFF719FE0028FBD12120A3
:10139000FFF7BEFD00BFFFF711FE0028FBD130466E
:1013A000FFF7B6FD00BFFFF709FE0028FBD100984C
:1013B000FFF7AEFD00BFFFF701FE0028FBD1FFF7EE
:1013C000D5FD7820FFF7A4FD00BFFFF7F7FD00284B
:1013D000FBD14020FFF79CFD00BFFFF7EFFD002889
:1013E000FBD104FB07FB80460CE019F80800FFF76F
:1013F0008FFD00BFFFF7E2FD0028FBD108F10100DF
:101400001FFA80F8D845F0DBFFF7C6FDBDE8F88F7E
:101410004F4C45445F44726177506963E68EA5E6A0
:1014200094B6E588B0E99D9EE6B395E58F82E69592
:10143000B021000008B58020002308221946009042
:101440000648FFF75FFF002004E00021044A115422
:10145000411CC8B21028F8DB08BD0000D0060020EF
:10146000D00A002010B5FFF781FD7820FFF750FD6E
:1014700000BFFFF7A3FD0028FBD1FFF749FD00BF28
:10148000FFF79CFD0028FBD1AF20FFF741FD00BF17
:10149000FFF794FD0028FBD18120FFF739FD00BF45
:1014A000FFF78CFD0028FBD17F20FFF731FD00BF47
:1014B000FFF784FD0028FBD12020FFF729FD00BFA6
:1014C000FFF77CFD0028FBD10120FFF721FD00BFC5
:1014D000FFF774FD0028FBD12220FFF719FD00BFA4
:1014E000FFF76CFD0028FBD1FFF712FD00BFFFF7EF
:1014F00065FD0028FBD10720FFF70AFD00BFFFF7BD
:101500005DFD0028FBD12120FFF702FD00BFFFF7A2
:1015100055FD0028FBD1FFF7FBFC00BFFFF74EFD98
:101520000028FBD17F20FFF7F3FC00BFFFF746FD4B
:101530000028FBD1A020FFF7EBFC00BFFFF73EFD2A
:101540000028FBD1C820FFF7E3FC00BFFFF736FD02
:101550000028FBD1D920FFF7DBFC00BFFFF72EFDF1
:101560000028FBD12220FFF7D3FC00BFFFF726FDA8
:101570000028FBD1DB20FFF7CBFC00BFFFF71EFDEF
:101580000028FBD12020FFF7C3FC00BFFFF716FDAA
:101590000028FBD18D20FFF7BBFC00BFFFF70EFD3D
:1015A0000028FBD11420FFF7B3FC00BFFFF706FDB6
:1015B0000028FBD1AF20FFF7ABFC00BFFFF7FEFC1C
:1015C0000028FBD1FFF7D2FC7820FFF7A1FC00BF79
:1015D000FFF7F4FC0028FBD14020FFF799FC00BF87
:1015E000FFF7ECFC0028FBD14FF4806408E00020FA
:1015F000FFF78EFC00BFFFF7E1FC0028FBD1641E63
:10160000002CF4DCFFF7C8FC10BD00002DE9F04110
:10161000FFF7ACFC7820FFF77BFC00BFFFF7CEFCA8
:101620000028FBD1FFF774FC00BFFFF7C7FC0028C0
:10163000FBD12220FFF76CFC00BFFFF7BFFC0028A6
:10164000FBD1FFF765FC00BFFFF7B8FC0028FBD11A
:101650000720FFF75DFC00BFFFF7B0FC0028FBD1BF
:10166000804600246FE03B48005D10B94FF0000851
:1016700067E000255FE03748005D80212941084090
:1016800010B94FF0000854E005EBC400C6B2B8F141
:10169000000F3AD1FFF76AFC7820FFF739FC00BF52
:1016A000FFF78CFC0028FBD1FFF732FC00BFFFF7EF
:1016B00085FC0028FBD12120FFF72AFC00BFFFF7A3
:1016C0007DFC0028FBD13046FFF722FC00BFFFF76E
:1016D00075FC0028FBD17F20FFF71AFC00BFFFF745
:1016E0006DFC0028FBD1FFF741FC7820FFF710FCD0
:1016F00000BFFFF763FC0028FBD14020FFF708FC88
:1017000000BFFFF75BFC0028FBD100270CE007EBD4
:10171000C601114A505CFFF7FBFB00BFFFF74EFC10
:101720000028FBD1781CC7B2082FF0DB4FF001086E
:1017300000BF681CC5B2082D9DDB00200549085577
:1017400000BF601CC4B2102C8DDBFFF725FCBDE888
:10175000F0810000D00A0020D006002010B5FFF76D
:1017600005FCE620FFF7D4FB00BFFFF727FC0028AD
:10177000FBD1EF20FFF7CCFB00BFFFF71FFC0028D9
:10178000FBD1FFF7C5FB00BFFFF718FC0028FBD11A
:10179000002420E0FFF7EAFBE620FFF7B9FB00BFDB
:1017A000FFF70CFC0028FBD11A4911F81400FFF7D1
:1017B000AFFB00BFFFF702FC0028FBD1154901EB8E
:1017C00044014878FFF7A4FB00BFFFF7F7FB0028B0
:1017D000FBD1601CC4B21E2CDCD3FFF7C7FBE62094
:1017E000FFF796FB00BFFFF7E9FB0028FBD1EF20D6
:1017F000FFF78EFB00BFFFF7E1FB0028FBD1FFF7EF
:1018000087FB00BFFFF7DAFB0028FBD1FFF7C4FB23
:1018100010BD0000443C000808B52D48007808B908
:10182000002008BD00202A490870FFF79FFBE62032
:10183000FFF76EFB00BFFFF7C1FB0028FBD1432081
:10184000FFF766FB00BFFFF7B9FB0028FBD1FFF7EE
:101850008DFBE720FFF75CFB00BFFFF7AFFB002825
:10186000FBD1FFF733FB8DF800000020FFF7F0FA03
:10187000FFF72CFB0002C0B28DF801000120FFF73A
:10188000E7FAFFF789FB9DF800009DF8011040EA98
:101890000120082812D006DC012809D0022809D02E
:1018A000042811D108E040280AD080280CD109E092
:1018B0000320B6E70220B4E70520B2E70420B0E732
:1018C0000620AEE70720ACE700BF00BF0020A8E776
:1018D000840600200120014908707047840600201A
:1018E00010B5FFF743FBE620FFF712FB00BFFFF741
:1018F00065FB0028FBD1EF20FFF70AFB00BFFFF7D5
:101900005DFB0028FBD1FFF703FB00BFFFF756FB91
:101910000028FBD1002420E0FFF728FBE620FFF79A
:10192000F7FA00BFFFF74AFB0028FBD11A4911F86C
:101930001400FFF7EDFA00BFFFF740FB0028FBD1D2
:10194000154901EB44014878FFF7E2FA00BFFFF7C1
:1019500035FB0028FBD1601CC4B2332CDCD3FFF76D
:1019600005FBE620FFF7D4FA00BFFFF727FB0028AE
:10197000FBD1EF20FFF7CCFA00BFFFF71FFB0028D9
:10198000FBD1FFF7C5FA00BFFFF718FB0028FBD11A
:10199000FFF702FB10BD0000DE3B000810B500F0B1
:1019A00021F800F051F810B906A001F019FB05204C
:1019B000FFF78AF8FFF794FF0520FFF785F8FFF798
:1019C000CDFE10BDE6898BE58ABFE8AF86E588AB22
:1019D000E6A8A1E59D97E594A4E98692E5A4B1E87F
:1019E000B4A500001FB507210020FFF7F9F88020FB
:1019F000ADF80C0028208DF80F0003208DF80E00A4
:101A000003A91048FFF70CF9802000900C208DF8F6
:101A1000050000208DF8040001208DF806006846BE
:101A2000FFF794F817208DF8080002208DF80900C0
:101A300000208DF80A0001208DF80B0002A8FFF7A6
:101A4000BBFB1FBD0008014010B5FFF78FFAE62071
:101A5000FFF75EFA0520FFF737F8FFF787FAE62071
:101A6000FFF756FA0520FFF72FF8FFF77FFAE62079
:101A7000FFF74EFA00BFFFF7A1FA0028FBD1EF20D5
:101A8000FFF746FA00BFFFF799FA0028FBD1FFF7EE
:101A90003FFA00BFFFF792FA0028FBD1FFF766FA82
:101AA000E620FFF735FA00BFFFF788FA0028FBD1E0
:101AB000FFF72EFA00BFFFF781FA0028FBD1FFF7EE
:101AC00055FAE720FFF724FA00BFFFF777FA00285E
:101AD000FBD1FFF7FBF904460120FFF7B9F9FFF747
:101AE0005BFA204610BD704710B50121084600F092
:101AF00019F80121042000F015F84FF4A060FFF759
:101B000093FB10BD29B1064AD2690243044BDA6146
:101B100004E0034AD2698243014BDA617047000056
:101B20000010024029B1064A92690243044B9A61AF
:101B300004E0034A92698243014B9A6170470000B6
:101B40000010024010B5FEF723FE04462046FEF7C3
:101B500003FB10BD2DE9F04781460F461646BA46F5
:101B6000504601F0B5FA0446002003E0002121545C
:101B7000411CC8B2B842F9DB00252DE0FEF7E2FABD
:101B800000F0FF084046FEF7E7FA00201FE0A842F9
:101B900005D104F8008009EB0501315419E0215CFE
:101BA000414500DC11E06A1E51B206E0635C4A1C4C
:101BB000A354735CB3544A1E51B28142F6DA04F85E
:101BC000008009EB0501315403E0411CC8B2A84272
:101BD000DDDD00BF681CC5B2BD42CFDB204601F091
:101BE0000FFABDE8F087704710B500F001F810BD9E
:101BF0000CB50020019000903348006840F480301C
:101C00003149086000BF3048006800F4003000909F
:101C10000198401C0190009818B90198B0F5A06F88
:101C2000F1D12948006800F4003010B10120009083
:101C300001E0002000900098012843D1234800686B
:101C400040F01000214908600846006820F00700B5
:101C500008600846006840F0020008601A484068C2
:101C6000194948600846406848600846406840F4A2
:101C7000806048600846406820F47C104860084650
:101C8000406840F4E81048600846006840F0807002
:101C9000086000BF0C48006800F000700028F9D010
:101CA0000948406820F0030007494860084640683A
:101CB00040F00200486000BF0348406800F00C009C
:101CC0000828F9D10CBD000000100240002002409D
:101CD00010B500F05BF910BD10B51348006840F076
:101CE00001001149086008464068104908400E4943
:101CF0004860084600680E4908400B4908600846DD
:101D0000006820F4802008600846406820F4FE0047
:101D100048604FF41F008860FFF766FF4FF00060D7
:101D20000449086010BD0000001002400000FFF8E8
:101D3000FFFFF6FE08ED00E030B5164800684FF4EE
:101D40007A72B0FBF2F1B1F1807F01D301201DE086
:101D500021F07F40401E4FF0E022506150170F22CB
:101D6000002807DA13071D0E0B4B00F00F04241F89
:101D70001D5503E013071C0E084B1C5400BF002028
:101D80004FF0E022906107201061002008B100BFF1
:101D9000FEE730BD0000002018ED00E000E400E0A8
:101DA00010B50121880700F042F800F035F810BDA9
:101DB0001FB51C208DF80C0001208DF80D008DF84A
:101DC0000E008DF80F0003A8FFF7F6F90121084671
:101DD000FFF798FE40F2F310ADF8040041F61F4003
:101DE000ADF800000020ADF80600ADF802008DF857
:101DF000080069464FF0804000F032F80121880762
:101E000000F012F801221146900700F01FF801219E
:101E1000880700F00FF81FBD10B500F0A5F8FFF718
:101E20000FF8FFF757F910BDCA4302827047CA4343
:101E30000282704721B1028842F00102028004E070
:101E400002884FF6FE731A40028070471AB18389E8
:101E50000B43838102E083898B43838170470000B9
:101E6000002202881D4B98420ED01D4B98420BD089
:101E7000B0F1804F08D01B4B984205D01A4B9842C6
:101E800002D01A4B984204D14FF68F731A404B88F8
:101E90001A43174B984207D0164B984204D04FF67E
:101EA000FF431A40CB881A4302808B8883850B88B6
:101EB00003850A4B98420BD0094B984208D00E4B31
:101EC000984205D00D4B984202D00D4B984201D15B
:101ED0000B7A03860123838270470000002C0140A7
:101EE000003401400004004000080040000C0040A5
:101EF0000010004000140040004001400044014038
:101F00000048014070B504461348047000F0ECFB33
:101F10001BE009E0FFF778F8054625B1284600F0F8
:101F20004BFC00F083F900BF0C4890F9000000283A
:101F3000F0DC00F0F7FC00F079F9FFF72DF900BFB5
:101F4000064890F900000028FADD054800780028CE
:101F5000DFD10448006870BD200000201F00002071
:101F60002100002014000020064890F90000401CC9
:101F70000549097890FBF1F201FB120040B20149DA
:101F8000087070471F0000202000002004480068EF
:101F900020B103480068401E0149086070470000F6
:101FA0008006002000BFFEE72DE9FF5F444800786F
:101FB00040B10020424908704248007840F0FE00DD
:101FC00040490870002401E0601CC4B23E4830F86B
:101FD000140008B1182CF7DB4FF0000AD1462EE0B0
:101FE000394830F81900C0F3090040F2FF31884247
:101FF00004D009F1010000F0FF0920E00AF101001E
:1020000000F0FF0A484617E0611E814204D100211A
:102010002D4A22F8101005E02B4A411C32F811100D
:1020200022F81010284931F8101041F40041264AD6
:1020300022F81010411CC8B2A042E5DB00BFA14548
:10204000CEDBBAF1000F30D01E48007840F001001E
:102050001C4908701D490978C1F11300FEF7F6F814
:1020600005460E465046FEF702F907463A460B462D
:1020700000204FF0804101F061F82A463346CDE957
:102080000001FEF771F8CDE90201FEF7FDF8834685
:102090000F48007800F0020008B14FEA4B0B0D48E2
:1020A000006858440B49086000BF0748008DC0F322
:1020B000090010B1002008490870BDE8FF9F00002A
:1020C000230000201E0000209C060020200000208D
:1020D0002200002014000020210000202DE9F05FE4
:1020E0008046894600210E460F468B4617E00120A8
:1020F00000FA0BF000EA090000B90CE00BF1010056
:1021000000EB80020F24002520462946FEF70AF83E
:1021100006430F4300BF0BF1010000F0FF0BBBF1C2
:102120000A0FE4DBC8F1130000EB8000173000F069
:10213000FF0A012347E00AEB0301C8B24FEAE07C43
:1021400000EB5C7C4FEAEC0CDFF884B01BF80CC0B1
:1021500002464FEAE07B00EB5B7B4FEAEB0BA0EB28
:10216000CB0E4FF0800B4BFA0EFB4CEA0B0C0146EA
:102170004FEAE07B00EB5B7B4FEAEB0BDFF850E0D4
:102180000EF80BC0134901EBC001D1E900214FF05B
:102190000F0CDFF844B002EA0C0201EA0B01DFF891
:1021A00034C00CEBC00CCCE900210A4901EBC002A1
:1021B00006CA31433A43DFF81CC00CEBC00CCCE933
:1021C0000012581CC3B2042BB5DDBDE8F09F00001F
:1021D000D00A0020D0060020000080FFF0B50346A2
:1021E0000D46164600211BE0585C284442B2481CAC
:1021F000185C304444B2142C00DB0FE0002A0ADBE8
:102200000A2A08DA002C06DB074830F814000127F8
:102210009740384008B10020F0BD00BF881CC1B213
:102220000829E1DB0120F7E79C0600202DE9F041B9
:102230009F48007800F00100002861D09D480468A4
:1022400000255AE00A20B4FBF0F100FB11460123FF
:102250004CE0142101EB85011944C8B2C71700EB0B
:102260005777FF10DFF850C21CF8077002464FEA9C
:10227000E07C00EB5C7C4FEAEC0CA0EBCC084FF070
:10228000800C4CFA08FC47EA0C0701464FEAE07C58
:1022900000EB5C7C4FEAEC0CDFF81C8208F80C7059
:1022A000864901EBC001D1E900214FF0F8473943DD
:1022B000824F07EBC007C7E9002106EB4601804AC1
:1022C0000A44591E515C0F060021CA43F9437B4F53
:1022D00007EBC00CDCE9007C3A4001EA0C01774FC7
:1022E00007EBC007C7E90021581CC3B2032BB0DDC0
:1022F0000A20B4FBF0F4681CC5B2002CA2D100BFC8
:102300006B48007800F00200002843D000233FE033
:1023100003F10C01C8B2C41700EB5474E410664D0D
:102320002C5D0246C51700EB5575ED10A0EBC506F8
:10233000802535412C430146C51700EB5575ED103E
:102340005D4E74555D4901EBC001D1E900216FF488
:10235000FF552A40594C04EBC004C4E900215749F9
:1023600001EBC00130C95749574A127801EB82018D
:10237000CA5C0021490141EAD2615601344345EA71
:1023800001024E4901EBC001C1E90042581CC3B231
:10239000042BBDDB4648007800F00400F0B30023B6
:1023A00041E003F10C01C8B2C41700EB5474E4100F
:1023B000414D2C5D0246C51700EB5575ED10A0EBA5
:1023C000C506802535412C430146C51700EB5575E0
:1023D000ED10394E7455394901EBC001D1E90021A6
:1023E0006FF0FF452A40354C04EBC004C4E90021DE
:1023F000324901EBC00130C93249344A127801EB4D
:102400008201C95C0022D20542EA5122CE05344342
:1024100045EA0201294A02EBC00200E005E0C2E9F8
:102420000041581CC3B2042BBBDB2148007800F0EC
:102430000800D0B12048007840F004001E49087020
:102440002348007840B11D48D0E90A10214B1940BB
:102450001A4AC2E90A1008E01849D1E90A011D4ADE
:10246000D2431043154AC2E90A01002417E01A4872
:1024700030F8140000F4004000B90EE0164830F8BF
:1024800014102046FFF72AFE134830F81400C0F35A
:102490000E00114921F8140000BF601CC4B2142CB6
:1024A000E5DB002002490870FFF7B0F8BDE8F081D5
:1024B0001E00002014000020D00A0020D0060020BA
:1024C000803B0008603B00081C0000201D0000202D
:1024D00023000020BD97FEFF9C0600203EB55D480E
:1024E000007808B900203EBD01A800905A4890F934
:1024F00000305A4890F90020594801785548007832
:1025000000F0B2F8002031E001A901EB400191F99F
:102510000110182900DB27E001A901EB400191F926
:102520000110504A32F8111001AA12F8103001229D
:102530009A40914301AA02EB400292F90120494BD3
:1025400023F8121001A901EB400191F901101A467C
:1025500032F8111041F4004101AA02EB400292F955
:10256000012023F8121000BF411CC8B20428CBDBA5
:102570000125002407E0601E44B22246002101A884
:10258000FFF72CFEC5B2002DF5D1601C44B23248D5
:102590000078204440B23049087001A800900846F5
:1025A00090F900302D4890F900202D4801782948F5
:1025B000007800F059F8002046E001A901EB400145
:1025C00091F90010002914DB01A901EB400191F9F8
:1025D00000100A290DDA01A901EB400191F901105F
:1025E000002906DB01A901EB400191F9011018292E
:1025F00000DB27E001A901EB400191F90110194A24
:1026000032F8111001AA12F8103001229A40114339
:1026100001AA02EB400292F90120124B23F812109A
:1026200001A901EB400191F901101A4632F811108D
:1026300041F4004101AA02EB400292F9012023F883
:10264000121000BF411CC8B20428B6DB6042C0B201
:1026500049E70000180000201B0000201A0000209D
:10266000190000209C0600202DE9F04705460E4683
:1026700017469846DDF8209015B910A000F0B0FC80
:10268000184800EBC50030F81640002011E004F0B7
:102690000301394449B209F81010A41004F00301F1
:1026A00041444AB24100491C09F80120A410411CD0
:1026B000C8B20428EBDBBDE8F087000054726965FE
:1026C0006420746F2067657420626C6F636B732085
:1026D0006F6620426C6F636B547970655F4E6F6EEE
:1026E000650000009E3B00082DE9F041002421E038
:1026F0000021244A02EBC40211605160002515E05C
:1027000005EBC40020490E5C0027EA00304639463C
:10271000FDF708FD1B4A02EBC4030CCB1043194321
:10272000184A02EBC40203C2681CC5B2082DE7DBDD
:10273000601CC4B2802CDBDB002005E00021134AC2
:1027400022F81010411CC8B21828F7DB00201049ED
:102750000860104908701049087010490870104945
:10276000087010490870104908701049087001205D
:102770000F4908700F490870FEF746FCFEF75AFE35
:10278000BDE8F081D0060020300000209C0600202B
:10279000140000201C0000201D0000201800002054
:1027A0001E00002022000020230000202B0000201B
:1027B000210000201F00002070B504460125A01E46
:1027C00006282AD2DFE800F0030610151A2100F0CF
:1027D0002FF824E01448007840F0010012490870F6
:1027E000FF20124908701AE00021481E00F0E2F8AC
:1027F00015E00021012000F0DDF810E0012000F0DC
:102800009DF901200949087009E04FF0FF3000F000
:1028100095F901200549087001E0002500BF00BFBF
:102820000DB1FEF7BFFC70BD220000201F0000208C
:102830003EB53448007800B13EBD3348007800B959
:10284000FAE701202F49087001A800902F4890F95D
:1028500000302F4890F900202E4801782A4800784F
:10286000FFF702FF002031E001A901EB400191F9DF
:102870000110182900DB27E001A901EB400191F9C3
:102880000110254A32F8111001AA12F81030012265
:102890009A40914301AA02EB400292F901201E4B9B
:1028A00023F8121001A901EB400191F901101A4619
:1028B00032F8111041F4004101AA02EB400292F9F2
:1028C000012023F8121000BF411CC8B20428CBDB42
:1028D0001248007840F00A001049087003200C49A3
:1028E000087014200949087000200A4908700C4833
:1028F0000478054800780A4908700348047000BF4E
:102900009AE7000023000020180000201B00002090
:102910001A000020190000209C0600201E00002044
:102920001C00002010B51E48007850B903201D4936
:10293000087014201C49087000201C49087000F021
:1029400019FA1B48007800F00100A0B1FFF7C6FD9E
:1029500028B11748007820F0020015490870144883
:10296000007820F001001249087000200C4908701E
:10297000FFF71AFB10BD4FF0FF31002000F01AF8EE
:1029800030B10B48007820F002000949087005E0DA
:10299000002003490870FFF707FBEBE700BFE9E7FA
:1029A000180000201A0000201B0000201900002041
:1029B00022000020FEB504460D465B48007808B9A9
:1029C0000120FEBD01A80090584890F900305848F9
:1029D00090F900205748017853480078FFF744FEEB
:1029E000002031E001A901EB400191F90110182903
:1029F00000DB27E001A901EB400191F901104E4AEB
:102A000032F8111001AA12F8103001229A409143B5
:102A100001AA02EB400292F90120474B23F8121061
:102A200001A901EB400191F901101A4632F8111089
:102A300041F4004101AA02EB400292F9012023F87F
:102A4000121000BF411CC8B20428CBDB2A46214625
:102A500001A8FFF7C3FB06465EB135480078204465
:102A600040B23349087031480078284440B22F49B9
:102A7000087001A800902D4890F900302C4890F97A
:102A800000202C48017828480078FFF7EDFD002051
:102A900046E001A901EB400191F90010002914DB87
:102AA00001A901EB400191F900100A290DDA01A9F1
:102AB00001EB400191F90110002906DB01A901EBAE
:102AC000400191F90110182900DB27E001A901EB71
:102AD000400191F90110184A32F8111001AA12F8B8
:102AE000103001229A40114301AA02EB400292F9F0
:102AF0000120114B23F8121001A901EB400191F9BB
:102B000001101A4632F8111041F4004101AA02EBFB
:102B1000400292F9012023F8121000BF411CC8B2F4
:102B20000428B6DB30464CE7180000201B000020CC
:102B30001A000020190000209C060020FEB5054662
:102B40008648007808B90120FEBD01A8009084489D
:102B500090F90030834890F90020834801787F483D
:102B60000078FFF781FD002031E001A901EB400171
:102B700091F90110182900DB27E001A901EB4001C0
:102B800091F90110794A32F8111001AA12F81030A7
:102B900001229A40914301AA02EB400292F90120DE
:102BA000724B23F8121001A901EB400191F90110B9
:102BB0001A4632F8111041F4004101AA02EB40021A
:102BC00092F9012023F8121000BF411CC8B204285A
:102BD000CBDB01A8009064480078001D4619F0176F
:102BE00006EB90708010A6EB8000C1B25C4890F9B3
:102BF00000305C4890F9002058480078FFF734FD19
:102C000000240022114601A8FFF7E8FA044664B93F
:102C10000022012101A8FFF7E1FA04462CB1514836
:102C20000078401C40B24F49087064B90022511E20
:102C300001A8FFF7D3FA04462CB14A480078401E99
:102C400040B24849087064B90122002101A8FFF789
:102C5000C5FA04462CB142480078401C40B24049B5
:102C600008706CB94FF0FF32002101A8FFF7B6FAE7
:102C700004462CB13A480078401E40B238490870EA
:102C80008CB139490978091D4819C11700EB9171B8
:102C90008910A0EB8101344A11703548007840F06A
:102CA00002003349087001A800902D4890F90030C7
:102CB0002C4890F900202C48017828480078FFF72C
:102CC000D3FC002046E001A901EB400191F900107E
:102CD000002914DB01A901EB400191F900100A2938
:102CE0000DDA01A901EB400191F90110002906DB81
:102CF00001A901EB400191F90110182900DB27E03F
:102D000001A901EB400191F90110184A32F81110A4
:102D100001AA12F8103001229A40114301AA02EBD5
:102D2000400292F90120114B23F8121001A901EB86
:102D3000400191F901101A4632F8111041F4004196
:102D400001AA02EB400292F9012023F8121000BF01
:102D5000411CC8B20428B6DB2046F5E61800002066
:102D60001B0000201A000020190000209C060020F3
:102D70002200002010B51448007820B9134A07211A
:102D80000120FEF7E7FE12480078124908700F484C
:102D90000D490978405C0E4908700B480078401CCA
:102DA000072190FBF1F201FB1200074908700A4865
:102DB000007840F00400084908700648007808B917
:102DC000FFF7D8FF10BD00002B00002024000020DA
:102DD0001D000020180000201E0000202DE9F04FEB
:102DE00089B00746002007E0002202AB03EBC003D6
:102DF0001A605A60411CC8B20528F5DB0024384629
:102E000004E0611CCCB20A21B0FBF1F00028F8D13B
:102E100004B901241C2000EB440000F0FF0BB8466D
:102E20004FF000092CE0042000FB19B0C0B2019063
:102E300000251CE00A20B8FBF0F100FB118000EB3C
:102E4000800016490844465D4FF0000A304651465E
:102E5000019AFDF767F902AA02EBC5030CCB1043F8
:102E6000194302AA02EBC50203C2681CC5B2052DB4
:102E7000E0DB0A20B8FBF0F809F1010000F0FF09DF
:102E8000A145D0DB05203E2308220021009002A8A6
:102E9000FEF738FA09B0BDE8F08F0000803C00086A
:102EA000490050EAC12018BF04204A0D18BF40F065
:102EB000010040F2FF72B2EB515F08BF40F0020028
:102EC000012808BF052070472DE9F0414F1E00EB97
:102ED000C7010446D1E9000115461E4637F0060237
:102EE0000DD02A463346FDF73FF97F1E04EBC7039A
:102EF000D3E90023FDF74EFA37F00602F1D1022F95
:102F000025D0042F13D0062F18BFBDE8F0812A4624
:102F10003346FDF729F9D4E90A23FDF73BFA2A469F
:102F20003346FDF721F9D4E90823FDF733FA2A46A1
:102F30003346FDF719F9D4E90623FDF72BFA2A46A3
:102F40003346FDF711F9D4E90423FDF723FA2A46A5
:102F50003346FDF709F9D4E90223FDF71BFA2A46A7
:102F60003346FDF701F9D4E90023BDE8F041FDF750
:102F700011BA00000022134610460149FDF7B1BA0C
:102F80000000F03FFDF706BA002213461046114636
:102F9000FDF7A7BA40F2013200204FF0E041FDF703
:102FA0000FBB0000024A00201107FDF709BB00001B
:102FB00001FDFFFF02E008C8121F08C1002AFAD174
:102FC00070477047002001E001C1121F002AFBD1A9
:102FD0007047000001490860704700009806002013
:102FE00002210648FEF76EF804210448FEF762F855
:102FF00008210248FEF75EF800BFFEE70008014026
:1030000010B5002821D0114B0022001F196803E0E1
:10301000814203D80A4649680029F9D152B11368A0
:10302000841A9C4204D1006818441060104602E0E3
:10303000506000E0186039B102680B1A934203D166
:103040000B681A4402604968416010BD9006002078
:10305000FEF74AFDFDF7E8FFFEF7AAFEFEF76CFE5D
:10306000FDF7BAFBFDF71CFFFEF7FCF9FDF7C6FF05
:10307000FEF768FD02211548FEF724F804211348E5
:10308000FEF720F808211148FEF71CF86420FDF730
:103090001BFD02210D48FEF70DF804210B48FEF739
:1030A00009F808210948FEF705F80DE0FDF784FE50
:1030B0000446C4F11200C5B22846FEF723FF0646B7
:1030C0003046FDF73DFE00BFF0E70000000801407C
:1030D000F0B50B30154D20F007010024144A0FE025
:1030E00003688B420BD38B4205D95E1A431847689D
:1030F000C3E9006700E04368136002C004E0021DFA
:1031000010680028ECD12046002802D1286808B1B8
:103110000020F0BD064A07481060074A121A22F044
:103120000702C0E9002401202860D7E794060020A8
:1031300090060020E40A0020E00C00202DE9F04D6C
:103140001D460C4698B0174621F0004123F000437D
:10315000002814BF4FF0010C4FF0000C0CEB440C96
:10316000FE4A0CEB02064FEA620C66452BD33E008A
:1031700018BF012606EB45061644F94A964222D3AB
:10318000F84A53EA070C02D0944205D148B918B066
:1031900000201146BDE8F08D002808BF4FF0000C5C
:1031A00001D04FF0010C0CEB440212F5001F0AD8BD
:1031B000002F14BF4FF0010C4FF0000C0CEB450238
:1031C00012F5001F07D918B03A462B462146BDE834
:1031D000F04DFFF7D7BE0022DFF88CA3002CB8BF5C
:1031E000534526DADFF884C36345A8BF022220DAFC
:1031F000DFF870C39C451CDCDFF874C30CEB235C68
:10320000BCF1140F08DDCCF1340627FA06FC0CFAE9
:1032100006F6BE420DD108E05FB9CCF1140623FAE0
:1032200006FC0CFA06F69E4203D10CF00102C2F134
:10323000020251EA000C19D1002D17DA002C18BF38
:10324000022A01D0012A07D00220FFF7C3FE18B0DE
:10325000BDE8F04DFFF78EBE0220FFF7BBFEFFF783
:1032600089FE18B081F00041BDE8F08DB7F1000C87
:103270006CD1534525D104F1804212F5801201BF73
:1032800000280020B74918B008BFBDE8F08DB54848
:10329000884207DC002DA1BF6046294618B0BDE872
:1032A000F08D07E0281E05DA80F0004118B0604676
:1032B000BDE8F08DAF497944D1E9000118B0BDE80F
:1032C000F08DDFF8A0C2634525D1002D1FDA19B1BA
:1032D000514512D1D8B909E0002840F0EC82A24A49
:1032E000214618B062F31E01BDE8F08D0020214692
:1032F00018B060F31E01BDE8F08D08DA18B023465F
:10330000BDE8F04D024600206146FDF7EAB818B06E
:103310002146BDE8F08D514518DAB5F1804F0DD04A
:10332000A5F1005CBCF1FF5C10D1B4F1000C0DDB29
:1033300018B06146BDE8F04D00F0ECBB234618B074
:103340000246BDE8F04D1946FCF70EBF060024F01A
:10335000004C3BD1D9B1514533D1002C06DD002DB5
:10336000A1BF0020514618B0BDE8F08D002C01DD52
:10337000002D1BDB002C13DA002D11DB012A4FF08E
:10338000000014BF78497C4918B0BDE8F08D022ACE
:1033900018BF002C0AD0012A08D1002C06DA0AE056
:1033A000002CB8BF002D11DA012A04D0002018B07B
:1033B0000146BDE8F08D18B000204FF00041BDE897
:1033C000F08DA1F14050B0F17F601AD0012000EBE8
:1033D000E47050EA020421D0624C521E4FF0000B00
:1033E000104304BF4FF0000B644C654883427CDD02
:1033F000644A654893421FDD884217DB002D25DBB8
:1034000037E0002C00DA4AB1022A0CBF01204FF04D
:10341000FF3018B0BDE8F04DFCF718BF0120FFF7F2
:10342000D9FD18B0BDE8F04DFFF7AEBD4D4A8A4258
:1034300002DC002D0ADC1CE0814202DA002D18DAE1
:1034400004E0484B994220DD002D12DD0220FFF7F9
:10345000C1FDFFF79FFD05460E4600225346584624
:103460002146FCF781FE18B066F31E012846BDE830
:10347000F08D0220FFF7AEFDFFF794FD0A462146CE
:1034800018B062F31E01BDE8F08D0022304661469F
:10349000FDF721F880460E466FF00102FDF790F827
:1034A0004FF05532394BFDF719F842463346FCF7D9
:1034B0005BFE0022364BFDF711F88246424633464A
:1034C000049110461946FCF74FFE5246049BFCF748
:1034D0004BFE8A4600904FF0C0422E4B404631468C
:1034E000FCF742FE2C4A2B4B00E027E0CDE9060119
:1034F00051460098FCF738FE82460191274A284B36
:1035000040463146FCF730FE5246019BFCF7E3FF94
:1035100082460B4602460591DDE90601FCF73AFFBB
:10352000DDE90623002688463046FCF7D4FF5246E4
:10353000059BFCF7D3FF024600F07EB90020B1F5F1
:10354000801F07DA352230466146FDF739F8064616
:103550006FF0340000EB215024E00000FFFF1F005B
:10356000FFFF0F000000F03F0000F07F000040432D
:1035700001FCFFFF860A00000000F0FF0000F0BF22
:103580000000E0410000F043FFFFEF3F5555D53FFD
:103590000000E03F4715F73FFE822B6544DF5DF8F2
:1035A0000BAE543EA0F2FF300190C1F3130040F087
:1035B0007F6141F040510291FE498842D8BF00200E
:1035C00004DDFD498142C8BF012001DD0D9008E006
:1035D00000200D900198401C01900298A0F58010E9
:1035E00002900299F54878440B910D9900EBC100C7
:1035F000D0E900230F9330460A920B99FCF76BFF3A
:10360000CDE90601DDE90A2130460F9BFCF7C2FE39
:1036100002460B460020EA49FCF763FF059102468B
:103620000B460090DDE90601FCF79EFD1490E5488D
:103630008A464FF0000878440299006812904FF0D3
:10364000005040EA61010D980F9B01EB804000F5AE
:10365000002109910A9A1298FCF73DFF32460B9B14
:10366000FCF73CFF42465346FCF77EFD06460291BE
:1036700040465146099B129AFCF776FDDDE9062388
:10368000FCF72CFF3246029BFCF725FF059B009AB6
:10369000FCF76AFD0091149A0490534610461946AF
:1036A000FCF762FD06460246C7480B46029106211A
:1036B0007844FFF709FCCDE90510029B324610461D
:1036C0001946FCF751FDDDE90532FCF74DFD05918A
:1036D0000646534640461946149AFCF75BFE009B8B
:1036E000049AFCF741FD3246059BFCF753FECDE9F9
:1036F00005104246534610461946FCF735FD002298
:10370000B24B02910A90FCF745FEDDE90532FCF769
:1037100041FE0E464246AD4B4046FCF7DCFE029BA6
:103720000A9AFCF7D8FEDDE90532FCF7D7FE4246DF
:1037300002910A90334610465146FCF715FDCDE93B
:1037400006015346149A02990A98FCF70DFD8A4621
:1037500002903346424600990498FCF705FD534613
:10376000029AFCF717FE82460B4602460591DDE9F8
:103770000601FCF70FFEDDE9062300208846064619
:10378000FCF7A9FE5246059BFCF7A8FE824609916C
:103790004FF060428E4B30464146FCF7E5FC04900A
:1037A00006918C4A8A4B50460999FCF7DDFC82460B
:1037B0000291894A894B30464146FCF7D5FC524676
:1037C000029BFCF7E7FD864B7B440D9A03EBC2039B
:1037D000D3E90023FCF7DEFD0E9007910198FCF77A
:1037E00035FD0591DDE9061382460E9A0498FCF733
:1037F000D1FD7C4A7A440D9B02EBC303D3E900233D
:1038000000930292FCF7C6FD5246059BFCF7C2FDF1
:103810000026884652463046059BFCF75CFE009B1E
:10382000029AFCF758FE069B049AFCF754FE079B8D
:103830000E9AFCF753FE024600200B4602903846D3
:103840002946FCF791FC824601912B4638461946E1
:10385000029AFCF740FE32464346FCF785FC52468E
:10386000019BFCF797FD07468A46324643462946A8
:103870000298FCF779FC05460E463A465346FCF79B
:1038800089FD594A8846914221DBA8EB020353EA9D
:10389000000210D12A463346FCF71DFECDE9040193
:1038A000524A534B38465146FCF774FDDDE9042378
:1038B000FCF79EFE21D20220FFF78CFBFFF76AFB8C
:1038C0000A46214618B062F31E01BDE8F08D494B4F
:1038D00028F000429A4210D3474A08EB020353EA09
:1038E00000027FF4C6AD2A463346FCF7F4FD3A46A3
:1038F0005346FCF77DFE7FF6BCAD0022019228F016
:1039000000403E493E4A01EB2051824223DA481CE6
:103910004FF4801121FA00F040443A4AC0F30A51B2
:103920007A44394BA1F2FF31CB4020EA0303C0F3C4
:10393000130040F48010C1F11401C84012680190D6
:10394000B8F1000FBCBF4042019028463146FCF759
:10395000C2FD05460E462A46334638465146FCF718
:1039600019FD4FF000084246284B40460591FCF7F0
:10397000FBFBCDE90601264A264B40460599FCF79C
:10398000F3FB009102902A46334640460599FCF726
:10399000A2FD3A465346FCF7A1FD1F4A1F4BFCF718
:1039A000E3FB009B029AFCF7F5FC074688460246BB
:1039B0000B4635E08E9803007AB60B00CE06000069
:1039C0000000F03F06070000340600000000084039
:1039D00009C7EE3FFD033ADCF5015B14E02F3EBE64
:1039E0000C050000D004000000009040FE822B6512
:1039F0004715973C00CC904000346F3F01FCFFFF1F
:103A00000000E03F1C040000FFFF0F00432EE63FD4
:103A1000396CA80C615C20BEEF39FAFE422EE63FFD
:103A2000DDE90601FCF7B6FCDDE9062305460E4696
:103A3000FCF751FD3A464346FCF750FD0F462A4637
:103A40003346009010461946FCF78EFB824602462C
:103A50002E4888460B4605217844FFF735FA524632
:103A60004346FCF781FB2A463346FCF737FD804688
:103A70008A463B4628463146009AFCF775FB3B4692
:103A8000009AFCF787FC0691009000224FF08043DB
:103A900040465146FCF71FFD0F460C9042465346E8
:103AA00028463146FCF760FB3B460C9AFCF719FDB3
:103AB000069B009AFCF70FFD2A463346FCF70BFDE8
:103AC0000022134BFCF70AFD054601980E4601EB58
:103AD00000510815002810DC28463146019AFCF7F1
:103AE0006FFDFFF7DDF9042808BFFFF75BFA2846F2
:103AF0003146019AFCF764FD05460B4618B02A468C
:103B000058462146BDE8F04DFCF72EBBBC02000034
:103B10000000F03F2DE9F04106460F46FCF7A4FDFA
:103B2000041E0D4618BF0120284320F00040C0F1BC
:103B30007F6000F1E040C00F0ED0301C18BF0120A4
:103B4000384320F00040C0F17F6000F1E040C00F3A
:103B500004BF0120FFF73EFA20462946BDE8F08168
:103B60000000000000FFFF007E7E18183C3C3C3C3B
:103B70001E1E787878781E1E06067E7E60607E7E29
:103B80007C447C407C445C54747C54547C101C7495
:103B9000545C74547C7C04047C547C7C545C000035
:103BA0000000000000009D1567459D1567456915DB
:103BB00056145914694556125612561256126A1561
:103BC00045126A15451269255601692556016A1282
:103BD00068459A155624591256049A266A45EF00EC
:103BE00037073817390641004200462D470F483C39
:103BF00049004A1E4C2051105E10602780428144CB
:103C000082048B019006950A960C97059A149C3FA6
:103C1000A519CC19CD0BCE13CF64D021EF01020F23
:103C20000310040225012739287F29083EFF5E3D45
:103C30006596679769CD6A016D2C6E0172017335C7
:103C400074007701EF0041004200EF00483C49005A
:103C5000511083209FF9EF01011E020F031004028F
:103C600041404330659666006797680169CD6A01F7
:103C70006BB06C046D2C6E017400EF0041FF4201CB
:103C800007050505070302020207070407010707E6
:103C900004070407050507040407010704070701D3
:103CA00007050707040404040705070507070507B8
:103CB0000407000000000000000000000000F03FCA
:103CC000000000000000F83F0000000000000000BD
:103CD0000000004003B8E23F0000000000000000C8
:103CE00006D0CF43EBFD4C3E033333333333E33F56
:103CF000FFAB6FDBB66DDB3F4D268F515555D53F82
:103D000001411DA96074D13F65DBC9934A86CD3F4F
:103D1000EF4E454A287ECA3F3E5555555555C53F3D
:103D200093BDBE166CC166BF2CDE25AF6A56113F2F
:103D3000F16BD2C541BDBBBED0A4BE726937663E31
:103D40000000000000000000683D000800000020A6
:103D50009C0600000A070008A83F00089C060020F7
:103D6000440A0000C42F00081184A24A04C00901BB
:103D700002030406070809F20A0A15FF012D436829
:103D80000F6D0828217B6B6F2D3C2060F543686F19
:103D900073BFEA7DE55F6B6F6D3F2220F0439B6F41
:103DA0006D7CB52DE5242D3F2069FB0810087FAA06
:103DB00064E00FC03F2DBFA4ADFB082914A9083D46
:103DC0003F8410C2203CF7D6DA103CF4D6C3203B27
:103DD000F5D6300D163F84D0C39038091342082120
:103DE000841042FE6955FFFFFE0F4C80FF0B080A4E
:103DF00016FE0809FD2809FD2809FD2819283BFBA6
:103E0000FF01480AFE13420821841042FE0F890177
:103E10001132042208104490D5FF49180808027096
:103E20005422FDC6FF090248442249020408024800
:103E3000DFFF7902049C0FFC0408481EFC080A48B6
:103E40001404781284080AC8157E481282C81F78A4
:103E5000C841FC128208054808221B128108001084
:103E60001116102811419C08E8110C4411386010FB
:103E700014800F1042015A021C690845C2799A71D8
:103E800045221226894CE21302103C100281083BA5
:103E900092021845C261827345107E157A452F2A19
:103EA0007C2F457D7E1312452D2A7E6E3D7A3A2A5F
:103EB00013104412667E3C786D7D103C12723E28D1
:103EC000457F651457454A781475457E2B7F054B11
:103ED0002B761045122B12522C6B7611103A90ACA7
:103EE00029082B2484081F91074482F07F672D70D6
:103EF0007FF1071826470487E03F271144448420B8
:103F0000221E725228F227082D5062280F181FCA4D
:103F10004710F007036F26A2181C840A1E412224B2
:103F20001344890712312343F037621F0E117D4E6F
:103F3000F43D5026B1055114445B8152084A1208E1
:103F4000279D123D91F23C27D117059112141B5168
:103F500014083A24081B111120375E147D0EF14518
:103F60001C3E727A1F213D22294963F853127A3D83
:103F70005569433E081B137A37213C2720520845D8
:103F8000541362333D12725A3A30446529113C4A47
:103F9000787A39457E2B29553D2B765B1B28442B9F
:083FA000087C051E6B767B2BEB
:04000005080000ED02
:00000001FF
