:020000040800F2
:10000000500D0020010100089D040008C3020008F3
:10001000990400089F010008F10A00080000000090
:1000200000000000000000000000000019090008A6
:10003000A301000800000000F5080008050A0008F8
:100040001B0100081B0100081B0100081B01000820
:100050001B0100081B0100081B0100081B01000810
:100060001B0100081B0100081B0100081B01000800
:100070001B0100081B0100081B0100081B010008F0
:100080001B0100081B0100081B0100081B010008E0
:100090001B0100081B0100081B0100081B010008D0
:1000A0001B0100081B0100081B0100081B010008C0
:1000B0001B0100081B0100081B0100081B010008B0
:1000C0001B0100081B0100081B0100081B010008A0
:1000D0001B0100081B0100081B0100081B01000890
:1000E0001B0100081B0100081B010008DFF80CD0F1
:1000F00000F018F800480047350B0008500D0020AC
:100100000648804706480047FEE7FEE7FEE7FEE7B1
:10011000FEE7FEE7FEE7FEE7FEE7FEE7090A000866
:10012000ED000008064C074D06E0E06840F00103D2
:1001300094E8070098471034AC42F6D3FFF7DAFF93
:100140008C0B0008AC0B000870B58C1810F8015B24
:1001500015F0070301D110F8013B2A1106D110F860
:10016000012B03E010F8016B01F8016B5B1EF9D164
:100170002B0705D40023521E0DD401F8013BFAE7EA
:1001800010F8013BCB1A921C03E013F8015B01F855
:10019000015B521EF9D5A142D8D3002070BD00BF2B
:1001A000FEE770472DE9F0410246002500260020B9
:1001B00000230024002791F803C00CF00F0591F8EC
:1001C00003C00CF0100CBCF1000F03D091F802C07A
:1001D0004CEA050591F800C0BCF1000F31D014685D
:1001E00000202BE04FF0010C0CFA00F3B1F800C036
:1001F0000CEA03069E4220D183004FF00F0C0CFA4C
:1002000003F7BC4305FA03FC4CEA040491F803C06D
:10021000BCF1280F06D14FF0010C0CFA00FCC2F81B
:1002200014C00AE091F803C0BCF1480F05D14FF0AB
:10023000010C0CFA00FCC2F810C0401C0828D1D3F5
:100240001460B1F800C0BCF1FF0F34DD5468002029
:100250002EE000F1080C4FF0010808FA0CF3B1F899
:1002600000C00CEA03069E4221D183004FF00F0C20
:100270000CFA03F7BC4305FA03FC4CEA040491F8BA
:1002800003C0BCF1280F05D100F1080C08FA0CF8E6
:10029000C2F8148091F803C0BCF1480F07D100F1F7
:1002A000080C4FF0010808FA0CF8C2F81080401C46
:1002B0000828CED35460BDE8F081416170470161E8
:1002C000704700BFFEE7002001E0411CC8B20A28C9
:1002D000FBDB704710B50121082000F00DFB142056
:1002E0000549C8704FF440600880032088700348B7
:1002F000FFF758FF10BD000000000020000C014077
:1003000070B5054600241DE0C4F1070045FA00F071
:1003100000F0010020B14FF400600F49086003E0D5
:100320004FF000600C4908604FF480600A49086093
:10033000FFF7C9FF4FF0806007490860FFF7C3FF70
:10034000601CC4B2082CDFDB4FF400600249086077
:10035000FFF7B9FF70BD0000100C014010B54FF45D
:1003600000600849086040100860FFF7ACFF4FF0DC
:10037000006004490860FFF7A6FF4FF08060014964
:10038000086010BD100C014010B54FF00060064928
:1003900008604010086000140860FFF794FF4FF4F5
:1003A00000600149086010BD100C014010B54FF409
:1003B00000600D490860FFF786FF4FF480600A492E
:1003C0000860FFF780FF084808380068C0F3C020C5
:1003D00008B1012400E000244FF080600249086069
:1003E000FFF771FF204610BD100C014008B500203A
:1003F00000900121042000F07FFA02211D48FFF740
:100400005EFF0220ADF8000010208DF803000320ED
:100410008DF8020069461748FFF7C4FE0121042049
:1004200000F06AFA04211348FFF749FF0420ADF8F1
:10043000000010208DF8030003208DF802006946AB
:100440000C48FFF7AFFE0121042000F055FA082107
:100450000848FFF734FF0820ADF8000010208DF8A1
:10046000030003208DF8020069460248FFF79AFE58
:1004700008BD00000008014070B504460D4629463D
:100480002046FFF71CFF70BD70B504460D46294697
:100490002046FFF712FF70BD00BFFEE77047000067
:1004A0002DE9F84F81460D4614461E460A9F28192D
:1004B000401E00F0FF0AF019401EC0B20090BAF1D1
:1004C000080F06DA0098802803DA012C01DB012FDF
:1004D00002DA36A000F01EFBFFF740FF7820FFF79E
:1004E0000FFF00BFFFF762FF0028FBD1FFF708FFF7
:1004F00000BFFFF75BFF0028FBD12220FFF700FFC2
:1005000000BFFFF753FF0028FBD12846FFF7F8FE96
:1005100000BFFFF74BFF0028FBD15046FFF7F0FE6E
:1005200000BFFFF743FF0028FBD12120FFF7E8FEC3
:1005300000BFFFF73BFF0028FBD13046FFF7E0FE8E
:1005400000BFFFF733FF0028FBD10098FFF7D8FE6C
:1005500000BFFFF72BFF0028FBD1FFF7FFFE78203D
:10056000FFF7CEFE00BFFFF721FF0028FBD14020A0
:10057000FFF7C6FE00BFFFF719FF0028FBD104FB01
:1005800007FB80460CE019F80800FFF7B9FE00BF32
:10059000FFF70CFF0028FBD108F101001FFA80F8DB
:1005A000D845F0DBFFF7F0FEBDE8F88F4F4C45442F
:1005B0005F44726177506963E68EA5E694B6E5887C
:1005C000B0E99D9EE6B395E58F82E695B0210000E7
:1005D00008B5802000230822194600900648FFF73E
:1005E0005FFF002004E00021044A1154411CC8B2FE
:1005F0008028F8DB08BD0000CC040020CC080020D7
:1006000010B5FFF7ABFE7820FFF77AFE00BFFFF7CB
:10061000CDFE0028FBD1FFF773FE00BFFFF7C6FE3B
:100620000028FBD1AF20FFF76BFE00BFFFF7BEFE37
:100630000028FBD18120FFF763FE00BFFFF7B6FE65
:100640000028FBD17F20FFF75BFE00BFFFF7AEFE67
:100650000028FBD12020FFF753FE00BFFFF7A6FEC6
:100660000028FBD10120FFF74BFE00BFFFF79EFEE5
:100670000028FBD12220FFF743FE00BFFFF796FEC4
:100680000028FBD1FFF73CFE00BFFFF78FFE0028DC
:10069000FBD10720FFF734FE00BFFFF787FE0028DD
:1006A000FBD12120FFF72CFE00BFFFF77FFE0028C3
:1006B000FBD1FFF725FE00BFFFF778FE0028FBD136
:1006C0007F20FFF71DFE00BFFFF770FE0028FBD163
:1006D000A020FFF715FE00BFFFF768FE0028FBD142
:1006E000C820FFF70DFE00BFFFF760FE0028FBD11A
:1006F000D920FFF705FE00BFFFF758FE0028FBD109
:100700002220FFF7FDFD00BFFFF750FE0028FBD1C0
:10071000DB20FFF7F5FD00BFFFF748FE0028FBD107
:100720002020FFF7EDFD00BFFFF740FE0028FBD1C2
:100730008D20FFF7E5FD00BFFFF738FE0028FBD155
:100740001420FFF7DDFD00BFFFF730FE0028FBD1CE
:10075000AF20FFF7D5FD00BFFFF728FE0028FBD133
:10076000FFF7FCFD7820FFF7CBFD00BFFFF71EFE73
:100770000028FBD14020FFF7C3FD00BFFFF716FEA6
:100780000028FBD14FF4806408E00020FFF7B8FD9B
:1007900000BFFFF70BFE0028FBD1641E002CF4DC29
:1007A000FFF7F2FD10BD000070B5FFF7D7FD782010
:1007B000FFF7A6FD00BFFFF7F9FD0028FBD10024DD
:1007C0008EE04A48005D00B988E08020FFF798FD80
:1007D00000BFFFF7EBFD0028FBD12120FFF790FDC4
:1007E00000BFFFF7E3FD0028FBD18020FFF788FD65
:1007F00000BFFFF7DBFD0028FBD12046FFF780FD9F
:1008000000BFFFF7D3FD0028FBD18020FFF778FD64
:1008100000BFFFF7CBFD0028FBD12046FFF770FD9E
:1008200000BFFFF7C3FD0028FBD1002550E02F4893
:10083000005D0121A94009B9012100E00021084023
:1008400000B143E08020FFF75BFD00BFFFF7AEFD86
:100850000028FBD12220FFF753FD00BFFFF7A6FDC4
:100860000028FBD18020FFF74BFD00BFFFF79EFD66
:100870000028FBD12846FFF743FD00BFFFF796FD98
:100880000028FBD18020FFF73BFD00BFFFF78EFD66
:100890000028FBD12846FFF733FD00BFFFF786FD98
:1008A0000028FBD1C020FFF72BFD00BFFFF77EFD26
:1008B0000028FBD10E4901EBC401485DFFF720FD84
:1008C00000BFFFF773FD0028FBD100BF681CC5B255
:1008D000082DACDB00200549085500BF601CC4B2E0
:1008E000802CFFF66EAFFFF74FFD70BDCC080020E7
:1008F000CC0400207047000029B1064A92690243E7
:10090000044B9A6104E0034A92698243014B9A6165
:100910007047000000100240704710B500F002F868
:1009200010BD00000CB50020019000903348006815
:1009300040F480303149086000BF3048006800F45E
:10094000003000900198401C0190009818B901985F
:10095000B0F5A06FF1D12948006800F4003010B163
:100960000120009001E0002000900098012843D170
:100970002348006840F010002149086008460068DC
:1009800020F0070008600846006840F00200086098
:100990001A48406819494860084640684860084657
:1009A000406840F4806048600846406820F47C104D
:1009B00048600846406840F4E8104860084600680F
:1009C00040F08070086000BF0C48006800F00070C4
:1009D0000028F9D00948406820F003000749486022
:1009E0000846406840F00200486000BF0348406885
:1009F00000F00C000828F9D10CBD000000100240E6
:100A0000002002407047000010B51348006840F015
:100A100001001149086008464068104908400E4925
:100A20004860084600680E4908400B4908600846BF
:100A3000006820F4802008600846406820F4FE002A
:100A400048604FF41F008860FFF767FF4FF00060B9
:100A50000449086010BD0000001002400000FFF8CB
:100A6000FFFFF6FE08ED00E010B5FFF79DFE10BD9C
:100A700010B5002012E00021144A115400BF09E013
:100A800001EBC002124B9A5C124B03EBC0035A54A9
:100A90004A1CD1B20829F3DB411CC8B28028EADB2A
:100AA00000200EE0002108E0002200EB80030A4C49
:100AB00004EB83035A544A1CD1B21429F4DB411CC1
:100AC000C8B20A28EEDBFFF783FD10BDCC0800207A
:100AD00004000020CC0400200404002010B5FFF71F
:100AE000C7FF012401E0FFF7BFFF002CFBD110BDC1
:100AF00000BFFEE702E008C8121F08C1002AFAD1B1
:100B000070477047002001E001C1121F002AFBD18D
:100B10007047000002210648FFF7B6FC0421044894
:100B2000FFF7AAFC08210248FFF7A6FC00BFFEE77A
:100B300000080140FFF75AFCFFF7CCFBFFF760FD10
:100B400000BF02210F48FFF79FFC04210D48FFF76B
:100B50009BFC08210B48FFF797FC002400E0641C75
:100B600009488442FBDB02210648FFF785FC04218B
:100B70000448FFF781FC08210248FFF77DFCFFF7DE
:100B8000ADFFDEE70008014088888800AC0B000854
:100B9000000000200404000048010008480C000880
:100BA000040400204C090000040B000841DAFF0196
:100BB0002D43680F6D083E7B6B6F2DFC1028176F5F
:100BC000733F2060F55F6B6F6DBFEA7DE5439B6F00
:100BD0006D3C2220F0242D7FB52DE508280D3F2007
:100BE00069FB1FE07F807FAA64E0083CBFA4AD10D2
:100BF000291C0912083D3F8410C2283CF7D6DA10A0
:100C00003CF4D6C3203BF5D638ED3F84D0C3986979
:100C100001480A13420821841042FEFB0F53FE0FC5
:100C20004C80FF0B080A16FE0809FD2809FD28095B
:100C3000FD2819283BFBFF01480AFE1342082184C6
:080C40001042FE0F0300FFFF4C
:04000005080000ED02
:00000001FF
