:020000040800F2
:10000000900E002001010008B50D00084B0A000801
:10001000B10D000861070008CD1A000800000000BB
:100020000000000000000000000000001B17000896
:10003000D5070008000000001F160008051800087A
:100040001B0100081B0100081B0100081B01000820
:100050001B0100081B0100081B0100081B01000810
:100060001B0100081B0100081B0100081B01000800
:100070001B0100081B0100081B0100081B010008F0
:100080001B0100081B0100081B0100081B010008E0
:100090001B0100081B0100081B010008F1070008F4
:1000A0001B0100081B0100081B0100081B010008C0
:1000B000D51800081B0100081B0100081B010008DF
:1000C0001B0100081B0100081B0100081B010008A0
:1000D0001B0100081B0100081B0100081B01000890
:1000E0001B0100081B0100081B010008DFF80CD0F1
:1000F00000F0A8FA00480047DD290008900E002013
:100100000648804706480047FEE7FEE7FEE7FEE7B1
:10011000FEE7FEE7FEE7FEE7FEE7FEE70D18000854
:10012000ED000008202A04DB203A00FA02F100204A
:1001300070479140C2F1200320FA03F31943904025
:10014000704700000649074A0868504343F23902E5
:10015000104408604008704701490860704700007B
:100160003C0400206D4EC6412DE9FE4F804681EAD9
:100170000300C00F0C46009021F0004123F0004521
:10018000B8EB0200A94105D24046214690461C46E4
:100190000B46024623F00040104347D0270DC7F31B
:1001A0000A00C3F30A510290401A019040286BDA0A
:1001B000C3F3130040F4801B0098924620B1002343
:1001C000D2EB030A63EB0B0B01985946C0F14002D6
:1001D0005046FFF7A7FF06460D4650465946019A7E
:1001E00000F011F910EB08006141002487EA115278
:1001F00084EAE7731A4340D0009A62B3019A012A55
:100200004FEA075215DC001B61EB02014FF0004280
:1002100002EA0752CDE90042001C41F58011324646
:100220002B4600F011F903B0BDE8F08F404621469F
:10023000F9E7001B61EB0201001C41F58013001877
:100240005B412018A2F5001747EB030140EAD57087
:10025000B6196D4111E06D084FEA360645EAC075E2
:100260004FEA0752001B61EB0201001C41F58011AF
:1002700049084FEA30000019514132462B4603B07D
:10028000BDE8F04F00F0D1B80098012240000023F3
:10029000D0EB020263EBE073009821464FEAE07472
:1002A000B8EB000061EB0401E9E783F000435BE792
:1002B00081F0004158E72DE9FE4F81EA030404F084
:1002C000004421F0004100944FF0000B23F0004364
:1002D00050EA01045ED052EA03045BD0C3F30A542F
:1002E000C1F30A552C44A4F2F3340194A0FB025448
:1002F000C1F3130141F48011C3F3130343F48013DA
:1003000001FB024400FB034E840A970A44EA81542D
:1003100047EA8357A4FB076802958D0A05FB07850A
:100320004FEA932C04FB0C542705029D4FEA065814
:1003300047EA1637B5EB08056EEB070C870E920EF1
:1003400047EA811742EA8312A7FB0201B6EB0B01D1
:1003500064EB00042B0D43EA0C335E1844EB1C5095
:10036000DA465146E7FB0201C5F313044FEA0B33AB
:1003700043EA14534FEA0432019C43EA0603A4F112
:100380000C040294009CCDE900B400F05DF803B0C9
:10039000BDE8F08F00200146F9E70EB540F2334189
:1003A00002910021CDE900110A460B4600F04CF8FD
:1003B00003B000BDC1F30A5210B5C1F3130140F2FE
:1003C000FF3341F480119A4201DA002010BD40F25F
:1003D00033439A42A2F2334203DC524200F003F864
:1003E00010BD904010BD202A04DB203A21FA02F013
:1003F0000021704721FA02F3D040C2F1200291405F
:10040000084319467047202A06DBCB17203A41FAE9
:1004100002F043EAE07306E041FA02F3D040C2F191
:100420002002914008431946704710B5141E73F11D
:10043000000408DA401C41F1000192185B411A43A4
:1004400001D120F0010010BD2DE9F04D92469B46F0
:1004500011B1B1FA81F202E0B0FA80F22032904696
:10046000FFF760FE04460F4640EA0A0041EA0B012E
:1004700053465A46084313D0114653EA010019D097
:10048000C8F140025046FFF7AEFF05460E46504603
:1004900059464246FFF746FE084305D0012004E0D6
:1004A00020463946BDE8F08D0020054346EAE07657
:1004B0002C4337430A986305E40AA0EB08000022A6
:1004C000FD0A44EA47540A3002D500200146E9E714
:1004D000010510196941DDE9084500196941BDE8C8
:1004E000F04DA2E72DE9F04D81EA030404F0004B42
:1004F00021F0004514464FF0000A23F0004150EA75
:10050000050220D054EA01021DD0C5F30A57024665
:10051000C5F31303C1F31300C1F30A5640F4801569
:1005200043F48013A7EB0608101BD64608F2FD38EB
:1005300073EB050002D308F1010801E092185B415A
:10054000B8F1000F03DA00200146BDE8F08D00206D
:100550004FF48011064684460EE0171B73EB050727
:1005600005D3121B63EB050306434CEA010C490853
:100570004FEA300092185B4150EA0107EDD152EA90
:10058000030012D082EA040083EA0501084305D083
:10059000101BAB4106D20122002306E000224FF0DF
:1005A000004302E06FF0010253101AEB06004CEB1F
:1005B000085110EB0A0041EB0B01BDE8F04DFFF7CD
:1005C00034BF70B521F0004303430CD0C1F30A558A
:1005D0000024D5EB040564EB0403D617AD1AB34130
:1005E00002DB0020014670BD201841EB025170BDB6
:1005F0000EB5C10F80EAE0700844CA07002140F23E
:1006000033438DE80E000A460B46FFF71DFF03B08B
:1006100000BD000030B5041E71F1000404DB4FF092
:100620000044404264EB0101141E73F1000405DB39
:100630001C464FF00043524263EB0403994208BF4B
:10064000904230BD064C074D06E0E06840F00103E3
:1006500094E8070098471034AC42F6D3FFF74AFD00
:10066000D0360008F03600082DE9F04D00231A4678
:100670001B1A8A4103DB00200146BDE8F08DC1F35F
:100680000A52C1F3130141F480154FF0000BD1075A
:1006900002D100186D41521E0027044640F2FF119E
:1006A000384601EB620A3E468046024600204FF47F
:1006B0008011FFF798FEC2197141BB1846EB01008B
:1006C000B4EB030C75EB000C04D3E41A65EB0005E6
:1006D00017460E46241908F101006D418046342862
:1006E000E3DDF91946EB0600091BA84103D24FF0E0
:1006F000FF32134601E0002213461BEB070046EBD6
:100700000A51BDE8F04DFFF790BE70B58C1810F897
:10071000015B15F0070301D110F8013B2A1106D146
:1007200010F8012B03E010F8016B01F8016B5B1E60
:10073000F9D12B0705D40023521E0DD401F8013B3B
:10074000FAE710F8013BCB1A921C03E013F8015BA7
:1007500001F8015B521EF9D5A142D8D3002070BD2B
:1007600000BFFEE7012001490870704735040020F2
:100770001FB50621002000F0B9F84020ADF80C00AC
:1007800048208DF80F0003208DF80E0003A91048B3
:1007900000F0CCF8402000900C208DF805000020DF
:1007A0008DF8040001208DF80600684600F054F82A
:1007B00017208DF8080002208DF8090000208DF820
:1007C0000A0001208DF80B0002A800F0F5FA1FBD09
:1007D000000801407047000001B504490098086016
:1007E00000BF024800680028FBD108BD300400208B
:1007F00010B5802000F01CF820B1802000F012F825
:1008000000F004FE402000F013F850B141F2240043
:1008100000E0401E0028FCD1402000F003F8FFF764
:10082000A1FF10BD01490860704700001404014099
:10083000014600200022074B1B6803EA0102054B1A
:1008400014331B680B4013B10AB1012000E00020F3
:100850007047000000040140002123498279002AEA
:100860003AD00A46126803689A430B461A600A1D7A
:10087000126803689A430B1D1A60027911440A68D2
:1008800003681A430A60184A0832126803689A43D8
:10089000154B08331A601A1D126803689A43124BED
:1008A0000C331A604279102A0ED11A1F126803689D
:1008B0001A430D4B08331A601A1D126803681A4355
:1008C000094B0C331A600DE00749427911440A685C
:1008D00003681A430A6005E0027911440A68036854
:1008E0009A430A60704700000004014030B50022BE
:1008F0008B071C0F0F2303FA04F20B4B8C1053F8D9
:1009000024309343084C8D1044F8253023468C1036
:1009100053F824308C07240F00FA04F42343024CCC
:100920008D1044F8253030BD080001402DE9F0411C
:10093000024600250026002000230024002791F80D
:1009400003C00CF00F0591F803C00CF0100CBCF1C3
:10095000000F03D091F802C04CEA050591F800C0E1
:10096000BCF1000F31D0146800202BE04FF0010CD7
:100970000CFA00F3B1F800C00CEA03069E4220D145
:1009800083004FF00F0C0CFA03F7BC4305FA03FC8D
:100990004CEA040491F803C0BCF1280F06D14FF0D3
:1009A000010C0CFA00FCC2F814C00AE091F803C074
:1009B000BCF1480F05D14FF0010C0CFA00FCC2F855
:1009C00010C0401C0828D1D31460B1F800C0BCF19D
:1009D000FF0F34DD546800202EE000F1080C4FF0CA
:1009E000010808FA0CF3B1F800C00CEA03069E42B5
:1009F00021D183004FF00F0C0CFA03F7BC4305FA2A
:100A000003FC4CEA040491F803C0BCF1280F05D1A3
:100A100000F1080C08FA0CF8C2F8148091F803C031
:100A2000BCF1480F07D100F1080C4FF0010808FA9B
:100A30000CF8C2F81080401C0828CED35460BDE8E2
:100A4000F081416170470161704700BFFEE700001F
:100A500010B5044624B14FF400600C49086003E06F
:100A60004FF00060094908604FF480600749086052
:100A700000F00EF84FF080600449086000F008F8BC
:100A80004FF400600149086010BD0000100C0140E7
:100A9000002001E0411CC8B20A28FBDB70470000BF
:100AA00010B50121082000F0D9FD14200549C870B7
:100AB0004FF440600880032088700348FFF736FF3A
:100AC00010BD00002C000020000C014070B5002477
:100AD00018E04FF480600D490860FFF7D9FF0B481C
:100AE00008380068C0F3C02020B1C4F1070101201C
:100AF0008840C5B24FF0806004490860FFF7C8FF26
:100B0000601CC4B2082CE4DB284670BD100C014008
:100B100070B5054600241DE0C4F1070045FA00F059
:100B200000F0010020B14FF400600F49086003E0BD
:100B30004FF000600C4908604FF480600A4908607B
:100B4000FFF7A6FF4FF0806007490860FFF7A0FF9E
:100B5000601CC4B2082CDFDB4FF40060024908605F
:100B6000FFF796FF70BD0000100C014010B54FF468
:100B700000600849086040100860FFF789FF4FF0E7
:100B8000006004490860FFF783FF4FF0806001496F
:100B9000086010BD100C014010B54FF00060064910
:100BA00008604010086000140860FFF771FF4FF400
:100BB00000600149086010BD100C014010B54FF4F1
:100BC00000600D490860FFF763FF4FF480600A4939
:100BD0000860FFF75DFF084808380068C0F3C020D0
:100BE00008B1012400E000244FF080600249086051
:100BF000FFF74EFF204610BD100C014010B500F06D
:100C000069FCFFF7B5FD10BD10B500F0A1FB04466F
:100C100034B90448007818B1012400200149087053
:100C2000204610BD3504002008B5002000900121A9
:100C3000042000F013FD02211D48FFF704FF0220ED
:100C4000ADF8000010208DF8030003208DF802009D
:100C500069461748FFF76AFE0121042000F0FEFCF8
:100C600004211348FFF7EFFE0420ADF80000102028
:100C70008DF8030003208DF8020069460C48FFF749
:100C800055FE0121042000F0E9FC08210848FFF787
:100C9000DAFE0820ADF8000010208DF803000320D4
:100CA0008DF8020069460248FFF740FE08BD0000CB
:100CB0000008014070B504460D4629462046FFF75E
:100CC000C2FE70BD70B504460D4629462046FFF7AA
:100CD000B8FE70BD10B52C4890F9000000280ADD60
:100CE00029480078401E40B2274908700221274851
:100CF000FFF7E8FF0CE02448007848B92248007864
:100D0000401E40B22049087002212048FFF7D2FF60
:100D10001F4890F9000000280ADD1D480078401E99
:100D200040B21B49087004211848FFF7CBFF0CE0C4
:100D30001748007848B916480078401E40B2144958
:100D4000087004211148FFF7B5FF124890F9000020
:100D500000280ADD0F480078401E40B20D49087097
:100D600008210A48FFF7AEFF0CE00A48007848B9AE
:100D700008480078401E40B2064908700821034820
:100D8000FFF798FF10BD0000360400200008014066
:100D90003704002038040020022001490870704701
:100DA00038040020022001490870704737040020F1
:100DB00000BFFEE77047000070B5002100230F223E
:100DC000C47804B3154C246804F4E064C4F5E0640A
:100DD000210AC1F10403CA40447804FA03F184787B
:100DE0001440214309010E4C0678A155047804F003
:100DF0001F050124AC4005786D11AD0005F1E0251B
:100E0000C5F8004109E0047804F01F050124AC4056
:100E1000044D0678761145F8264070BD0CED00E0D3
:100E200000E400E080E100E002490143024A116071
:100E3000704700000000FA050CED00E02DE9F84FC6
:100E400081460D4614461E460A9F2819401E00F092
:100E5000FF0AF019401EC0B20090BAF1080F06DA7E
:100E60000098802803DA012C01DB012F02DA36A07A
:100E700001F07CFDFFF77AFE7820FFF749FE00BF06
:100E8000FFF79CFE0028FBD1FFF742FE00BFFFF7F3
:100E900095FE0028FBD12220FFF73AFE00BFFFF7A6
:100EA0008DFE0028FBD12846FFF732FE00BFFFF77A
:100EB00085FE0028FBD15046FFF72AFE00BFFFF752
:100EC0007DFE0028FBD12120FFF722FE00BFFFF7A7
:100ED00075FE0028FBD13046FFF71AFE00BFFFF772
:100EE0006DFE0028FBD10098FFF712FE00BFFFF750
:100EF00065FE0028FBD1FFF739FE7820FFF708FEDA
:100F000000BFFFF75BFE0028FBD14020FFF700FE8B
:100F100000BFFFF753FE0028FBD104FB07FB804610
:100F20000CE019F80800FFF7F3FD00BFFFF746FEDD
:100F30000028FBD108F101001FFA80F8D845F0DB4A
:100F4000FFF72AFEBDE8F88F4F4C45445F447261BD
:100F500077506963E68EA5E694B6E588B0E99D9E74
:100F6000E6B395E58F82E695B021000008B58020B4
:100F700000230822194600900648FFF75FFF002073
:100F800004E00021044A1154411CC8B21028F8DBC7
:100F900008BD0000800400208008002010B5FFF785
:100FA000E5FD7820FFF7B4FD00BFFFF707FE00283E
:100FB000FBD1FFF7ADFD00BFFFF700FE0028FBD11E
:100FC000AF20FFF7A5FD00BFFFF7F8FD0028FBD11C
:100FD0008120FFF79DFD00BFFFF7F0FD0028FBD14A
:100FE0007F20FFF795FD00BFFFF7E8FD0028FBD14C
:100FF0002020FFF78DFD00BFFFF7E0FD0028FBD1AB
:101000000120FFF785FD00BFFFF7D8FD0028FBD1C9
:101010002220FFF77DFD00BFFFF7D0FD0028FBD1A8
:10102000FFF776FD00BFFFF7C9FD0028FBD10720C1
:10103000FFF76EFD00BFFFF7C1FD0028FBD12120A7
:10104000FFF766FD00BFFFF7B9FD0028FBD1FFF7F2
:101050005FFD00BFFFF7B2FD0028FBD17F20FFF747
:1010600057FD00BFFFF7AAFD0028FBD1A020FFF726
:101070004FFD00BFFFF7A2FD0028FBD1C820FFF7FE
:1010800047FD00BFFFF79AFD0028FBD1D920FFF7ED
:101090003FFD00BFFFF792FD0028FBD12220FFF7A4
:1010A00037FD00BFFFF78AFD0028FBD1DB20FFF7EB
:1010B0002FFD00BFFFF782FD0028FBD12020FFF7A6
:1010C00027FD00BFFFF77AFD0028FBD18D20FFF739
:1010D0001FFD00BFFFF772FD0028FBD11420FFF7B2
:1010E00017FD00BFFFF76AFD0028FBD1AF20FFF717
:1010F0000FFD00BFFFF762FD0028FBD1FFF736FDB3
:101100007820FFF705FD00BFFFF758FD0028FBD151
:101110004020FFF7FDFC00BFFFF750FD0028FBD18A
:101120004FF4806408E00020FFF7F2FC00BFFFF7F7
:1011300045FD0028FBD1641E002CF4DCFFF72CFDDC
:1011400010BD00002DE9F041FFF710FD7820FFF7FA
:10115000DFFC00BFFFF732FD0028FBD1FFF7D8FC12
:1011600000BFFFF72BFD0028FBD12220FFF7D0FCAA
:1011700000BFFFF723FD0028FBD1FFF7C9FC00BF2C
:10118000FFF71CFD0028FBD10720FFF7C1FC00BFC3
:10119000FFF714FD0028FBD1804600246FE03B4898
:1011A000005D10B94FF0000867E000255FE03748A8
:1011B000005D80212941084010B94FF0000854E03B
:1011C00005EBC400C6B2B8F1000F3AD1FFF7CEFC70
:1011D0007820FFF79DFC00BFFFF7F0FC0028FBD153
:1011E000FFF796FC00BFFFF7E9FC0028FBD12120A8
:1011F000FFF78EFC00BFFFF7E1FC0028FBD1304673
:10120000FFF786FC00BFFFF7D9FC0028FBD17F2049
:10121000FFF77EFC00BFFFF7D1FC0028FBD1FFF7F2
:10122000A5FC7820FFF774FC00BFFFF7C7FC00287F
:10123000FBD14020FFF76CFC00BFFFF7BFFC00288C
:10124000FBD100270CE007EBC601114A505CFFF709
:101250005FFC00BFFFF7B2FC0028FBD1781CC7B2CF
:10126000082FF0DB4FF0010800BF681CC5B2082D45
:101270009DDB00200549085500BF601CC4B2102C3E
:101280008DDBFFF789FCBDE8F081000080080020BD
:101290008004002010B5FFF769FCE620FFF738FC5A
:1012A00000BFFFF78BFC0028FBD1EF20FFF730FCDD
:1012B00000BFFFF783FC0028FBD1FFF729FC00BF2C
:1012C000FFF77CFC0028FBD1002420E0FFF74EFC58
:1012D000E620FFF71DFC00BFFFF770FC0028FBD1E4
:1012E0001A4911F81400FFF713FC00BFFFF766FC62
:1012F0000028FBD1154901EB44014878FFF708FCB1
:1013000000BFFFF75BFC0028FBD1601CC4B21E2CA1
:10131000DCD3FFF72BFCE620FFF7FAFB00BFFFF75B
:101320004DFC0028FBD1EF20FFF7F2FB00BFFFF7D9
:1013300045FC0028FBD1FFF7EBFB00BFFFF73EFCAD
:101340000028FBD1FFF728FC10BD00000436000880
:1013500008B52D48007808B9002008BD00202A49AA
:101360000870FFF703FCE620FFF7D2FB00BFFFF792
:1013700025FC0028FBD14320FFF7CAFB00BFFFF785
:101380001DFC0028FBD1FFF7F1FBE720FFF7C0FBB6
:1013900000BFFFF713FC0028FBD1FFF797FB8DF888
:1013A00000000020FFF754FBFFF790FB0002C0B2E3
:1013B0008DF801000120FFF74BFBFFF7EDFB9DF8D7
:1013C00000009DF8011040EA0120082812D006DC38
:1013D000012809D0022809D0042811D108E04028AA
:1013E0000AD080280CD109E00320B6E70220B4E738
:1013F0000520B2E70420B0E70620AEE70720ACE7FF
:1014000000BF00BF0020A8E73404002001200149EC
:10141000087070473404002010B5FFF7A7FBE620E2
:10142000FFF776FB00BFFFF7C9FB0028FBD1EF20D9
:10143000FFF76EFB00BFFFF7C1FB0028FBD1FFF7F2
:1014400067FB00BFFFF7BAFB0028FBD1002420E0B8
:10145000FFF78CFBE620FFF75BFB00BFFFF7AEFB5F
:101460000028FBD11A4911F81400FFF751FB00BF07
:10147000FFF7A4FB0028FBD1154901EB4401487894
:10148000FFF746FB00BFFFF799FB0028FBD1601C6C
:10149000C4B2332CDCD3FFF769FBE620FFF738FB3F
:1014A00000BFFFF78BFB0028FBD1EF20FFF730FBDD
:1014B00000BFFFF783FB0028FBD1FFF729FB00BF2C
:1014C000FFF77CFB0028FBD1FFF766FB10BD000097
:1014D0009E35000810B500F021F800F051F810B961
:1014E00006A001F043FA0520FFF776F9FFF794FF15
:1014F0000520FFF771F9FFF7CDFE10BDE6898BE5FA
:101500008ABFE8AF86E588ABE6A8A1E59D97E5949C
:10151000A4E98692E5A4B1E8B4A500001FB50721AF
:101520000020FFF7E3F98020ADF80C0028208DF8AB
:101530000F0003208DF80E0003A91048FFF7F6F9FD
:10154000802000900C208DF8050000208DF804000C
:1015500001208DF806006846FFF77EF917208DF808
:10156000080002208DF8090000208DF80A000120F3
:101570008DF80B0002A8FFF71FFC1FBD00080140FB
:1015800010B5FFF7F3FAE620FFF7C2FA0520FFF7E0
:1015900023F9FFF7EBFAE620FFF7BAFA0520FFF789
:1015A0001BF9FFF7E3FAE620FFF7B2FA00BFFFF7F7
:1015B00005FB0028FBD1EF20FFF7AAFA00BFFFF7D9
:1015C000FDFA0028FBD1FFF7A3FA00BFFFF7F6FAF8
:1015D0000028FBD1FFF7CAFAE620FFF799FA00BF0F
:1015E000FFF7ECFA0028FBD1FFF792FA00BFFFF7F4
:1015F000E5FA0028FBD1FFF7B9FAE720FFF788FAF0
:1016000000BFFFF7DBFA0028FBD1FFF75FFA0446C3
:101610000120FFF71DFAFFF7BFFA204610BD704703
:1016200010B50121084600F019F80121042000F04E
:1016300015F84FF4A060FFF7F7FB10BD29B1064A7B
:10164000D2690243044BDA6104E0034AD26982435F
:10165000014BDA61704700000010024029B1064AD0
:1016600092690243044B9A6104E0034A92698243FF
:10167000014B9A617047000000100240704710B59E
:101680000020FEF769FD10BD2DE9F04781460F46A9
:101690001646BA46504601F0D3F90446002003E04E
:1016A00000212154411CC8B2B842F9DB00252DE0CD
:1016B000FEF748FD00F0FF084046FEF74DFD002014
:1016C0001FE0A84205D104F8008009EB0501315460
:1016D00019E0215C414500DC11E06A1E51B206E0D0
:1016E000635C4A1CA354735CB3544A1E51B28142DA
:1016F000F6DA04F8008009EB0501315403E0411CDF
:10170000C8B2A842DDDD00BF681CC5B2BD42CFDB58
:10171000204601F03BF9BDE8F087704710B500F0B6
:1017200001F810BD0CB5002001900090334800680E
:1017300040F480303149086000BF3048006800F450
:10174000003000900198401C0190009818B9019851
:10175000B0F5A06FF1D12948006800F4003010B155
:101760000120009001E0002000900098012843D162
:101770002348006840F010002149086008460068CE
:1017800020F0070008600846006840F0020008608A
:101790001A48406819494860084640684860084649
:1017A000406840F4806048600846406820F47C103F
:1017B00048600846406840F4E81048600846006801
:1017C00040F08070086000BF0C48006800F00070B6
:1017D0000028F9D00948406820F003000749486014
:1017E0000846406840F00200486000BF0348406877
:1017F00000F00C000828F9D10CBD000000100240D8
:101800000020024010B500F055F910BD10B5134886
:10181000006840F00100114908600846406810491E
:1018200008400E494860084600680E4908400B49C8
:1018300008600846006820F4802008600846406878
:1018400020F4FE0048604FF41F008860FFF766FF39
:101850004FF000600449086010BD00000010024015
:101860000000FFF8FFFFF6FE08ED00E030B5164877
:1018700000684FF47A72B0FBF2F1B1F1807F01D3CE
:1018800001201DE021F07F40401E4FF0E02250611A
:1018900050170F22002807DA13071D0E0B4B00F01C
:1018A0000F04241F1D5503E013071C0E084B1C5486
:1018B00000BF00204FF0E02290610720106100205F
:1018C00008B100BFFEE730BD0000002018ED00E0C9
:1018D00000E400E010B50121880700F040F800F0B6
:1018E00035F810BD1FB51C208DF80C0001208DF8B7
:1018F0000D008DF80E008DF80F0003A8FFF75CFABD
:1019000001210846FFF79AFE40F2F310ADF80400FB
:1019100041F61F40ADF800000020ADF80600ADF81C
:1019200002008DF8080069464FF0804000F030F862
:101930000121880700F010F801221146900700F0FD
:101940001DF80121880700F00DF81FBD10B500F04B
:101950009FF8FFF7BFF910BDCA4302827047CA4320
:101960000282704721B1028842F00102028004E045
:1019700002884FF6FE731A40028070471AB18389BD
:101980000B43838102E083898B438381704700008E
:10199000002202881D4B98420ED01D4B98420BD05E
:1019A000B0F1804F08D01B4B984205D01A4B98429B
:1019B00002D01A4B984204D14FF68F731A404B88CD
:1019C0001A43174B984207D0164B984204D04FF653
:1019D000FF431A40CB881A4302808B8883850B888B
:1019E00003850A4B98420BD0094B984208D00E4B06
:1019F000984205D00D4B984202D00D4B984201D130
:101A00000B7A03860123838270470000002C01407B
:101A1000003401400004004000080040000C004079
:101A2000001000400014004000400140004401400C
:101A30000048014070B504461248047000F0DAFB1B
:101A40001BE009E0FFF7E0F8054625B1284600F065
:101A500039FC00F073F900BF0B4890F90000002832
:101A6000F0DC00F0DDFC00F069F9FFF795F900BF4C
:101A7000054890F900000028FADD044800780028A5
:101A8000DFD170BD200000201F00002021000020B9
:101A9000064890F90000401C0549097890FBF1F2D6
:101AA00001FB120040B20149087070471F0000207E
:101AB000200000200448006820B103480068401E50
:101AC00001490860704700003004002000BFFEE7B5
:101AD0002DE9F04788B04448007840B100204249E1
:101AE00008704248007840F0FE0040490870002429
:101AF00001E0601CC4B23E4830F8140008B1182C54
:101B0000F7DB4FF0000AD1462EE0394830F81900D3
:101B1000C0F3090040F2FF31884204D009F101000E
:101B200000F0FF0920E00AF1010000F0FF0A48463A
:101B300017E0611E814204D100212D4A22F81010C5
:101B400005E02B4A411C32F8111022F810102849E8
:101B500031F8101041F40041254A22F81010411CC0
:101B6000C8B2A042E5DB00BFA145CEDBBAF1000F51
:101B70002FD01E48007840F001001C4908701D4815
:101B80000078FEF70AFC074688465046FEF705FC3B
:101B900002460B46CDE9000100204FF0804100F0E5
:101BA00085FF3A464346CDE90201FEF784FB054630
:101BB0000E4611480068FEF7F0FB2A463346CDE991
:101BC0000401FEF7D1FACDE90601FEF7F3FB0A495D
:101BD00008600748008DC0F3090010B100200749D4
:101BE000087008B0BDE8F087230000201E00002028
:101BF0004C040020200000201400002021000020C0
:101C00002DE9F04706460F4600210B460C46002002
:101C10000DE001218140394001B906E02F4901EB77
:101C2000C00206CA0B43144300BF411CC8B20A28B5
:101C3000EFDBC6F1130000EB8000173000F0FF0C63
:101C4000012546E00CEB0501C8B24FEAE07800EB55
:101C500058784FEAE808DFF8889019F808800246BB
:101C60004FEAE07900EB59794FEAE909A0EBC90A9C
:101C70004FF0800949FA0AF948EA090801464FEA93
:101C8000E07900EB59794FEAE909DFF854A00AF846
:101C90000980144901EBC00206CA4FF00F08DFF8B3
:101CA000489001EA080102EA0902DFF8388008EBEF
:101CB000C008C8E900120B4901EBC00206CA19436B
:101CC0002243DFF8208008EBC008C8E90012681C36
:101CD000C5B2042DB6DDBDE8F0870000D0340008A1
:101CE0008008002080040020000080FFF0B503463B
:101CF0000D46164600211BE0585C284442B2481CA1
:101D0000185C304444B2142C00DB0FE0002A0ADBDC
:101D10000A2A08DA002C06DB074830F814000127ED
:101D20009740384008B10020F0BD00BF881CC1B208
:101D30000829E1DB0120F7E74C0400202DE9F04100
:101D40009F48007800F00100002861D09D48046899
:101D500000255AE00A20B4FBF0F100FB11460123F4
:101D60004CE0142101EB85011944C8B2C71700EB00
:101D70005777FF10DFF850C21CF8077002464FEA91
:101D8000E07C00EB5C7C4FEAEC0CA0EBCC084FF065
:101D9000800C4CFA08FC47EA0C0701464FEAE07C4D
:101DA00000EB5C7C4FEAEC0CDFF81C8208F80C704E
:101DB000864901EBC001D1E900214FF0F8473943D2
:101DC000824F07EBC007C7E9002106EB4601804AB6
:101DD0000A44591E515C0F060021CA43F9437B4F48
:101DE00007EBC00CDCE9007C3A4001EA0C01774FBC
:101DF00007EBC007C7E90021581CC3B2032BB0DDB5
:101E00000A20B4FBF0F4681CC5B2002CA2D100BFBC
:101E10006B48007800F00200002843D000233FE028
:101E200003F10C01C8B2C41700EB5474E410664D02
:101E30002C5D0246C51700EB5575ED10A0EBC506ED
:101E4000802535412C430146C51700EB5575ED1033
:101E50005D4E74555D4901EBC001D1E900216FF47D
:101E6000FF552A40594C04EBC004C4E900215749EE
:101E700001EBC00130C95749574A127801EB820182
:101E8000CA5C0021490141EAD2615601344345EA66
:101E900001024E4901EBC001C1E90042581CC3B226
:101EA000042BBDDB4648007800F00400F0B30023AB
:101EB00041E003F10C01C8B2C41700EB5474E41004
:101EC000414D2C5D0246C51700EB5575ED10A0EB9A
:101ED000C506802535412C430146C51700EB5575D5
:101EE000ED10394E7455394901EBC001D1E900219B
:101EF0006FF0FF452A40354C04EBC004C4E90021D3
:101F0000324901EBC00130C93249344A127801EB41
:101F10008201C95C0022D20542EA5122CE05344337
:101F200045EA0201294A02EBC00200E005E0C2E9ED
:101F30000041581CC3B2042BBBDB2148007800F0E1
:101F40000800D0B12048007840F004001E49087015
:101F50002348007840B11D48D0E90A10214B1940B0
:101F60001A4AC2E90A1008E01849D1E90A011D4AD3
:101F7000D2431043154AC2E90A01002417E01A4867
:101F800030F8140000F4004000B90EE0164830F8B4
:101F900014102046FFF734FE134830F81400C0F345
:101FA0000E00114921F8140000BF601CC4B2142CAB
:101FB000E5DB002002490870FFF7C4F8BDE8F081B6
:101FC0001E00002014000020800800208004002053
:101FD00040350008203500081C0000201D000020AE
:101FE00023000020BD97FEFF4C0400203EB55C4856
:101FF000007800B93EBD01A800905A4890F9003021
:10200000594890F90020594801785548007800F067
:10201000B1F8002031E001A901EB400191F9011074
:10202000182900DB27E001A901EB400191F901101B
:102030004F4A32F8111001AA12F8103001229A40CA
:10204000914301AA02EB400292F90120484B23F888
:10205000121001A901EB400191F901101A4632F862
:10206000111041F4004101AA02EB400292F9012053
:1020700023F8121000BF411CC8B20428CBDB012595
:10208000002407E0601E44B22246002101A8FFF7A9
:102090002DFEC5B2002DF5D1601C44B23148007848
:1020A000204440B22F49087001A80090084690F9DA
:1020B00000302D4890F900202C48017828480078FD
:1020C00000F058F8002046E001A901EB400191F929
:1020D0000010002914DB01A901EB400191F9001067
:1020E0000A290DDA01A901EB400191F9011000293B
:1020F00006DB01A901EB400191F90110182900DB71
:1021000027E001A901EB400191F90110184A32F8CA
:10211000111001AA12F8103001229A40114301AAAD
:1021200002EB400292F90120114B23F8121001A991
:1021300001EB400191F901101A4632F8111041F4F7
:10214000004101AA02EB400292F9012023F812108B
:1021500000BF411CC8B20428B6DB00BF4AE700003C
:10216000180000201B0000201A0000201900002089
:102170004C0400202DE9F04705460E4617469846C8
:10218000DDF8209015B910A000F0F0FB184800EB26
:10219000C50030F81640002011E004F00301394476
:1021A00049B209F81010A41004F0030141444AB2E6
:1021B0004100491C09F80120A410411CC8B20428A0
:1021C000EBDBBDE8F0870000547269656420746F32
:1021D0002067657420626C6F636B73206F662042AA
:1021E0006C6F636B547970655F4E6F6E65000000B5
:1021F0005E3500082DE9F041002421E00021244A49
:1022000002EBC40211605160002515E005EBC4002B
:1022100020490E5C0027EA0030463946FDF782FF70
:102220001B4A02EBC4030CCB10431943184A02EBC0
:10223000C40203C2681CC5B2082DE7DB601CC4B22F
:10224000802CDBDB002005E00021134A22F810106F
:10225000411CC8B21828F7DB00201049086010495B
:10226000087010490870104908701049087010492A
:102270000870104908701049087001200F49087053
:102280000F490870FFF7FBF9FEF770FEBDE8F0811B
:1022900080040020300000204C04002014000020A6
:1022A0001C0000201D000020180000201E0000203F
:1022B00022000020230000202B000020210000200D
:1022C0001F00002070B504460125A01E062821D25B
:1022D000DFE800F003060D12171B00F027F81BE0E3
:1022E000012010490870FF200F49087014E00021F8
:1022F000481E00F0C9F80FE00021012000F0C4F8EA
:102300000AE0012000F084F906E04FF0FF3000F011
:102310007FF901E0002500BF00BF0DB1FEF742FDCF
:1023200070BD0000220000201F0000203EB5344890
:10233000007800B13EBD3348007800B9FAE70120CB
:102340002F49087001A800902F4890F900302F48BD
:1023500090F900202E4801782A480078FFF70AFFFC
:10236000002031E001A901EB400191F90110182989
:1023700000DB27E001A901EB400191F90110254A9A
:1023800032F8111001AA12F8103001229A4091433C
:1023900001AA02EB400292F901201E4B23F8121011
:1023A00001A901EB400191F901101A4632F8111010
:1023B00041F4004101AA02EB400292F9012023F806
:1023C000121000BF411CC8B20428CBDB12480078B1
:1023D00040F00A001049087003200C4908701420CE
:1023E0000949087000200A4908700C48047805481B
:1023F00000780A4908700348047000BF9AE700009B
:1024000023000020180000201B0000201A000020DC
:10241000190000204C0400201E0000201C00002099
:1024200010B51448007850B90320134908701420DF
:102430001249087000201249087000F0C3F91148D1
:10244000007848B1FFF7D2FD00200E490870094915
:102450000870FFF73DFB10BD4FF0FF31002000F08A
:1024600013F828B9002003490870FFF731FBF2E7A1
:1024700000BFF0E7180000201A0000201B00002019
:102480001900002022000020FEB504460D465B48DE
:10249000007808B90120FEBD01A80090584890F9C5
:1024A0000030584890F90020574801785348007888
:1024B000FFF760FE002031E001A901EB400191F936
:1024C0000110182900DB27E001A901EB400191F977
:1024D00001104E4A32F8111001AA12F810300122F0
:1024E0009A40914301AA02EB400292F90120474B26
:1024F00023F8121001A901EB400191F901101A46CD
:1025000032F8111041F4004101AA02EB400292F9A5
:10251000012023F8121000BF411CC8B20428CBDBF5
:102520002A46214601A8FFF7E1FB06465EB1354881
:102530000078204440B2334908703148007828447C
:1025400040B22F49087001A800902D4890F9003042
:102550002C4890F900202C48017828480078FFF793
:1025600009FE002046E001A901EB400191F90010AD
:10257000002914DB01A901EB400191F900100A299F
:102580000DDA01A901EB400191F90110002906DBE8
:1025900001A901EB400191F90110182900DB27E0A6
:1025A00001A901EB400191F90110184A32F811100C
:1025B00001AA12F8103001229A40114301AA02EB3D
:1025C000400292F90120114B23F8121001A901EBEE
:1025D000400191F901101A4632F8111041F40041FE
:1025E00001AA02EB400292F9012023F8121000BF69
:1025F000411CC8B20428B6DB30464CE71800002066
:102600001B0000201A000020190000204C040020AC
:10261000FEB504466648007808B90120FEBD01A851
:102620000090644890F90030634890F900206348B6
:1026300001785F480078FFF79DFD002031E001A997
:1026400001EB400191F90110182900DB27E001A9F5
:1026500001EB400191F90110594A32F8111001AA19
:1026600012F8103001229A40914301AA02EB400275
:1026700092F90120524B23F8121001A901EB4001FD
:1026800091F901101A4632F8111041F4004101AAE3
:1026900002EB400292F9012023F8121000BF411C06
:1026A000C8B20428CBDB01A8009044480078001D84
:1026B0000619F01706EB90708010A6EB8000C1B2EF
:1026C0003C4890F900303C4890F9002038480078A8
:1026D000FFF750FD0022114601A8FFF707FB054652
:1026E0005DB136490978091D0819C11700EB9171D0
:1026F0008910A0EB8101314A117001A800902D488A
:1027000090F900302C4890F900202C480178284896
:102710000078FFF72FFD002046E001A901EB400102
:1027200091F90010002914DB01A901EB400191F996
:1027300000100A290DDA01A901EB400191F90110FD
:10274000002906DB01A901EB400191F901101829CC
:1027500000DB27E001A901EB400191F90110184AC3
:1027600032F8111001AA12F8103001229A401143D8
:1027700001AA02EB400292F90120114B23F812103A
:1027800001A901EB400191F901101A4632F811102C
:1027900041F4004101AA02EB400292F9012023F822
:1027A000121000BF411CC8B20428B6DB284635E72A
:1027B000180000201B0000201A0000201900002033
:1027C0004C04002010B51448007820B9134A0721A2
:1027D0000120FEF759FF12480078124908700F488F
:1027E0000D490978405C0E4908700B480078401C80
:1027F000072190FBF1F201FB1200074908700A481B
:10280000007840F00400084908700648007808B9CC
:10281000FFF7D8FF10BD00002B000020240000208F
:102820001D000020180000201E000020490050EA72
:10283000C12018BF04204A0D18BF40F0010040F22B
:10284000FF72B2EB515F08BF40F00200012808BFE1
:10285000052070472DE9F0414F1E00EBC7010446EB
:10286000D1E9000115461E4637F006020DD02A4672
:102870003346FDF720FD7F1E04EBC703D3E9002399
:10288000FDF772FC37F00602F1D1022F25D0042F9C
:1028900013D0062F18BFBDE8F0812A463346FDF756
:1028A0000AFDD4E90A23FDF75FFC2A463346FDF70B
:1028B00002FDD4E90823FDF757FC2A463346FDF70D
:1028C000FAFCD4E90623FDF74FFC2A463346FDF710
:1028D000F2FCD4E90423FDF747FC2A463346FDF712
:1028E000EAFCD4E90223FDF73FFC2A463346FDF714
:1028F000E2FCD4E90023BDE8F041FDF735BC00005F
:102900000022134610460149FDF7ECBD0000F03FE0
:10291000FDF72ABC0022134610461146FDF7E2BD22
:1029200040F2013200204FF0E041FDF74ABE0000C6
:10293000024A00201107FDF744BE000001FDFFFF21
:1029400002E008C8121F08C1002AFAD17047704778
:10295000002001E001C1121F002AFBD170470000D6
:102960000149086070470000480400200221064821
:10297000FEF7A8F904210448FEF79CF90821024853
:10298000FEF798F900BFFEE70008014010B50028E7
:1029900021D0114B0022001F196803E0814203D8A7
:1029A0000A4649680029F9D152B11368841A9C4239
:1029B00004D1006818441060104602E0506000E046
:1029C000186039B102680B1A934203D10B681A449C
:1029D00002604968416010BD40040020FEF720FEFF
:1029E000FEF722F9FEF77EFFFEF740FFFEF758F8EC
:1029F000FEF7D4FAFEF702F9FEF740FE00BF02210F
:102A00000E48FEF75FF904210C48FEF75BF9082138
:102A10000A48FEF757F96420FDF7DEFE0221074859
:102A2000FEF748F904210548FEF744F90821034858
:102A3000FEF740F90A20FEF7FDFFE0E7000801403D
:102A4000F0B50B30154D20F007010024144A0FE0BB
:102A500003688B420BD38B4205D95E1A4318476833
:102A6000C3E9006700E04368136002C004E0021D90
:102A700010680028ECD12046002802D1286808B14F
:102A80000020F0BD064A07481060074A121A22F0DB
:102A90000702C0E9002401202860D7E74404002091
:102AA0004004002094080020900A00202DE9F04DF9
:102AB0001D460C4698B0174621F0004123F0004314
:102AC000002814BF4FF0010C4FF0000C0CEB440C2D
:102AD000FE4A0CEB02064FEA620C66452BD33E0021
:102AE00018BF012606EB45061644F94A964222D342
:102AF000F84A53EA070C02D0944205D148B918B0FD
:102B000000201146BDE8F08D002808BF4FF0000CF2
:102B100001D04FF0010C0CEB440212F5001F0AD853
:102B2000002F14BF4FF0010C4FF0000C0CEB4502CE
:102B300012F5001F07D918B03A462B462146BDE8CA
:102B4000F04DFFF7E5BE0022DFF88CA3002CB8BFE4
:102B5000534526DADFF884C36345A8BF022220DA92
:102B6000DFF870C39C451CDCDFF874C30CEB235CFE
:102B7000BCF1140F08DDCCF1340627FA06FC0CFA80
:102B800006F6BE420DD108E05FB9CCF1140623FA77
:102B900006FC0CFA06F69E4203D10CF00102C2F1CB
:102BA000020251EA000C19D1002D17DA002C18BFCF
:102BB000022A01D0012A07D00220FFF7D1FE18B067
:102BC000BDE8F04DFFF79CBE0220FFF7C9FEFFF7FE
:102BD00097FE18B081F00041BDE8F08DB7F1000C10
:102BE0006CD1534525D104F1804212F5801201BF0A
:102BF00000280020B74918B008BFBDE8F08DB548DF
:102C0000884207DC002DA1BF6046294618B0BDE808
:102C1000F08D07E0281E05DA80F0004118B060460C
:102C2000BDE8F08DAF497944D1E9000118B0BDE8A5
:102C3000F08DDFF8A0C2634525D1002D1FDA19B150
:102C4000514512D1D8B909E0002840F0EC82A24ADF
:102C5000214618B062F31E01BDE8F08D0020214628
:102C600018B060F31E01BDE8F08D08DA18B02346F5
:102C7000BDE8F04D024600206146FDF733BC18B0B8
:102C80002146BDE8F08D514518DAB5F1804F0DD0E1
:102C9000A5F1005CBCF1FF5C10D1B4F1000C0DDBC0
:102CA00018B06146BDE8F04D00F0ECBB234618B00B
:102CB0000246BDE8F04D1946FDF7FDBA060024F0C6
:102CC000004C3BD1D9B1514533D1002C06DD002D4C
:102CD000A1BF0020514618B0BDE8F08D002C01DDE9
:102CE000002D1BDB002C13DA002D11DB012A4FF025
:102CF000000014BF78497C4918B0BDE8F08D022A65
:102D000018BF002C0AD0012A08D1002C06DA0AE0EC
:102D1000002CB8BF002D11DA012A04D0002018B011
:102D20000146BDE8F08D18B000204FF00041BDE82D
:102D3000F08DA1F14050B0F17F601AD0012000EB7E
:102D4000E47050EA020421D0624C521E4FF0000B96
:102D5000104304BF4FF0000B644C654883427CDD98
:102D6000644A654893421FDD884217DB002D25DB4E
:102D700037E0002C00DA4AB1022A0CBF01204FF0E4
:102D8000FF3018B0BDE8F04DFDF732BC0120FFF771
:102D9000E7FD18B0BDE8F04DFFF7BCBD4D4A8A42D3
:102DA00002DC002D0ADC1CE0814202DA002D18DA78
:102DB00004E0484B994220DD002D12DD0220FFF790
:102DC000CFFDFFF7ADFD05460E460022534658469F
:102DD0002146FDF770FA18B066F31E012846BDE8DB
:102DE000F08D0220FFF7BCFDFFF7A2FD0A46214649
:102DF00018B062F31E01BDE8F08D00223046614636
:102E0000FDF753FA80460E466FF00102FDF7D9FB3D
:102E10004FF05532394BFDF74BFA42463346FDF73A
:102E20004AFA0022364BFDF743FA824642463346C1
:102E3000049110461946FDF73EFA5246049BFDF7F1
:102E40003AFA8A4600904FF0C0422E4B4046314637
:102E5000FDF731FA2C4A2B4B00E027E0CDE90601C3
:102E600051460098FDF727FA82460191274A284BE0
:102E700040463146FDF71FFA5246019BFDF715FA11
:102E800082460B4602460591DDE90601FDF76CF925
:102E9000DDE90623002688463046FDF706FA52464D
:102EA000059BFDF705FA024600F07EB90020B1F55A
:102EB000801F07DA352230466146FDF782FB064661
:102EC0006FF0340000EB215024E00000FFFF1F00F2
:102ED000FFFF0F000000F03F0000F07F00004043C4
:102EE00001FCFFFF9E0A00000000F0FF0000F0BFA1
:102EF0000000E0410000F043FFFFEF3F5555D53F94
:102F00000000E03F4715F73FFE822B6544DF5DF888
:102F10000BAE543EA0F2FF300190C1F3130040F01D
:102F20007F6141F040510291FE498842D8BF0020A4
:102F300004DDFD498142C8BF012001DD0D9008E09C
:102F400000200D900198401C01900298A0F580107F
:102F500002900299F54878440B910D9900EBC1005D
:102F6000D0E900230F9330460A920B99FDF79DF9A3
:102F7000CDE90601DDE90A2130460F9BFDF7F4F8A3
:102F800002460B460020EA49FDF7ACFA05910246DD
:102F90000B460090DDE90601FDF78DF91490E54838
:102FA0008A464FF0000878440299006812904FF06A
:102FB000005040EA61010D980F9B01EB804000F545
:102FC000002109910A9A1298FDF76FF932460B9B7E
:102FD000FDF76EF942465346FDF76DF9064602913C
:102FE00040465146099B129AFDF765F9DDE9062333
:102FF000FDF75EF93246029BFDF757F9059B009AF3
:10300000FDF759F90091149A049053461046194659
:10301000FDF751F906460246C7480B4602910621C4
:103020007844FFF717FCCDE90510029B32461046A5
:103030001946FDF740F9DDE90532FDF73CF9059148
:103040000646534640461946149AFDF78DF8009BF4
:10305000049AFDF730F93246059BFDF785F8CDE976
:1030600005104246534610461946FDF724F9002242
:10307000B24B02910A90FDF777F8DDE90532FDF7D2
:1030800073F80E464246AD4B4046FDF70EF9029BE3
:103090000A9AFDF70AF9DDE90532FDF709F942461A
:1030A00002910A90334610465146FDF704F9CDE9E6
:1030B00006015346149A02990A98FDF7FCF88A46CD
:1030C00002903346424600990498FDF7F4F85346BF
:1030D000029AFDF749F882460B4602460591DDE962
:1030E0000601FDF741F8DDE9062300208846064683
:1030F000FDF7DBF85246059BFDF7DAF882460991A9
:103100004FF060428E4B30464146FDF7D4F80490B4
:1031100006918C4A8A4B50460999FDF7CCF88246B5
:103120000291894A894B30464146FDF7C4F8524620
:10313000029BFDF719F8864B7B440D9A03EBC20303
:10314000D3E90023FDF710F80E9007910198FDF7E1
:103150004FFA0591DDE9061382460E9A0498FDF7B1
:1031600003F87C4A7A440D9B02EBC303D3E90023A6
:1031700000930292FCF7F8FF5246059BFCF7F4FF20
:103180000026884652463046059BFDF78EF8009B88
:10319000029AFDF78AF8069B049AFDF786F8079BCA
:1031A0000E9AFDF785F8024600200B46029038463D
:1031B0002946FDF780F8824601912B46384619468C
:1031C000029AFDF772F832464346FDF774F852460C
:1031D000019BFCF7C9FF07468A463246434629460B
:1031E0000298FDF768F805460E463A465346FCF746
:1031F000BBFF594A8846914221DBA8EB020353EA00
:10320000000210D12A463346FDF74FF8CDE90401FC
:10321000524A534B38465146FCF7A6FFDDE90423DA
:10322000FDF7F8F921D20220FFF79AFBFFF778FBB0
:103230000A46214618B062F31E01BDE8F08D494BE5
:1032400028F000429A4210D3474A08EB020353EA9F
:1032500000027FF4C6AD2A463346FDF726F83A460B
:103260005346FDF7D7F97FF6BCAD0022019228F056
:1032700000403E493E4A01EB2051824223DA481C7D
:103280004FF4801121FA00F040443A4AC0F30A5149
:103290007A44394BA1F2FF31CB4020EA0303C0F35B
:1032A000130040F48010C1F11401C840126801906D
:1032B000B8F1000FBCBF4042019028463146FCF7F0
:1032C000F4FF05460E462A46334638465146FCF77B
:1032D0004BFF4FF000084246284B40460591FCF753
:1032E000EAFFCDE90601264A264B40460599FCF740
:1032F000E2FF009102902A46334640460599FCF7CA
:10330000D4FF3A465346FCF7D3FF1F4A1F4BFCF746
:10331000D2FF009B029AFCF727FF07468846024629
:103320000B4635E08E9803007AB60B00E6060000E7
:103330000000F03F1E0700004C060000000008409F
:1033400009C7EE3FFD033ADCF5015B14E02F3EBEFA
:1033500024050000E804000000009040FE822B6578
:103360004715973C00CC904000346F3F01FCFFFFB5
:103370000000E03F34040000FFFF0F00432EE63F53
:10338000396CA80C615C20BEEF39FAFE422EE63F94
:10339000DDE90601FCF7E8FEDDE9062305460E46F9
:1033A000FCF783FF3A464346FCF782FF0F462A4666
:1033B0003346009010461946FCF77DFF82460246D0
:1033C0002E4888460B4605217844FFF743FA5246BB
:1033D0004346FCF770FF2A463346FCF769FF8046F8
:1033E0008A463B4628463146009AFCF764FF3B4636
:1033F000009AFCF7B9FE0691009000224FF080433E
:1034000040465146FCF751FF0F460C90424653464A
:1034100028463146FCF74FFF3B460C9AFDF762F811
:10342000069B009AFCF741FF2A463346FCF73DFF16
:103430000022134BFCF73CFF054601980E4601EBBA
:1034400000510815002810DC28463146019AFDF786
:10345000B8F8FFF7EBF9042808BFFFF769FA284628
:103460003146019AFDF7ADF805460B4618B02A46DD
:1034700058462146BDE8F04DFCF71DBFD4020000C0
:103480000000F03F2DE9F04106460F46FDF7ECF84D
:10349000041E0D4618BF0120284320F00040C0F153
:1034A0007F6000F1E040C00F0ED0301C18BF01203B
:1034B000384320F00040C0F17F6000F1E040C00FD1
:1034C00004BF0120FFF74CFA20462946BDE8F081F1
:1034D000E001000000000000003C000000000000CF
:1034E00000800700000000000000F0000000000065
:1034F0000000001E00000000000000C003000000EB
:10350000000000007800000000000000000F000034
:103510000000000000E001000000000000003C008E
:103520000000000000FFFF007E7E18183C3C3C3C81
:103530001E1E787878781E1E06067E7E60607E7E6F
:103540007C447C407C445C54747C54547C101C74DB
:10355000545C74547C7C04047C547C7C545C00007B
:103560000000000000009D1567459D156745691521
:1035700056145914694556125612561256126A15A7
:1035800045126A15451269255601692556016A12C8
:1035900068459A155624591256049A266A45EF0032
:1035A00037073817390641004200462D470F483C7F
:1035B00049004A1E4C2051105E1060278042814411
:1035C00082048B019006950A960C97059A149C3FED
:1035D000A519CC19CD0BCE13CF64D021EF01020F6A
:1035E0000310040225012739287F29083EFF5E3D8C
:1035F0006596679769CD6A016D2C6E01720173350E
:1036000074007701EF0041004200EF00483C4900A0
:10361000511083209FF9EF01011E020F03100402D5
:1036200041404330659666006797680169CD6A013D
:103630006BB06C046D2C6E017400EF0041FF420111
:10364000000000000000F03F000000000000F83F14
:1036500000000000000000000000004003B8E23F4E
:10366000000000000000000006D0CF43EBFD4C3E00
:10367000033333333333E33FFFAB6FDBB66DDB3FF5
:103680004D268F515555D53F01411DA96074D13F3D
:1036900065DBC9934A86CD3FEF4E454A287ECA3F37
:1036A0003E5555555555C53F93BDBE166CC166BFB9
:1036B0002CDE25AF6A56113FF16BD2C541BDBBBEB2
:1036C000D0A4BE726937663E000000000000000012
:1036D000F0360008000000204C0400000A07000833
:1036E0009C3700084C040020440A000050290008C0
:1036F0001184A24A04C0090102030406070809F262
:103700000A0A15FF012D43680F6D0828217B6B6F96
:103710002D3C2060F543686F73BFEA7DE55F6B6FFA
:103720006D3F2220F0439B6F6D7CB52DE5242D3F2E
:103730002069FB0810087FAA64E00FC03F2DBFA4DA
:10374000ADFB082914A9083D3F8410C2203CF7D6E0
:10375000DA103CF4D6C3203BF5D6300D163F84D0AA
:10376000C390380913420821841042FE6955FFFFB7
:10377000FE0F4C80FF0B080A16FE0809FD2809FD04
:103780002809FD2819283BFBFF01480AFE134208BF
:0C37900021841042FE0F8901011C000082
:04000005080000ED02
:00000001FF
