:020000040800F2
:10000000700C002001010008FD070008A70400088B
:10001000F9070008BF01000879140008000000007B
:10002000000000000000000000000000BD100008FB
:1000300031020008000000005F100008A91100084C
:100040001B0100081B0100081B0100081B01000820
:100050001B0100081B0100081B0100081B01000810
:100060001B0100081B0100081B0100081B01000800
:100070001B0100081B0100081B0100081B010008F0
:100080001B0100081B0100081B0100081B010008E0
:100090001B0100081B0100081B0100084D0200089D
:1000A0001B0100081B0100081B0100081B010008C0
:1000B000791200081B0100081B0100081B01000841
:1000C0001B0100081B0100081B0100081B010008A0
:1000D0001B0100081B0100081B0100081B01000890
:1000E0001B0100081B0100081B010008DFF80CD0F1
:1000F00000F028F8004800473D1A0008700C002066
:100100000648804706480047FEE7FEE7FEE7FEE7B1
:10011000FEE7FEE7FEE7FEE7FEE7FEE7B1110008B7
:10012000ED000008202A04DB203A00FA02F100204A
:1001300070479140C2F1200320FA03F31943904025
:1001400070470000064C074D06E0E06840F00103F0
:1001500094E8070098471034AC42F6D3FFF7CAFF83
:10016000D01B0008F01B000870B58C1810F8015B5C
:1001700015F0070301D110F8013B2A1106D110F840
:10018000012B03E010F8016B01F8016B5B1EF9D144
:100190002B0705D40023521E0DD401F8013BFAE7CA
:1001A00010F8013BCB1A921C03E013F8015B01F835
:1001B000015B521EF9D5A142D8D3002070BD00BF0B
:1001C000FEE700B5012000F053FA00BD1FB506217F
:1001D000002000F0B9F84020ADF80C0048208DF860
:1001E0000F0003208DF80E0003A9104800F0CCF892
:1001F000402000900C208DF8050000208DF80400B0
:1002000001208DF80600684600F054F817208DF89C
:10021000080002208DF8090000208DF80A00012056
:100220008DF80B0002A800F0EBFA1FBD000801409A
:100230007047000001B504490098086000BF0248FB
:1002400000680028FBD108BD2404002010B58020E0
:1002500000F01CF820B1802000F012F800F09CFDA6
:10026000402000F013F850B141F2240000E0401E9D
:100270000028FCD1402000F003F8FFF7A2FF10BDDA
:100280000149086070470000140401400146002045
:100290000022074B1B6803EA0102054B14331B685D
:1002A0000B4013B10AB1012000E0002070470000AC
:1002B00000040140002123498279002A3AD00A46ED
:1002C000126803689A430B461A600A1D1268036895
:1002D0009A430B1D1A60027911440A6803681A4395
:1002E0000A60184A0832126803689A43154B0833AB
:1002F0001A601A1D126803689A43124B0C331A6075
:100300004279102A0ED11A1F126803681A430D4B46
:1003100008331A601A1D126803681A43094B0C331C
:100320001A600DE00749427911440A6803681A43CC
:100330000A6005E0027911440A6803689A430A607A
:10034000704700000004014030B500228B071C0FED
:100350000F2303FA04F20B4B8C1053F82430934311
:10036000084C8D1044F8253023468C1053F8243067
:100370008C07240F00FA04F42343024C8D1044F838
:10038000253030BD080001402DE9F041024600252E
:100390000026002000230024002791F803C00CF061
:1003A0000F0591F803C00CF0100CBCF1000F03D046
:1003B00091F802C04CEA050591F800C0BCF1000FAD
:1003C00031D0146800202BE04FF0010C0CFA00F340
:1003D000B1F800C00CEA03069E4220D183004FF022
:1003E0000F0C0CFA03F7BC4305FA03FC4CEA0404B7
:1003F00091F803C0BCF1280F06D14FF0010C0CFAA4
:1004000000FCC2F814C00AE091F803C0BCF1480F28
:1004100005D14FF0010C0CFA00FCC2F810C0401CD2
:100420000828D1D31460B1F800C0BCF1FF0F34DD4F
:10043000546800202EE000F1080C4FF0010808FA83
:100440000CF3B1F800C00CEA03069E4221D18300F0
:100450004FF00F0C0CFA03F7BC4305FA03FC4CEA0F
:10046000040491F803C0BCF1280F05D100F1080C79
:1004700008FA0CF8C2F8148091F803C0BCF1480FD8
:1004800007D100F1080C4FF0010808FA0CF8C2F887
:100490001080401C0828CED35460BDE8F081416133
:1004A00070470161704700BFFEE7000010B50446C9
:1004B00024B14FF400600C49086003E04FF0006085
:1004C000094908604FF480600749086000F00EF8A1
:1004D0004FF080600449086000F008F84FF40060B5
:1004E0000149086010BD0000100C0140002001E02F
:1004F000411CC8B20A28FBDB7047000010B501217F
:10050000082000F0CBFD14200549C8704FF440606E
:100510000880032088700348FFF736FF10BD0000F5
:100520001E000020000C014070B5002418E04FF4BC
:1005300080600D490860FFF7D9FF0B480838006854
:10054000C0F3C02020B1C4F1070101208840C5B22A
:100550004FF0806004490860FFF7C8FF601CC4B218
:10056000082CE4DB284670BD100C014070B5054630
:1005700000241DE0C4F1070045FA00F000F001007E
:1005800020B14FF400600F49086003E04FF00060B5
:100590000C4908604FF480600A490860FFF7A6FF25
:1005A0004FF0806007490860FFF7A0FF601CC4B2ED
:1005B000082CDFDB4FF4006002490860FFF796FF6C
:1005C00070BD0000100C014010B54FF400600849E8
:1005D000086040100860FFF789FF4FF00060044991
:1005E0000860FFF783FF4FF080600149086010BD8D
:1005F000100C014010B54FF0006006490860401033
:10060000086000140860FFF771FF4FF400600149B3
:10061000086010BD100C014010B54FF400600D498A
:100620000860FFF763FF4FF480600A490860FFF736
:100630005DFF084808380068C0F3C02008B10124F5
:1006400000E000244FF0806002490860FFF74EFF91
:10065000204610BD100C0140002001490870704771
:100660002804002010B500F055FCFFF7AFFD10BDC9
:1006700001490870704700002804002008B50020D8
:1006800000900121042000F009FD02211D48FFF720
:1006900008FF0220ADF8000010208DF803000320B1
:1006A0008DF8020069461748FFF76EFE012104200D
:1006B00000F0F4FC04211348FFF7F3FE0420ADF82A
:1006C000000010208DF8030003208DF80200694619
:1006D0000C48FFF759FE0121042000F0DFFC08213F
:1006E0000848FFF7DEFE0820ADF8000010208DF866
:1006F000030003208DF8020069460248FFF744FE1C
:1007000008BD00000008014070B504460D462946AA
:100710002046FFF7C6FE70BD70B504460D4629465B
:100720002046FFF7BCFE70BD10B52C4890F90000C4
:1007300000280ADD29480078401E40B22749087089
:1007400002212748FFF7E8FF0CE02448007848B969
:1007500022480078401E40B22049087002212048FB
:10076000FFF7D2FF1F4890F9000000280ADD1D485E
:100770000078401E40B21B49087004211848FFF75A
:10078000CBFF0CE01748007848B916480078401EA7
:1007900040B21449087004211148FFF7B5FF124810
:1007A00090F9000000280ADD0F480078401E40B292
:1007B0000D49087008210A48FFF7AEFF0CE00A480F
:1007C000007848B908480078401E40B206490870D1
:1007D00008210348FFF798FF10BD000030040020F7
:1007E00000080140310400203204002002200149A9
:1007F000087070473204002000BFFEE77047000019
:1008000070B5002100230F22C47804B3154C24686E
:1008100004F4E064C4F5E064210AC1F10403CA40B1
:10082000447804FA03F184781440214309010E4C02
:100830000678A155047804F01F050124AC40057822
:100840006D11AD0005F1E025C5F8004109E004781F
:1008500004F01F050124AC40044D0678761145F8DC
:10086000264070BD0CED00E000E400E080E100E017
:1008700002490143024A1160704700000000FA0576
:100880000CED00E02DE9F84F81460D4614461E465A
:100890000A9F2819401E00F0FF0AF019401EC0B23E
:1008A0000090BAF1080F06DA0098802803DA012CCC
:1008B00001DB012F02DA36A001F0B0F8FFF784FE69
:1008C0007820FFF753FE00BFFFF7A6FE0028FBD1FC
:1008D000FFF74CFE00BFFFF79FFE0028FBD1222050
:1008E000FFF744FE00BFFFF797FE0028FBD1284624
:1008F000FFF73CFE00BFFFF78FFE0028FBD15046FC
:10090000FFF734FE00BFFFF787FE0028FBD1212050
:10091000FFF72CFE00BFFFF77FFE0028FBD130461B
:10092000FFF724FE00BFFFF777FE0028FBD10098F9
:10093000FFF71CFE00BFFFF76FFE0028FBD1FFF79B
:1009400043FE7820FFF712FE00BFFFF765FE002888
:10095000FBD14020FFF70AFE00BFFFF75DFE002835
:10096000FBD104FB07FB80460CE019F80800FFF7F9
:10097000FDFD00BFFFF750FE0028FBD108F101008C
:100980001FFA80F8D845F0DBFFF734FEBDE8F88F9A
:100990004F4C45445F44726177506963E68EA5E62B
:1009A00094B6E588B0E99D9EE6B395E58F82E6951D
:1009B000B021000008B580200023082219460090CD
:1009C0000648FFF75FFF002004E00021044A1154AD
:1009D000411CC8B21028F8DB08BD000060040020EC
:1009E0006008002010B5FFF7EFFD7820FFF7BEFD8F
:1009F00000BFFFF711FE0028FBD1FFF7B7FD00BFD6
:100A0000FFF70AFE0028FBD1AF20FFF7AFFD00BFC4
:100A1000FFF702FE0028FBD18120FFF7A7FD00BFF2
:100A2000FFF7FAFD0028FBD17F20FFF79FFD00BFF5
:100A3000FFF7F2FD0028FBD12020FFF797FD00BF54
:100A4000FFF7EAFD0028FBD10120FFF78FFD00BF73
:100A5000FFF7E2FD0028FBD12220FFF787FD00BF52
:100A6000FFF7DAFD0028FBD1FFF780FD00BFFFF79D
:100A7000D3FD0028FBD10720FFF778FD00BFFFF76B
:100A8000CBFD0028FBD12120FFF770FD00BFFFF751
:100A9000C3FD0028FBD1FFF769FD00BFFFF7BCFDD8
:100AA0000028FBD17F20FFF761FD00BFFFF7B4FDF9
:100AB0000028FBD1A020FFF759FD00BFFFF7ACFDD8
:100AC0000028FBD1C820FFF751FD00BFFFF7A4FDB0
:100AD0000028FBD1D920FFF749FD00BFFFF79CFD9F
:100AE0000028FBD12220FFF741FD00BFFFF794FD56
:100AF0000028FBD1DB20FFF739FD00BFFFF78CFD9D
:100B00000028FBD12020FFF731FD00BFFFF784FD57
:100B10000028FBD18D20FFF729FD00BFFFF77CFDEA
:100B20000028FBD11420FFF721FD00BFFFF774FD63
:100B30000028FBD1AF20FFF719FD00BFFFF76CFDC8
:100B40000028FBD1FFF740FD7820FFF70FFD00BF25
:100B5000FFF762FD0028FBD14020FFF707FD00BF33
:100B6000FFF75AFD0028FBD14FF4806408E0002015
:100B7000FFF7FCFC00BFFFF74FFD0028FBD1641E10
:100B8000002CF4DCFFF736FD10BD00002DE9F0412C
:100B9000FFF71AFD7820FFF7E9FC00BFFFF73CFDE7
:100BA0000028FBD1FFF7E2FC00BFFFF735FD00286E
:100BB000FBD12220FFF7DAFC00BFFFF72DFD002854
:100BC000FBD1FFF7D3FC00BFFFF726FD0028FBD1C8
:100BD0000720FFF7CBFC00BFFFF71EFD0028FBD16D
:100BE000804600246FE03B48005D10B94FF00008DC
:100BF00067E000255FE03748005D8021294108401B
:100C000010B94FF0000854E005EBC400C6B2B8F1CB
:100C1000000F3AD1FFF7D8FC7820FFF7A7FC00BF00
:100C2000FFF7FAFC0028FBD1FFF7A0FC00BFFFF79D
:100C3000F3FC0028FBD12120FFF798FC00BFFFF751
:100C4000EBFC0028FBD13046FFF790FC00BFFFF71C
:100C5000E3FC0028FBD17F20FFF788FC00BFFFF7F3
:100C6000DBFC0028FBD1FFF7AFFC7820FFF77EFC10
:100C700000BFFFF7D1FC0028FBD14020FFF776FC36
:100C800000BFFFF7C9FC0028FBD100270CE007EBF1
:100C9000C601114A505CFFF769FC00BFFFF7BCFCBE
:100CA0000028FBD1781CC7B2082FF0DB4FF00108F9
:100CB00000BF681CC5B2082D9DDB00200549085502
:100CC00000BF601CC4B2102C8DDBFFF793FCBDE8A5
:100CD000F0810000600800206004002010B5FFF7DC
:100CE00073FCE620FFF742FC00BFFFF795FC0028ED
:100CF000FBD1EF20FFF73AFC00BFFFF78DFC002887
:100D0000FBD1FFF733FC00BFFFF786FC0028FBD1C7
:100D1000002420E0FFF758FCE620FFF727FC00BF87
:100D2000FFF77AFC0028FBD11A4911F81400FFF7ED
:100D30001DFC00BFFFF770FC0028FBD1154901EB3B
:100D400044014878FFF712FC00BFFFF765FC00285C
:100D5000FBD1601CC4B21E2CDCD3FFF735FCE620AF
:100D6000FFF704FC00BFFFF757FC0028FBD1EF2082
:100D7000FFF7FCFB00BFFFF74FFC0028FBD1FFF79C
:100D8000F5FB00BFFFF748FC0028FBD1FFF732FC62
:100D900010BD0000941B000808B5FFF715FCE62005
:100DA000FFF7E4FB00BFFFF737FC0028FBD143202F
:100DB000FFF7DCFB00BFFFF72FFC0028FBD1FFF79C
:100DC00003FCE720FFF7D2FB00BFFFF725FC00285C
:100DD000FBD1FFF7A9FB8DF800000020FFF766FBB1
:100DE000FFF7A2FB0002C0B28DF801000120FFF75F
:100DF0005DFBFFF7FFFB9DF800009DF8011040EA46
:100E00000120082818D006DC012809D002280BD0C0
:100E100004281DD10CE0402812D0802818D113E0FE
:100E20000320FFF725FC14E00220FFF721FC10E06F
:100E30000520FFF71DFC0CE00420FFF719FC08E07B
:100E40000620FFF715FC04E00720FFF711FC00E087
:100E500000BF00BF08BD000010B5FFF7B5FBE620DE
:100E6000FFF784FB00BFFFF7D7FB0028FBD1EF2083
:100E7000FFF77CFB00BFFFF7CFFB0028FBD1FFF79C
:100E800075FB00BFFFF7C8FB0028FBD1002420E062
:100E9000FFF79AFBE620FFF769FB00BFFFF7BCFBFB
:100EA0000028FBD11A4911F81400FFF75FFB00BFBF
:100EB000FFF7B2FB0028FBD1154901EB440148784C
:100EC000FFF754FB00BFFFF7A7FB0028FBD1601C16
:100ED000C4B2332CDCD3FFF777FBE620FFF746FBE9
:100EE00000BFFFF799FB0028FBD1EF20FFF73EFB87
:100EF00000BFFFF791FB0028FBD1FFF737FB00BFD6
:100F0000FFF78AFB0028FBD1FFF774FB10BD000040
:100F10002E1B000810B500F021F800F051F810B9B0
:100F200006A000F07BFD0520FFF784F9FFF794FF92
:100F30000520FFF77FF9FFF7D1FE10BDE6898BE5AD
:100F40008ABFE8AF86E588ABE6A8A1E59D97E59462
:100F5000A4E98692E5A4B1E8B4A500001FB5072175
:100F60000020FFF7F1F98020ADF80C0028208DF863
:100F70000F0003208DF80E0003A91048FFF704FAB4
:100F8000802000900C208DF8050000208DF80400D2
:100F900001208DF806006846FFF78CF917208DF8C0
:100FA000080002208DF8090000208DF80A000120B9
:100FB0008DF80B0002A8FFF723FC1FBD00080140BD
:100FC00010B5FFF701FBE620FFF7D0FA0520FFF789
:100FD00031F9FFF7F9FAE620FFF7C8FA0520FFF725
:100FE00029F9FFF7F1FAE620FFF7C0FA00BFFFF793
:100FF00013FB0028FBD1EF20FFF7B8FA00BFFFF783
:101000000BFB0028FBD1FFF7B1FA00BFFFF704FB91
:101010000028FBD1FFF7D8FAE620FFF7A7FA00BFB8
:10102000FFF7FAFA0028FBD1FFF7A0FA00BFFFF79D
:10103000F3FA0028FBD1FFF7C7FAE720FFF796FA8B
:1010400000BFFFF7E9FA0028FBD1FFF76DFA04466D
:101050000120FFF72BFAFFF7CDFA204610BD7047AD
:1010600010B50121084600F019F80121042000F014
:1010700015F84FF4A060FFF7FBFB10BD29B1064A3D
:10108000D2690243044BDA6104E0034AD269824325
:10109000014BDA61704700000010024029B1064A96
:1010A00092690243044B9A6104E0034A92698243C5
:1010B000014B9A617047000000100240704710B564
:1010C00000F002F810BD00000CB500200190009067
:1010D0003348006840F480303149086000BF304830
:1010E000006800F4003000900198401C01900098C6
:1010F00018B90198B0F5A06FF1D12948006800F443
:10110000003010B10120009001E000200090009814
:10111000012843D12348006840F0100021490860AD
:101120000846006820F0070008600846006840F0A4
:10113000020008601A48406819494860084640683B
:1011400048600846406840F480604860084640684F
:1011500020F47C1048600846406840F4E81048607D
:101160000846006840F08070086000BF0C480068C6
:1011700000F000700028F9D00948406820F0030012
:10118000074948600846406840F00200486000BFD8
:101190000348406800F00C000828F9D10CBD00009D
:1011A000001002400020024010B500F059F910BDB7
:1011B00010B51348006840F0010011490860084666
:1011C0004068104908400E494860084600680E49CA
:1011D00008400B4908600846006820F48020086039
:1011E0000846406820F4FE0048604FF41F00886005
:1011F000FFF765FF4FF000600449086010BD000074
:10120000001002400000FFF8FFFFF6FE08ED00E0CE
:1012100030B5164800684FF47A72B0FBF2F1B1F1C4
:10122000807F01D301201DE021F07F40401E4FF060
:10123000E022506150170F22002807DA13071D0E15
:101240000B4B00F00F04241F1D5503E013071C0E69
:10125000084B1C5400BF00204FF0E0229061072093
:101260001061002008B100BFFEE730BD0000002083
:1012700018ED00E000E400E010B50121880700F05F
:1012800050F800F035F810BD1FB51C208DF80C008B
:1012900001208DF80D008DF80E008DF80F0003A8C9
:1012A000FFF7AEFA01210846FFF7E8FE40F2F3101F
:1012B000ADF8040041F61F40ADF800000020ADF885
:1012C0000600ADF802008DF8080069464FF0804036
:1012D00000F040F80121880700F020F801221146B3
:1012E000900700F02DF80121880700F01DF81FBDC0
:1012F00010B509480068401C142190FBF1F201FB75
:101300001200054908600846006808B9FFF76EFA40
:10131000FFF70AFA10BD00002C040020CA43028225
:101320007047CA430282704721B1028842F001022D
:10133000028004E002884FF6FE731A400280704774
:101340001AB183890B43838102E083898B438381B4
:1013500070470000002202881D4B98420ED01D4BA2
:1013600098420BD0B0F1804F08D01B4B984205D06B
:101370001A4B984202D01A4B984204D14FF68F7301
:101380001A404B881A43174B984207D0164B984285
:1013900004D04FF6FF431A40CB881A4302808B8853
:1013A00083850B8803850A4B98420BD0094B9842E2
:1013B00008D00E4B984205D00D4B984202D00D4BF1
:1013C000984201D10B7A0386012383827047000083
:1013D000002C01400034014000040040000800409F
:1013E000000C00400010004000140040004001408C
:1013F000004401400048014010B500F0E3F948F214
:1014000004001149C88448F28000888448F204002E
:10141000488100200D49086001200D490870052011
:101420000C49087007200C490870012408E000BF2F
:101430000A4800780028FBD000F01EFA00F094F86B
:10144000002CF4D110BD0000340400201400002052
:10145000190000201A0000201B0000202804002092
:101460000448006820B103480068401E0149086034
:10147000704700002404002000BFFEE72DE9F0477C
:1014800006460F4600210B460C4600200DE00121C8
:101490008140394001B906E02F4901EBC00206CA7C
:1014A0000B43144300BF411CC8B20A28EFDBC6F14E
:1014B000130000EB8000173000F0FF0C012546E020
:1014C0000CEB0501C8B24FEAE07800EB58784FEA20
:1014D000E808DFF8889019F8088002464FEAE079BA
:1014E00000EB59794FEAE909A0EBC90A4FF08009EE
:1014F00049FA0AF948EA090801464FEAE07900EB9F
:1015000059794FEAE909DFF854A00AF8098014492B
:1015100001EBC00206CA4FF00F08DFF8489001EA5D
:10152000080102EA0902DFF8388008EBC008C8E9C0
:1015300000120B4901EBC00206CA19432243DFF82F
:10154000208008EBC008C8E90012681CC5B2042D51
:10155000B6DDBDE8F0870000A01A00086008002092
:1015600060040020000080FF2DE9F0418C480078E5
:1015700000F00100002860D08A480468002559E086
:101580000A20B4FBF0F100FB114601234BE01421CB
:1015900001EB85011944C8B2C71700EB5777FF105C
:1015A000DFF804C21CF8077002464FEAE07C00EB4B
:1015B0005C7C4FEAEC0CA0EBCC084FF0800C4CFAB2
:1015C00008FC47EA0C0701464FEAE07C00EB5C7C34
:1015D0004FEAEC0CDFF8D08108F80C70734901EB8E
:1015E000C001D1E900214FF0F84C41EA0C016F4FE6
:1015F00007EBC007C7E9002106EB46016C4A0A4425
:10160000591E515C6FEA0161684F07EBC00CDCE9C1
:10161000007C3A4601EA0C01644F07EBC007C7E9BA
:101620000021581CC3B2032BB1DD0A20B4FBF0F437
:10163000681CC5B2002CA3D100BF5948007800F047
:101640000200002843D000233FE003F10C01C8B2A0
:10165000C41700EB5474E410534D2C5D0246C517BB
:1016600000EB5575ED10A0EBC506802535412C43E8
:101670000146C51700EB5575ED104B4E74554B499F
:1016800001EBC001D1E900216FF4FF552A40474C1E
:1016900004EBC004C4E90021444901EBC00130C996
:1016A0004449454A127801EB8201CA5C0021490194
:1016B00041EAD2615601344345EA01023B4901EB5C
:1016C000C001C1E90042581CC3B2042BBDDB344841
:1016D000007800F00400E0B300233FE003F10C01C8
:1016E000C8B2C41700EB5474E4102F4D2C5D0246B1
:1016F000C51700EB5575ED10A0EBC50680253541EB
:101700002C430146C51700EB5575ED10264E745558
:10171000264901EBC00206CA6FF0FF452940234C61
:1017200004EBC00406C4214901EBC00130C92149C2
:10173000224A127801EB8201C95C0022D20542EAFA
:101740005122CE05344345EA0201184A02EBC00299
:1017500000E005E0C2E90041581CC3B2042BBDDB28
:10176000002417E0164830F8140000F4004000B9D7
:101770000EE0134830F814102046FFF77FFE1048A3
:1017800030F81400C0F30E000D4921F8140000BF1A
:10179000601CC4B2142CE5DBFFF7F8F9BDE8F0815A
:1017A0001B000020140000206008002060040020BE
:1017B000101B0008F01A0008190000201A00002071
:1017C000340400202DE9F041002422E00020204ACA
:1017D00002EBC40210605060002516E005EBC40067
:1017E0001C490E5C0027EA0030463946FEF79AFC99
:1017F000174A02EBC402D2E9003218431143144ADB
:1018000002EBC40203C2681CC5B2082DE6DB601CF3
:10181000C4B2802CDADB002005E000210E4A22F859
:101820001010411CC8B21428F7DB00200B490860D7
:101830000B4908700B4908700B4908700B49087078
:101840000B4908700B490870FFF7B4F8BDE8F08148
:101850006004002022000020340400201400002036
:10186000190000201A000020180000201B00002092
:101870001D0000201C00002010B558485849097868
:1018800030F8110040F400405449554A127821F8CC
:10189000120008465249097830F8110051490A7877
:1018A0000121914088434D494D4A127821F8120098
:1018B0004D480078022806D003281CD0042832D0D6
:1018C000052860D147E046480078401C132803DA19
:1018D00043480078401C00E0132041490870434908
:1018E0000978481CC11700EB5171C910A0EBC10168
:1018F0003E4A117048E03A480078401E002803DD57
:1019000037480078401E00E000203549087037490C
:101910000978C81DC11700EB5171C910A0EBC101B6
:10192000324A117030E02F480078401E002803DD55
:101930002C480078401E00E000202A4908702C49FD
:101940000978C81DC11700EB5171C910A0EBC10186
:10195000274A117018E023480078401C092803DA50
:1019600020480078401C00E009201E4908702049EA
:101970000978481CC11700EB5171C910A0EBC101D7
:101980001B4A117000E000BF00BFFEF765FE19485A
:101990000068401C174908601748007840F00700AD
:1019A000154908700D480E49097830F8110040F4C7
:1019B00000410A480A4A127820F8121008490978AA
:1019C00030F8110007490A7801219140084381B29B
:1019D0000248034A127820F8121010BD3404002087
:1019E0001D0000201C0000202804002019000020F9
:1019F0001A000020140000201B00002002E008C88C
:101A0000121F08C1002AFAD170477047002001E078
:101A100001C1121F002AFBD17047000002210648B5
:101A2000FEF77AFE04210448FEF76EFE0821024804
:101A3000FEF76AFE00BFFEE700080140FFF710FB5B
:101A4000FEF71CFEFFF720FCFFF7E2FBFEF756FD5A
:101A5000FEF7C8FFFEF706FE00BF02210E48FEF7A4
:101A60005BFE04210C48FEF757FE08210A48FEF7EA
:101A700053FE6420FEF7DEFB02210748FEF744FE1A
:101A800004210548FEF740FE08210348FEF73CFE0E
:101A9000FFF7B2FCE1E70000000801400000000091
:101AA000E001000000000000003C00000000000019
:101AB00000800700000000000000F00000000000AF
:101AC0000000001E00000000000000C00300000035
:101AD000000000007800000000000000000F00007F
:101AE0000000000000E001000000000000003C00D9
:101AF0000000000000FFFF007E7E18183C3C3C3CCC
:101B00001E1E787878781E1E06067E7E60607E7EB9
:101B10007C447C407C445C54747C54547C101C7425
:101B2000545C74547C7C04047C547C7C545CEF00D6
:101B300037073817390641004200462D470F483C09
:101B400049004A1E4C2051105E106027804281449B
:101B500082048B019006950A960C97059A149C3F77
:101B6000A519CC19CD0BCE13CF64D021EF01020FF4
:101B70000310040225012739287F29083EFF5E3D16
:101B80006596679769CD6A016D2C6E017201733598
:101B900074007701EF0041004200EF00483C49002B
:101BA000511083209FF9EF01011E020F0310040260
:101BB00041404330659666006797680169CD6A01C8
:101BC0006BB06C046D2C6E017400EF0041FF42019C
:101BD000F01B000800000020340400006801000829
:101BE000981C0008340400203C0800000C1A00086F
:101BF0001184A24A04E00901020304060708090A45
:101C000015FF012D43680F6D0828217B6B6F2D3C5C
:101C10002060F543686F73BFEA7DE55F6B6F6D3FD2
:101C20002220F0439B6F6D7CB52DE5242D3F20696C
:101C3000FB0810087FAA64E00FC03F2DBFA4ADFBD6
:101C4000082914A9083D3F8410C2203CF7D6DA10B9
:101C50003CF4D6C3203BF5D6300D163F84D0C3905C
:101C6000380913420821841042FE6955FFFFFE0F18
:101C70004C80FF0B080A16FE0809FD2809FD2809FB
:101C8000FD2819283BFBFF01480AFE134208218466
:081C90001042FE0F8901011250
:04000005080000ED02
:00000001FF
