:020000040800F2
:10000000600C0020010100083D070008CB04000837
:1000100039070008BF01000889110008000000002E
:10002000000000000000000000000000590F000860
:10003000C301000800000000370F00084510000849
:100040001B0100081B0100081B0100081B01000820
:100050001B0100081B010008DD0100081B0100084E
:100060001B0100081B0100081B0100081B01000800
:100070001B0100081B0100081B0100081B010008F0
:100080001B0100081B0100081B0100081B010008E0
:100090001B0100081B0100081B01000835020008B5
:1000A0001B0100081B0100081B0100081B010008C0
:1000B0001B0100081B0100081B0100081B010008B0
:1000C0001B0100081B0100081B0100081B010008A0
:1000D0001B0100081B0100081B0100081B01000890
:1000E0001B0100081B0100081B010008DFF80CD0F1
:1000F00000F028F800480047B9150008600C0020FF
:100100000648804706480047FEE7FEE7FEE7FEE7B1
:10011000FEE7FEE7FEE7FEE7FEE7FEE74D1000081C
:10012000ED000008202A04DB203A00FA02F100204A
:1001300070479140C2F1200320FA03F31943904025
:1001400070470000064C074D06E0E06840F00103F0
:1001500094E8070098471034AC42F6D3FFF7CAFF83
:10016000401700086017000870B58C1810F8015B84
:1001700015F0070301D110F8013B2A1106D110F840
:10018000012B03E010F8016B01F8016B5B1EF9D144
:100190002B0705D40023521E0DD401F8013BFAE7CA
:1001A00010F8013BCB1A921C03E013F8015B01F835
:1001B000015B521EF9D5A142D8D3002070BD00BF0B
:1001C000FEE7704701B504490098086000BF024887
:1001D00000680028FBD108BD2004002010B50221D2
:1001E000124800F0A1FA0421104800F09DFA0821FD
:1001F0000E4800F099FA012000F054F80C4800E095
:10020000401E0028FCD10221084800F085FA042194
:10021000064800F081FA0821044800F07DFA0448FD
:1002200000E0401E0028FCD110BD00000008014085
:100230004444440010B5802000F03AF8B0B14FF4C7
:10024000807000E0401E0028FCD1802000F02AF8D9
:100250000221124800F068FA0421104800F064FA04
:1002600008210E4800F060FA00F0D8FC0C4800E0CD
:10027000401E0028FCD10221084800F04DFA04215C
:10028000064800F049FA0821044800F045FA0448FD
:1002900000E0401E0028FCD110BD00000008014015
:1002A00044444400014908607047000014040140C0
:1002B000014600200022074B1B6803EA0102054BA0
:1002C00014331B680B4013B10AB1012000E0002079
:1002D0007047000000040140002123498279002A70
:1002E0003AD00A46126803689A430B461A600A1D00
:1002F000126803689A430B1D1A60027911440A6858
:1003000003681A430A60184A0832126803689A435D
:10031000154B08331A601A1D126803689A43124B72
:100320000C331A604279102A0ED11A1F1268036822
:100330001A430D4B08331A601A1D126803681A43DA
:10034000094B0C331A600DE00749427911440A68E1
:1003500003681A430A6005E0027911440A680368D9
:100360009A430A60704700000004014030B5002243
:100370008B071C0F0F2303FA04F20B4B8C1053F85E
:1003800024309343084C8D1044F8253023468C10BC
:1003900053F824308C07240F00FA04F42343024C52
:1003A0008D1044F8253030BD080001402DE9F041A2
:1003B000024600250026002000230024002791F893
:1003C00003C00CF00F0591F803C00CF0100CBCF149
:1003D000000F03D091F802C04CEA050591F800C067
:1003E000BCF1000F31D0146800202BE04FF0010C5D
:1003F0000CFA00F3B1F800C00CEA03069E4220D1CB
:1004000083004FF00F0C0CFA03F7BC4305FA03FC12
:100410004CEA040491F803C0BCF1280F06D14FF058
:10042000010C0CFA00FCC2F814C00AE091F803C0F9
:10043000BCF1480F05D14FF0010C0CFA00FCC2F8DA
:1004400010C0401C0828D1D31460B1F800C0BCF122
:10045000FF0F34DD546800202EE000F1080C4FF04F
:10046000010808FA0CF3B1F800C00CEA03069E423A
:1004700021D183004FF00F0C0CFA03F7BC4305FAAF
:1004800003FC4CEA040491F803C0BCF1280F05D129
:1004900000F1080C08FA0CF8C2F8148091F803C0B7
:1004A000BCF1480F07D100F1080C4FF0010808FA21
:1004B0000CF8C2F81080401C0828CED35460BDE868
:1004C000F081416170470161704700BFFEE70000A5
:1004D00010B5044624B14FF400600C49086003E0F5
:1004E0004FF00060094908604FF4806007490860D8
:1004F00000F00EF84FF080600449086000F008F842
:100500004FF400600149086010BD0000100C01406C
:10051000002001E0411CC8B20A28FBDB7047000044
:1005200010B50121082000F007FD14200549C8700E
:100530004FF440600880032088700348FFF736FFBF
:1005400010BD00001C000020000C014070B500240C
:100550001CE04FF480600F490860FFF7D9FF0D4899
:1005600008380068C0F3C02040B10A480838006865
:10057000C0F3C020C4F107018840C5B24FF08060CD
:1005800004490860FFF7C4FF601CC4B2082CE0DB1C
:10059000284670BD100C014070B5054600241DE0D2
:1005A000C4F1070045FA00F000F0010020B14FF45B
:1005B00000600F49086003E04FF000600C490860DC
:1005C0004FF480600A490860FFF7A2FF4FF0806097
:1005D00007490860FFF79CFF601CC4B2082CDFDBF2
:1005E0004FF4006002490860FFF792FF70BD000001
:1005F000100C014010B54FF400600849086040102D
:100600000860FFF785FF4FF0006004490860FFF7BE
:100610007FFF4FF080600149086010BD100C014061
:1006200010B54FF0006006490860401008600014E3
:100630000860FFF76DFF4FF400600149086010BDCE
:10064000100C014010B54FF400600D490860FFF731
:100650005FFF4FF480600A490860FFF759FF0848C0
:1006600008380068C0F3C02008B1012400E000246D
:100670004FF0806002490860FFF74AFF204610BD36
:10068000100C014010B500F0AFFB10BD08B5002004
:1006900000900121042000F04FFC02211D48FFF7CB
:1006A00012FF0220ADF8000010208DF80300032097
:1006B0008DF8020069461748FFF778FE01210420F3
:1006C00000F03AFC04211348FFF7FDFE0420ADF8CA
:1006D000000010208DF8030003208DF80200694609
:1006E0000C48FFF763FE0121042000F025FC0821DF
:1006F0000848FFF7E8FE0820ADF8000010208DF84C
:10070000030003208DF8020069460248FFF74EFE01
:1007100008BD00000008014070B504460D4629469A
:100720002046FFF7D0FE70BD70B504460D46294641
:100730002046FFF7C6FE70BD00BFFEE77047000011
:1007400070B5002100230F22C47804B3154C24682F
:1007500004F4E064C4F5E064210AC1F10403CA4072
:10076000447804FA03F184781440214309010E4CC3
:100770000678A155047804F01F050124AC400578E3
:100780006D11AD0005F1E025C5F8004109E00478E0
:1007900004F01F050124AC40044D0678761145F89D
:1007A000264070BD0CED00E000E400E080E100E0D8
:1007B00002490143024A1160704700000000FA0537
:1007C0000CED00E02DE9F84F81460D4614461E461B
:1007D0000A9F2819401E00F0FF0AF019401EC0B2FF
:1007E0000090BAF1080F06DA0098802803DA012C8D
:1007F00001DB012F02DA36A000F0CEFEFFF7FAFE91
:100800007820FFF7C9FE00BFFFF71CFF0028FBD1CF
:10081000FFF7C2FE00BFFFF715FF0028FBD1222023
:10082000FFF7BAFE00BFFFF70DFF0028FBD12846F7
:10083000FFF7B2FE00BFFFF705FF0028FBD15046CF
:10084000FFF7AAFE00BFFFF7FDFE0028FBD1212025
:10085000FFF7A2FE00BFFFF7F5FE0028FBD13046F0
:10086000FFF79AFE00BFFFF7EDFE0028FBD10098CE
:10087000FFF792FE00BFFFF7E5FE0028FBD1FFF770
:10088000B9FE7820FFF788FE00BFFFF7DBFE0028E7
:10089000FBD14020FFF780FE00BFFFF7D3FE00280A
:1008A000FBD104FB07FB80460CE019F80800FFF7BA
:1008B00073FE00BFFFF7C6FE0028FBD108F1010060
:1008C0001FFA80F8D845F0DBFFF7AAFEBDE8F88FE5
:1008D0004F4C45445F44726177506963E68EA5E6EC
:1008E00094B6E588B0E99D9EE6B395E58F82E695DE
:1008F000B021000008B5802000230822194600908E
:100900000648FFF75FFF002004E00021044A11546D
:10091000411CC8B21028F8DB08BD000050040020BC
:100920005008002010B5FFF765FE7820FFF734FE71
:1009300000BFFFF787FE0028FBD1FFF72DFE00BFA9
:10094000FFF780FE0028FBD1AF20FFF725FE00BF98
:10095000FFF778FE0028FBD18120FFF71DFE00BFC6
:10096000FFF770FE0028FBD17F20FFF715FE00BFC8
:10097000FFF768FE0028FBD12020FFF70DFE00BF27
:10098000FFF760FE0028FBD10120FFF705FE00BF46
:10099000FFF758FE0028FBD12220FFF7FDFD00BF26
:1009A000FFF750FE0028FBD1FFF7F6FD00BFFFF771
:1009B00049FE0028FBD10720FFF7EEFD00BFFFF73F
:1009C00041FE0028FBD12120FFF7E6FD00BFFFF725
:1009D00039FE0028FBD1FFF7DFFD00BFFFF732FE35
:1009E0000028FBD17F20FFF7D7FD00BFFFF72AFECD
:1009F0000028FBD1A020FFF7CFFD00BFFFF722FEAC
:100A00000028FBD1C820FFF7C7FD00BFFFF71AFE83
:100A10000028FBD1D920FFF7BFFD00BFFFF712FE72
:100A20000028FBD12220FFF7B7FD00BFFFF70AFE29
:100A30000028FBD1DB20FFF7AFFD00BFFFF702FE70
:100A40000028FBD12020FFF7A7FD00BFFFF7FAFD2C
:100A50000028FBD18D20FFF79FFD00BFFFF7F2FDBF
:100A60000028FBD11420FFF797FD00BFFFF7EAFD38
:100A70000028FBD1AF20FFF78FFD00BFFFF7E2FD9D
:100A80000028FBD1FFF7B6FD7820FFF785FD00BFFA
:100A9000FFF7D8FD0028FBD14020FFF77DFD00BF08
:100AA000FFF7D0FD0028FBD14FF4806408E0002060
:100AB000FFF772FD00BFFFF7C5FD0028FBD1641EE4
:100AC000002CF4DCFFF7ACFD10BD00002DE9F04177
:100AD000FFF790FD7820FFF75FFD00BFFFF7B2FD45
:100AE0000028FBD1FFF758FD00BFFFF7ABFD002842
:100AF000FBD12220FFF750FD00BFFFF7A3FD002828
:100B0000FBD1FFF749FD00BFFFF79CFD0028FBD19B
:100B10000720FFF741FD00BFFFF794FD0028FBD140
:100B2000804600246FE03B48005D10B94FF000089C
:100B300067E000255FE03748005D802129410840DB
:100B400010B94FF0000854E005EBC400C6B2B8F18C
:100B5000000F3AD1FFF74EFD7820FFF71DFD00BFD3
:100B6000FFF770FD0028FBD1FFF716FD00BFFFF770
:100B700069FD0028FBD12120FFF70EFD00BFFFF724
:100B800061FD0028FBD13046FFF706FD00BFFFF7EF
:100B900059FD0028FBD17F20FFF7FEFC00BFFFF7C7
:100BA00051FD0028FBD1FFF725FD7820FFF7F4FC6D
:100BB00000BFFFF747FD0028FBD14020FFF7ECFC0A
:100BC00000BFFFF73FFD0028FBD100270CE007EB3B
:100BD000C601114A505CFFF7DFFC00BFFFF732FD92
:100BE0000028FBD1781CC7B2082FF0DB4FF00108BA
:100BF00000BF681CC5B2082D9DDB002005490855C3
:100C000000BF601CC4B2102C8DDBFFF709FDBDE8EE
:100C1000F0810000500800205004002010B5FFF7BC
:100C2000E9FCE620FFF7B8FC00BFFFF70BFD00284A
:100C3000FBD14320FFF7B0FC00BFFFF703FD002806
:100C4000FBD1FFF7D7FCE720FFF7A6FC00BFFFF7BB
:100C5000F9FC0028FBD1FFF779FC0020FFF738FCF6
:100C6000FFF774FC0120FFF733FCFFF7D9FC10BD40
:100C700010B5FFF7BFFCE620FFF78EFC00BFFFF7C3
:100C8000E1FC0028FBD1EF20FFF786FC00BFFFF757
:100C9000D9FC0028FBD1FFF77FFC00BFFFF7D2FC97
:100CA0000028FBD1002420E0FFF7A4FCE620FFF79A
:100CB00073FC00BFFFF7C6FC0028FBD11A4911F8EE
:100CC0001400FFF769FC00BFFFF7BCFC0028FBD154
:100CD000154901EB44014878FFF75EFC00BFFFF7C0
:100CE000B1FC0028FBD1601CC4B21E2CDCD3FFF782
:100CF00081FCE620FFF750FC00BFFFF7A3FC0028B3
:100D0000FBD1EF20FFF748FC00BFFFF79BFC00285A
:100D1000FBD1FFF741FC00BFFFF794FC0028FBD19B
:100D2000FFF77EFC10BD00000417000810B5FFF7A8
:100D300061FCE620FFF730FC00BFFFF783FC0028D2
:100D4000FBD1EF20FFF728FC00BFFFF77BFC00285A
:100D5000FBD1FFF721FC00BFFFF774FC0028FBD19B
:100D6000002420E0FFF746FCE620FFF715FC00BF5B
:100D7000FFF768FC0028FBD11A4911F81400FFF7AF
:100D80000BFC00BFFFF75EFC0028FBD1154901EB0F
:100D900044014878FFF700FC00BFFFF753FC002830
:100DA000FBD1601CC4B2332CDCD3FFF723FCE6205C
:100DB000FFF7F2FB00BFFFF745FC0028FBD1EF2057
:100DC000FFF7EAFB00BFFFF73DFC0028FBD1FFF770
:100DD000E3FB00BFFFF736FC0028FBD1FFF720FC48
:100DE00010BD00009E16000810B500F021F800F0BC
:100DF0005DF810B906A000F0CFFB0520FFF7E2F97F
:100E0000FFF794FF0520FFF7DDF9FFF731FF10BD75
:100E1000E6898BE58ABFE8AF86E588ABE6A8A1E561
:100E20009D97E594A4E98692E5A4B1E8B4A50000F5
:100E30001FB50121084600F07FF80121042000F0D1
:100E40007BF84FF4A060FFF7B3FC07210020FFF709
:100E50008DFA8020ADF80C0048208DF80F0003209B
:100E60008DF80E0003A91048FFF7A0FA802000902B
:100E70000C208DF8050000208DF8040001208DF86D
:100E800006006846FFF728FA17208DF808000120B1
:100E90008DF8090000208DF80A0001208DF80B0064
:100EA00002A8FFF74DFC1FBD0008014010B5FFF779
:100EB000A1FBE620FFF770FB0520FFF783F9FFF7A2
:100EC00099FBE620FFF768FB0520FFF77BF9FFF7AA
:100ED00091FBE620FFF760FB00BFFFF7B3FB0028A4
:100EE000FBD1EF20FFF758FB00BFFFF7ABFB00285B
:100EF000FBD1FFF751FB00BFFFF7A4FB0028FBD19C
:100F0000FFF74AFB00BFFFF79DFB0028FBD1FFF76F
:100F100071FBE720FFF740FB00BFFFF793FB0028C2
:100F2000FBD1FFF713FB04460120FFF7D1FAFFF7CF
:100F300077FB204610BD704729B1064A92690243EB
:100F4000044B9A6104E0034A92698243014B9A611F
:100F50007047000000100240704710B500F002F822
:100F600010BD00000CB500200190009033480068CF
:100F700040F480303149086000BF3048006800F418
:100F8000003000900198401C0190009818B9019819
:100F9000B0F5A06FF1D12948006800F4003010B11D
:100FA0000120009001E0002000900098012843D12A
:100FB0002348006840F01000214908600846006896
:100FC00020F0070008600846006840F00200086052
:100FD0001A48406819494860084640684860084611
:100FE000406840F4806048600846406820F47C1007
:100FF00048600846406840F4E810486008460068C9
:1010000040F08070086000BF0C48006800F000707D
:101010000028F9D00948406820F0030007494860DB
:101020000846406840F00200486000BF034840683E
:1010300000F00C000828F9D10CBD0000001002409F
:101040000020024010B500F093F810BD10B5134811
:10105000006840F0010011490860084640681049E6
:1010600008400E494860084600680E4908400B4990
:1010700008600846006820F4802008600846406840
:1010800020F4FE0048604FF41F008860FFF765FF02
:101090004FF000600449086010BD000000100240DD
:1010A0000000FFF8FFFFF6FE08ED00E030B516483F
:1010B00000684FF47A72B0FBF2F1B1F1807F01D396
:1010C00001201DE021F07F40401E4FF0E0225061E2
:1010D00050170F22002807DA13071D0E0B4B00F0E4
:1010E0000F04241F1D5503E013071C0E084B1C544E
:1010F00000BF00204FF0E022906107201061002027
:1011000008B100BFFEE730BD0000002018ED00E090
:1011100000E400E010B500F0DDF948F204000E49EB
:10112000C88448F28000888448F2040048810B4853
:101130000B49086001200B49087005200A49087016
:1011400007200A490870012403E000F095F800BF69
:10115000FEE7002CF9D110BD2404002039750E3DA6
:1011600014000020190000201A0000201B0000209D
:101170000448006820B103480068401E0149086027
:10118000704700002004002000BFFEE72DE9F04773
:1011900006460F4600210B460C4600200DE00121BB
:1011A0008140394001B906E02F4901EBC00206CA6F
:1011B0000B43144300BF411CC8B20A28EFDBC6F141
:1011C000130000EB8000173000F0FF0C012546E013
:1011D0000CEB0501C8B24FEAE07800EB58784FEA13
:1011E000E808DFF8889019F8088002464FEAE079AD
:1011F00000EB59794FEAE909A0EBC90A4FF08009E1
:1012000049FA0AF948EA090801464FEAE07900EB91
:1012100059794FEAE909DFF854A00AF8098014491E
:1012200001EBC00206CA4FF00F08DFF8489001EA50
:10123000080102EA0902DFF8388008EBC008C8E9B3
:1012400000120B4901EBC00206CA19432243DFF822
:10125000208008EBC008C8E90012681CC5B2042D44
:10126000B6DDBDE8F0870000101600085008002029
:1012700050040020000080FF2DE9F0418C480078E8
:1012800000F00100002860D08A480468002559E079
:101290000A20B4FBF0F100FB114601234BE01421BE
:1012A00001EB85011944C8B2C71700EB5777FF104F
:1012B000DFF804C21CF8077002464FEAE07C00EB3E
:1012C0005C7C4FEAEC0CA0EBCC084FF0800C4CFAA5
:1012D00008FC47EA0C0701464FEAE07C00EB5C7C27
:1012E0004FEAEC0CDFF8D08108F80C70734901EB81
:1012F000C001D1E900214FF0F84C41EA0C016F4FD9
:1013000007EBC007C7E9002106EB46016C4A0A4417
:10131000591E515C6FEA0161684F07EBC00CDCE9B4
:10132000007C3A4601EA0C01644F07EBC007C7E9AD
:101330000021581CC3B2032BB1DD0A20B4FBF0F42A
:10134000681CC5B2002CA3D100BF5948007800F03A
:101350000200002843D000233FE003F10C01C8B293
:10136000C41700EB5474E410534D2C5D0246C517AE
:1013700000EB5575ED10A0EBC506802535412C43DB
:101380000146C51700EB5575ED104B4E74554B4992
:1013900001EBC001D1E900216FF4FF552A40474C11
:1013A00004EBC004C4E90021444901EBC00130C989
:1013B0004449454A127801EB8201CA5C0021490187
:1013C00041EAD2615601344345EA01023B4901EB4F
:1013D000C001C1E90042581CC3B2042BBDDB344834
:1013E000007800F00400E0B300233FE003F10C01BB
:1013F000C8B2C41700EB5474E4102F4D2C5D0246A4
:10140000C51700EB5575ED10A0EBC50680253541DD
:101410002C430146C51700EB5575ED10264E74554B
:10142000264901EBC00206CA6FF0FF452940234C54
:1014300004EBC00406C4214901EBC00130C92149B5
:10144000224A127801EB8201C95C0022D20542EAED
:101450005122CE05344345EA0201184A02EBC0028C
:1014600000E005E0C2E90041581CC3B2042BBDDB1B
:10147000002417E0164830F8140000F4004000B9CA
:101480000EE0134830F814102046FFF77FFE104896
:1014900030F81400C0F30E000D4921F8140000BF0D
:1014A000601CC4B2142CE5DBFFF710FBBDE8F08133
:1014B0001B000020140000205008002050040020D1
:1014C0008016000860160008190000201A0000208D
:1014D000240400202DE9F041002422E000211E4ACE
:1014E00002EBC40211605160002516E005EBC40058
:1014F0001A490E5C0027EA0030463946FEF712FE14
:10150000154A02EBC402D2E9003218431143124AD1
:1015100002EBC40203C2681CC5B2082DE6DB601CE6
:10152000C4B2802CDADB002005E000210C4A22F84E
:101530001010411CC8B21428F7DB002009490860CC
:101540000949087009490870094908700949087073
:10155000FFF7D0F9BDE8F081500400202000002002
:101560002404002014000020190000201A0000208C
:10157000180000201B00002002E008C8121F08C14C
:10158000002AFAD170477047002001E001C1121F04
:10159000002AFBD17047000002210648FFF7C4F87B
:1015A00004210448FFF7B8F808210248FFF7B4F80F
:1015B00000BFFEE700080140FFF768F8FFF776FD7F
:1015C000FEF7AEFFFFF7AEF9FFF75CF800BF0221B0
:1015D0000E48FFF7A9F804210C48FFF7A5F80821E9
:1015E0000A48FFF7A1F86420FEF7ECFD0221074846
:1015F000FFF792F804210548FFF78EF80821034809
:10160000FFF78AF8FFF786FDE1E7000000080140D8
:10161000E001000000000000003C000000000000AD
:1016200000800700000000000000F0000000000043
:101630000000001E00000000000000C003000000C9
:10164000000000007800000000000000000F000013
:101650000000000000E001000000000000003C006D
:101660000000000000FFFF007E7E18183C3C3C3C60
:101670001E1E787878781E1E06067E7E60607E7E4E
:101680007C447C407C445C54747C54547C101C74BA
:10169000545C74547C7C04047C547C7C545CEF006B
:1016A00037073817390641004200462D470F483C9E
:1016B00049004A1E4C2051105E1060278042814430
:1016C00082048B019006950A960C97059A149C3F0C
:1016D000A519CC19CD0BCE13CF64D021EF01020F89
:1016E0000310040225012739287F29083EFF5E3DAB
:1016F0006596679769CD6A016D2C6E01720173352D
:1017000074007701EF0041004200EF00483C4900BF
:10171000511083209FF9EF01011E020F03100402F4
:1017200041404330659666006797680169CD6A015C
:101730006BB06C046D2C6E017400EF0041FF420130
:101740006017000800000020240400006801000861
:1017500008180008240400203C0800008815000830
:101760001184A24A04C00901020304060708090AF9
:1017700015FF012D43680F6D0828217B6B6F2D3CF1
:101780002060F543686F73BFEA7DE55F6B6F6D3F67
:101790002220F0439B6F6D7CB52DE5242D3F206901
:1017A000FB0810087FAA64E00FC03F2DBFA4ADFB6B
:1017B000082914A9083D3F8410C2203CF7D6DA104E
:1017C0003CF4D6C3203BF5D6300D163F84D0C390F1
:1017D000380913420821841042FE6955FFFFFE0FAD
:1017E0004C80FF0B080A16FE0809FD2809FD280990
:1017F000FD2819283BFBFF01480AFE1342082184FB
:081800001042FE0F89014100B6
:04000005080000ED02
:00000001FF
