:020000040800F2
:10000000680C002001010008A90600082704000868
:10001000A5060008BF0100088111000800000000CB
:10002000000000000000000000000000450F000874
:10003000C301000800000000230F00083110000871
:100040001B0100081B0100081B0100081B01000820
:100050001B0100081B0100081B0100081B01000810
:100060001B0100081B0100081B0100081B01000800
:100070001B0100081B0100081B0100081B010008F0
:100080001B0100081B0100081B0100081B010008E0
:100090001B0100081B0100081B010008DD0100080E
:1000A0001B0100081B0100081B0100081B010008C0
:1000B0001B0100081B0100081B0100081B010008B0
:1000C0001B0100081B0100081B0100081B010008A0
:1000D0001B0100081B0100081B0100081B01000890
:1000E0001B0100081B0100081B010008DFF80CD0F1
:1000F00000F028F80048004745170008680C002069
:100100000648804706480047FEE7FEE7FEE7FEE7B1
:10011000FEE7FEE7FEE7FEE7FEE7FEE73910000830
:10012000ED000008202A04DB203A00FA02F100204A
:1001300070479140C2F1200320FA03F31943904025
:1001400070470000064C074D06E0E06840F00103F0
:1001500094E8070098471034AC42F6D3FFF7CAFF83
:10016000D0180008F018000870B58C1810F8015B62
:1001700015F0070301D110F8013B2A1106D110F840
:10018000012B03E010F8016B01F8016B5B1EF9D144
:100190002B0705D40023521E0DD401F8013BFAE7CA
:1001A00010F8013BCB1A921C03E013F8015B01F835
:1001B000015B521EF9D5A142D8D3002070BD00BF0B
:1001C000FEE7704701B504490098086000BF024887
:1001D00000680028FBD108BD2404002010B5802051
:1001E00000F014F850B14FF4807000E0401E002879
:1001F000FCD1802000F004F800F024FD10BD0000C8
:1002000001490860704700001404014001460020C5
:100210000022074B1B6803EA0102054B14331B68DD
:100220000B4013B10AB1012000E00020704700002C
:1002300000040140002123498279002A3AD00A466D
:10024000126803689A430B461A600A1D1268036815
:100250009A430B1D1A60027911440A6803681A4315
:100260000A60184A0832126803689A43154B08332B
:100270001A601A1D126803689A43124B0C331A60F5
:100280004279102A0ED11A1F126803681A430D4BC7
:1002900008331A601A1D126803681A43094B0C339D
:1002A0001A600DE00749427911440A6803681A434D
:1002B0000A6005E0027911440A6803689A430A60FB
:1002C000704700000004014030B500228B071C0F6E
:1002D0000F2303FA04F20B4B8C1053F82430934392
:1002E000084C8D1044F8253023468C1053F82430E8
:1002F0008C07240F00FA04F42343024C8D1044F8B9
:10030000253030BD080001402DE9F04102460025AE
:100310000026002000230024002791F803C00CF0E1
:100320000F0591F803C00CF0100CBCF1000F03D0C6
:1003300091F802C04CEA050591F800C0BCF1000F2D
:1003400031D0146800202BE04FF0010C0CFA00F3C0
:10035000B1F800C00CEA03069E4220D183004FF0A2
:100360000F0C0CFA03F7BC4305FA03FC4CEA040437
:1003700091F803C0BCF1280F06D14FF0010C0CFA24
:1003800000FCC2F814C00AE091F803C0BCF1480FA9
:1003900005D14FF0010C0CFA00FCC2F810C0401C53
:1003A0000828D1D31460B1F800C0BCF1FF0F34DDD0
:1003B000546800202EE000F1080C4FF0010808FA04
:1003C0000CF3B1F800C00CEA03069E4221D1830071
:1003D0004FF00F0C0CFA03F7BC4305FA03FC4CEA90
:1003E000040491F803C0BCF1280F05D100F1080CFA
:1003F00008FA0CF8C2F8148091F803C0BCF1480F59
:1004000007D100F1080C4FF0010808FA0CF8C2F807
:100410001080401C0828CED35460BDE8F0814161B3
:1004200070470161704700BFFEE7000010B5044649
:1004300024B14FF400600C49086003E04FF0006005
:10044000094908604FF480600749086000F00EF821
:100450004FF080600449086000F008F84FF4006035
:100460000149086010BD0000100C0140002001E0AF
:10047000411CC8B20A28FBDB7047000010B50121FF
:10048000082000F04FFD14200549C8704FF440606B
:100490000880032088700348FFF736FF10BD000076
:1004A0001E000020000C014070B5002418E04FF43D
:1004B00080600D490860FFF7D9FF0B4808380068D5
:1004C000C0F3C02020B1C4F1070101208840C5B2AB
:1004D0004FF0806004490860FFF7C8FF601CC4B299
:1004E000082CE4DB284670BD100C014070B50546B1
:1004F00000241DE0C4F1070045FA00F000F00100FF
:1005000020B14FF400600F49086003E04FF0006035
:100510000C4908604FF480600A490860FFF7A6FFA5
:100520004FF0806007490860FFF7A0FF601CC4B26D
:10053000082CDFDB4FF4006002490860FFF796FFEC
:1005400070BD0000100C014010B54FF40060084968
:10055000086040100860FFF789FF4FF00060044911
:100560000860FFF783FF4FF080600149086010BD0D
:10057000100C014010B54FF00060064908604010B3
:10058000086000140860FFF771FF4FF40060014934
:10059000086010BD100C014010B54FF400600D490B
:1005A0000860FFF763FF4FF480600A490860FFF7B7
:1005B0005DFF084808380068C0F3C02008B1012476
:1005C00000E000244FF0806002490860FFF74EFF12
:1005D000204610BD100C01400020014908707047F2
:1005E0002804002010B500F0EBFB10BD0149087095
:1005F000704700002804002008B500200090012169
:10060000042000F08FFC02211D48FFF70AFF0220A2
:10061000ADF8000010208DF8030003208DF80200D3
:1006200069461748FFF770FE0121042000F07AFCAC
:1006300004211348FFF7F5FE0420ADF80000102058
:100640008DF8030003208DF8020069460C48FFF77F
:100650005BFE0121042000F065FC08210848FFF73B
:10066000E0FE0820ADF8000010208DF80300032004
:100670008DF8020069460248FFF746FE08BD0000FB
:100680000008014070B504460D4629462046FFF794
:10069000C8FE70BD70B504460D4629462046FFF7DA
:1006A000BEFE70BD00BFFEE77047000070B50021C0
:1006B00000230F22C47804B3154C246804F4E064CA
:1006C000C4F5E064210AC1F10403CA40447804FA85
:1006D00003F184781440214309010E4C0678A1559A
:1006E000047804F01F050124AC4005786D11AD00BD
:1006F00005F1E025C5F8004109E0047804F01F0584
:100700000124AC40044D0678761145F8264070BDB2
:100710000CED00E000E400E080E100E0024901436C
:10072000024A1160704700000000FA050CED00E07D
:100730002DE9F84F81460D4614461E460A9F28199A
:10074000401E00F0FF0AF019401EC0B20090BAF13E
:10075000080F06DA0098802803DA012C01DB012F4C
:1007600002DA36A000F0DEFFFFF7EEFE7820FFF79A
:10077000BDFE00BFFFF710FF0028FBD1FFF7B6FE5C
:1007800000BFFFF709FF0028FBD12220FFF7AEFED4
:1007900000BFFFF701FF0028FBD12846FFF7A6FEA8
:1007A00000BFFFF7F9FE0028FBD15046FFF79EFE81
:1007B00000BFFFF7F1FE0028FBD12120FFF796FED6
:1007C00000BFFFF7E9FE0028FBD13046FFF78EFEA1
:1007D00000BFFFF7E1FE0028FBD10098FFF786FE7F
:1007E00000BFFFF7D9FE0028FBD1FFF7ADFE782050
:1007F000FFF77CFE00BFFFF7CFFE0028FBD14020B3
:10080000FFF774FE00BFFFF7C7FE0028FBD104FB13
:1008100007FB80460CE019F80800FFF767FE00BFF1
:10082000FFF7BAFE0028FBD108F101001FFA80F89B
:10083000D845F0DBFFF79EFEBDE8F88F4F4C4544EE
:100840005F44726177506963E68EA5E694B6E588E9
:10085000B0E99D9EE6B395E58F82E695B021000054
:1008600008B5802000230822194600900648FFF7AB
:100870005FFF002004E00021044A1154411CC8B26B
:100880001028F8DB08BD000058040020580800209C
:1008900010B5FFF759FE7820FFF728FE00BFFFF7DD
:1008A0007BFE0028FBD1FFF721FE00BFFFF774FE9F
:1008B0000028FBD1AF20FFF719FE00BFFFF76CFE49
:1008C0000028FBD18120FFF711FE00BFFFF764FE77
:1008D0000028FBD17F20FFF709FE00BFFFF75CFE79
:1008E0000028FBD12020FFF701FE00BFFFF754FED8
:1008F0000028FBD10120FFF7F9FD00BFFFF74CFEF8
:100900000028FBD12220FFF7F1FD00BFFFF744FED6
:100910000028FBD1FFF7EAFD00BFFFF73DFE0028EE
:10092000FBD10720FFF7E2FD00BFFFF735FE0028EF
:10093000FBD12120FFF7DAFD00BFFFF72DFE0028D5
:10094000FBD1FFF7D3FD00BFFFF726FE0028FBD148
:100950007F20FFF7CBFD00BFFFF71EFE0028FBD175
:10096000A020FFF7C3FD00BFFFF716FE0028FBD154
:10097000C820FFF7BBFD00BFFFF70EFE0028FBD12C
:10098000D920FFF7B3FD00BFFFF706FE0028FBD11B
:100990002220FFF7ABFD00BFFFF7FEFD0028FBD1D3
:1009A000DB20FFF7A3FD00BFFFF7F6FD0028FBD11A
:1009B0002020FFF79BFD00BFFFF7EEFD0028FBD1D5
:1009C0008D20FFF793FD00BFFFF7E6FD0028FBD168
:1009D0001420FFF78BFD00BFFFF7DEFD0028FBD1E1
:1009E000AF20FFF783FD00BFFFF7D6FD0028FBD146
:1009F000FFF7AAFD7820FFF779FD00BFFFF7CCFDD8
:100A00000028FBD14020FFF771FD00BFFFF7C4FDB8
:100A10000028FBD14FF4806408E00020FFF766FD5A
:100A200000BFFFF7B9FD0028FBD1641E002CF4DCE9
:100A3000FFF7A0FD10BD00002DE9F041FFF784FD98
:100A40007820FFF753FD00BFFFF7A6FD0028FBD17C
:100A5000FFF74CFD00BFFFF79FFD0028FBD12220D0
:100A6000FFF744FD00BFFFF797FD0028FBD1FFF71C
:100A70003DFD00BFFFF790FD0028FBD10720FFF7E9
:100A800035FD00BFFFF788FD0028FBD1804600241C
:100A90006FE03B48005D10B94FF0000867E00025AB
:100AA0005FE03748005D80212941084010B94FF0D0
:100AB000000854E005EBC400C6B2B8F1000F3AD10B
:100AC000FFF742FD7820FFF711FD00BFFFF764FD3F
:100AD0000028FBD1FFF70AFD00BFFFF75DFD0028EE
:100AE000FBD12120FFF702FD00BFFFF755FD0028D5
:100AF000FBD13046FFF7FAFC00BFFFF74DFD0028A1
:100B0000FBD17F20FFF7F2FC00BFFFF745FD002877
:100B1000FBD1FFF719FD7820FFF7E8FC00BFFFF7D6
:100B20003BFD0028FBD14020FFF7E0FC00BFFFF7B2
:100B300033FD0028FBD100270CE007EBC601114A6A
:100B4000505CFFF7D3FC00BFFFF726FD0028FBD168
:100B5000781CC7B2082FF0DB4FF0010800BF681CFB
:100B6000C5B2082D9DDB00200549085500BF601C5B
:100B7000C4B2102C8DDBFFF7FDFCBDE8F081000056
:100B8000580800205804002010B5FFF7DDFCE620CF
:100B9000FFF7ACFC00BFFFF7FFFC0028FBD1EF2004
:100BA000FFF7A4FC00BFFFF7F7FC0028FBD1FFF71D
:100BB0009DFC00BFFFF7F0FC0028FBD1002420E0E3
:100BC000FFF7C2FCE620FFF791FC00BFFFF7E4FC53
:100BD0000028FBD11A4911F81400FFF787FC00BF69
:100BE000FFF7DAFC0028FBD1154901EB44014878F6
:100BF000FFF77CFC00BFFFF7CFFC0028FBD1601C97
:100C0000C4B21E2CDCD3FFF79FFCE620FFF76EFC7E
:100C100000BFFFF7C1FC0028FBD1EF20FFF766FC07
:100C200000BFFFF7B9FC0028FBD1FFF75FFC00BF56
:100C3000FFF7B2FC0028FBD1FFF79CFC10BD0000C1
:100C40009418000808B5FFF77FFCE620FFF74EFC7C
:100C500000BFFFF7A1FC0028FBD14320FFF746FCB3
:100C600000BFFFF799FC0028FBD1FFF76DFCE720E0
:100C7000FFF73CFC00BFFFF78FFC0028FBD1FFF71C
:100C800013FC8DF800000020FFF7D0FBFFF70CFCF1
:100C90000002C0B28DF801000120FFF7C7FBFFF78B
:100CA00069FC9DF800009DF8011040EA0120082829
:100CB00018D006DC012809D002280BD004281DD149
:100CC0000CE0402812D0802818D113E00320FFF751
:100CD0008DFC14E00220FFF789FC10E00520FFF7EF
:100CE00085FC0CE00420FFF781FC08E00620FFF7FC
:100CF0007DFC04E00720FFF779FC00E000BF00BFA7
:100D000008BD000010B5FFF71FFCE620FFF7EEFB63
:100D100000BFFFF741FC0028FBD1EF20FFF7E6FB07
:100D200000BFFFF739FC0028FBD1FFF7DFFB00BF56
:100D3000FFF732FC0028FBD1002420E0FFF704FC81
:100D4000E620FFF7D3FB00BFFFF726FC0028FBD10E
:100D50001A4911F81400FFF7C9FB00BFFFF71CFC8C
:100D60000028FBD1154901EB44014878FFF7BEFB91
:100D700000BFFFF711FC0028FBD1601CC4B2332C6C
:100D8000DCD3FFF7E1FBE620FFF7B0FB00BFFFF786
:100D900003FC0028FBD1EF20FFF7A8FB00BFFFF703
:100DA000FBFB0028FBD1FFF7A1FB00BFFFF7F4FB23
:100DB0000028FBD1FFF7DEFB10BD00002E18000855
:100DC00010B500F021F800F05DF810B906A000F0B1
:100DD000A9FC0520FFF7F6F9FFF794FF0520FFF7C0
:100DE000F1F9FFF7D1FE10BDE6898BE58ABFE8AFC8
:100DF00086E588ABE6A8A1E59D97E594A4E98692EF
:100E0000E5A4B1E8B4A500001FB50121084600F033
:100E100089F80121042000F085F84FF4A060FFF765
:100E20007DFC07210020FFF74FFA8020ADF80C0071
:100E300048208DF80F0003208DF80E0003A91048FC
:100E4000FFF762FA802000900C208DF8050000204A
:100E50008DF8040001208DF806006846FFF7EAF9D6
:100E600017208DF8080001208DF8090000208DF86A
:100E70000A0001208DF80B0002A8FFF717FC1FBD28
:100E80000008014010B5FFF75FFBE620FFF72EFBDF
:100E90000520FFF797F9FFF757FBE620FFF726FB42
:100EA0000520FFF78FF9FFF74FFBE620FFF71EFB4A
:100EB00000BFFFF771FB0028FBD1EF20FFF716FB07
:100EC00000BFFFF769FB0028FBD1FFF70FFB00BF56
:100ED000FFF762FB0028FBD1FFF736FBE620FFF7A8
:100EE00005FB00BFFFF758FB0028FBD1FFF7FEFA18
:100EF00000BFFFF751FB0028FBD1FFF725FBE720E0
:100F0000FFF7F4FA00BFFFF747FB0028FBD1FFF71C
:100F1000CBFA04460120FFF789FAFFF72BFB2046A6
:100F200010BD704729B1064A92690243044B9A6189
:100F300004E0034A92698243014B9A6170470000C2
:100F400000100240704710B500F002F810BD00001C
:100F50000CB50020019000903348006840F48030C8
:100F60003149086000BF3048006800F4003000904C
:100F70000198401C0190009818B90198B0F5A06F35
:100F8000F1D12948006800F4003010B10120009030
:100F900001E0002000900098012843D12348006818
:100FA00040F01000214908600846006820F0070062
:100FB00008600846006840F0020008601A4840686F
:100FC000194948600846406848600846406840F44F
:100FD000806048600846406820F47C1048600846FD
:100FE000406840F4E81048600846006840F08070AF
:100FF000086000BF0C48006800F000700028F9D0BD
:101000000948406820F003000749486008464068E6
:1010100040F00200486000BF0348406800F00C0048
:101020000828F9D10CBD0000001002400020024049
:1010300010B500F099F810BD10B51348006840F0E5
:1010400001001149086008464068104908400E49EF
:101050004860084600680E4908400B490860084689
:10106000006820F4802008600846406820F4FE00F4
:1010700048604FF41F008860FFF765FF4FF0006085
:101080000449086010BD0000001002400000FFF895
:10109000FFFFF6FE08ED00E030B5164800684FF49B
:1010A0007A72B0FBF2F1B1F1807F01D301201DE033
:1010B00021F07F40401E4FF0E022506150170F2278
:1010C000002807DA13071D0E0B4B00F00F04241F36
:1010D0001D5503E013071C0E084B1C5400BF0020D5
:1010E0004FF0E022906107201061002008B100BF9E
:1010F000FEE730BD0000002018ED00E000E400E055
:1011000010B500F0E3F948F204001149C88448F230
:101110008000888448F20400488100200D4908605E
:1011200001200D49087005200C49087007200C4962
:101130000870012408E000BF0A4800780028FBD0AE
:1011400000F01EFA00F094F8002CF4D110BD00005D
:101150002C04002014000020190000201A00002098
:101160001B000020280400200448006820B1034828
:101170000068401E014908607047000024040020F8
:1011800000BFFEE72DE9F04706460F4600210B465B
:101190000C4600200DE001218140394001B906E0F4
:1011A0002F4901EBC00206CA0B43144300BF411C88
:1011B000C8B20A28EFDBC6F1130000EB800017303D
:1011C00000F0FF0C012546E00CEB0501C8B24FEA28
:1011D000E07800EB58784FEAE808DFF8889019F8D3
:1011E000088002464FEAE07900EB59794FEAE909B5
:1011F000A0EBC90A4FF0800949FA0AF948EA090840
:1012000001464FEAE07900EB59794FEAE909DFF846
:1012100054A00AF80980144901EBC00206CA4FF035
:101220000F08DFF8489001EA080102EA0902DFF836
:10123000388008EBC008C8E900120B4901EBC00276
:1012400006CA19432243DFF8208008EBC008C8E92A
:101250000012681CC5B2042DB6DDBDE8F0870000A1
:10126000A01700085808002058040020000080FF44
:101270002DE9F0418C48007800F00100002860D092
:101280008A480468002559E00A20B4FBF0F100FB0D
:10129000114601234BE0142101EB85011944C8B22A
:1012A000C71700EB5777FF10DFF804C21CF8077070
:1012B00002464FEAE07C00EB5C7C4FEAEC0CA0EBD2
:1012C000CC084FF0800C4CFA08FC47EA0C070146AA
:1012D0004FEAE07C00EB5C7C4FEAEC0CDFF8D0815D
:1012E00008F80C70734901EBC001D1E900214FF0FF
:1012F000F84C41EA0C016F4F07EBC007C7E900212A
:1013000006EB46016C4A0A44591E515C6FEA0161C2
:10131000684F07EBC00CDCE9007C3A4601EA0C019F
:10132000644F07EBC007C7E90021581CC3B2032B69
:10133000B1DD0A20B4FBF0F4681CC5B2002CA3D1C7
:1013400000BF5948007800F00200002843D0002375
:101350003FE003F10C01C8B2C41700EB5474E41071
:10136000534D2C5D0246C51700EB5575ED10A0EBF3
:10137000C506802535412C430146C51700EB557540
:10138000ED104B4E74554B4901EBC001D1E90021E2
:101390006FF4FF552A40474C04EBC004C4E9002118
:1013A000444901EBC00130C94449454A127801EB78
:1013B0008201CA5C0021490141EAD26156013443ED
:1013C00045EA01023B4901EBC001C1E90042581C5A
:1013D000C3B2042BBDDB3448007800F00400E0B356
:1013E00000233FE003F10C01C8B2C41700EB5474B2
:1013F000E4102F4D2C5D0246C51700EB5575ED101E
:10140000A0EBC506802535412C430146C51700EBEE
:101410005575ED10264E7455264901EBC00206CADB
:101420006FF0FF452940234C04EBC00406C421495A
:1014300001EBC00130C92149224A127801EB820137
:10144000C95C0022D20542EA5122CE05344345EA66
:101450000201184A02EBC00200E005E0C2E90041C7
:10146000581CC3B2042BBDDB002417E0164830F82B
:10147000140000F4004000B90EE0134830F81410D6
:101480002046FFF77FFE104830F81400C0F30E002E
:101490000D4921F8140000BF601CC4B2142CE5DB18
:1014A000FFF7CAFABDE8F0811B00002014000020FD
:1014B000580800205804002010180008F0170008F1
:1014C000190000201A0000202C0400202DE9F04112
:1014D000002422E00020204A02EBC4021060506089
:1014E000002516E005EBC4001C490E5C0027EA004D
:1014F00030463946FEF716FE174A02EBC402D2E91F
:10150000003218431143144A02EBC40203C2681CA0
:10151000C5B2082DE6DB601CC4B2802CDADB0020EB
:1015200005E000210E4A22F81010411CC8B2142810
:10153000F7DB00200B4908600B4908700B49087065
:101540000B4908700B4908700B4908700B4908706B
:10155000FFF786F9BDE8F081580400202200002042
:101560002C04002014000020190000201A00002084
:10157000180000201B0000201D0000201C0000207F
:1015800010B558485849097830F8110040F4004027
:101590005449554A127821F81200084652490978F0
:1015A00030F8110051490A780121914088434D4992
:1015B0004D4A127821F812004D480078022806D0D2
:1015C00003281CD0042832D0052860D147E04648C3
:1015D0000078401C132803DA43480078401C00E0E0
:1015E00013204149087043490978481CC11700EB92
:1015F0005171C910A0EBC1013E4A117048E03A4850
:101600000078401E002803DD37480078401E00E0C7
:1016100000203549087037490978881DC11700EB4B
:101620005171C910A0EBC101324A117030E02F484E
:101630000078401E002803DD2C480078401E00E0A2
:1016400000202A4908702C490978881DC11700EB31
:101650005171C910A0EBC101274A117018E023484D
:101660000078401C092803DA20480078401C00E07C
:1016700009201E49087020490978481CC11700EB51
:101680005171C910A0EBC1011B4A117000E000BFED
:1016900000BFFEF7A1FF19480068401C1749086009
:1016A0001748007840F00700154908700D480E49AA
:1016B000097830F8110040F400410A480A4A1278CB
:1016C00020F812100849097830F8110007490A7803
:1016D00001219140084381B20248034A127820F860
:1016E000121010BD2C0400201D0000201C00002042
:1016F00028040020190000201A00002014000020F7
:101700001B00002002E008C8121F08C1002AFAD1FD
:1017100070477047002001E001C1121F002AFBD171
:101720007047000002210648FEF7B4FF0421044878
:10173000FEF7A8FF08210248FEF7A4FF00BFFEE75E
:1017400000080140FEF758FFFFF7A6FCFEF796FEE3
:10175000FFF79EF8FEF746FF00BF02210E48FEF796
:1017600099FF04210C48FEF795FF08210A48FEF76F
:1017700091FF6420FEF726FD02210748FEF782FF55
:1017800004210548FEF77EFF08210348FEF77AFF93
:10179000FFF7B6FCE1E70000000801400000000090
:1017A000E001000000000000003C0000000000001C
:1017B00000800700000000000000F00000000000B2
:1017C0000000001E00000000000000C00300000038
:1017D000000000007800000000000000000F000082
:1017E0000000000000E001000000000000003C00DC
:1017F0000000000000FFFF007E7E18183C3C3C3CCF
:101800001E1E787878781E1E06067E7E60607E7EBC
:101810007C447C407C445C54747C54547C101C7428
:10182000545C74547C7C04047C547C7C545CEF00D9
:1018300037073817390641004200462D470F483C0C
:1018400049004A1E4C2051105E106027804281449E
:1018500082048B019006950A960C97059A149C3F7A
:10186000A519CC19CD0BCE13CF64D021EF01020FF7
:101870000310040225012739287F29083EFF5E3D19
:101880006596679769CD6A016D2C6E01720173359B
:1018900074007701EF0041004200EF00483C49002E
:1018A000511083209FF9EF01011E020F0310040263
:1018B00041404330659666006797680169CD6A01CB
:1018C0006BB06C046D2C6E017400EF0041FF42019F
:1018D000F0180008000000202C0400006801000837
:1018E000981900082C0400203C0800001417000878
:1018F0001184A24A04E00901020304060708090A48
:1019000015FF012D43680F6D0828217B6B6F2D3C5F
:101910002060F543686F73BFEA7DE55F6B6F6D3FD5
:101920002220F0439B6F6D7CB52DE5242D3F20696F
:10193000FB0810087FAA64E00FC03F2DBFA4ADFBD9
:10194000082914A9083D3F8410C2203CF7D6DA10BC
:101950003CF4D6C3203BF5D6300D163F84D0C3905F
:10196000380913420821841042FE6955FFFFFE0F1B
:101970004C80FF0B080A16FE0809FD2809FD2809FE
:10198000FD2819283BFBFF01480AFE134208218469
:081990001042FE0F8901A100C5
:04000005080000ED02
:00000001FF
