:020000040800F2
:10000000680C00200101000809080008A704000886
:1000100005080008BF010008551400080000000092
:10002000000000000000000000000000C9100008EF
:1000300031020008000000006B100008B511000834
:100040001B0100081B0100081B0100081B01000820
:100050001B0100081B0100081B0100081B01000810
:100060001B0100081B0100081B0100081B01000800
:100070001B0100081B0100081B0100081B010008F0
:100080001B0100081B0100081B0100081B010008E0
:100090001B0100081B0100081B0100084D0200089D
:1000A0001B0100081B0100081B0100081B010008C0
:1000B000851200081B0100081B0100081B01000835
:1000C0001B0100081B0100081B0100081B010008A0
:1000D0001B0100081B0100081B0100081B01000890
:1000E0001B0100081B0100081B010008DFF80CD0F1
:1000F00000F028F8004800472D1A0008680C00207E
:100100000648804706480047FEE7FEE7FEE7FEE7B1
:10011000FEE7FEE7FEE7FEE7FEE7FEE7BD110008AB
:10012000ED000008202A04DB203A00FA02F100204A
:1001300070479140C2F1200320FA03F31943904025
:1001400070470000064C074D06E0E06840F00103F0
:1001500094E8070098471034AC42F6D3FFF7CAFF83
:10016000C01B0008E01B000870B58C1810F8015B7C
:1001700015F0070301D110F8013B2A1106D110F840
:10018000012B03E010F8016B01F8016B5B1EF9D144
:100190002B0705D40023521E0DD401F8013BFAE7CA
:1001A00010F8013BCB1A921C03E013F8015B01F835
:1001B000015B521EF9D5A142D8D3002070BD00BF0B
:1001C000FEE700B5012000F053FA00BD1FB506217F
:1001D000002000F0B9F84020ADF80C0048208DF860
:1001E0000F0003208DF80E0003A9104800F0CCF892
:1001F000402000900C208DF8050000208DF80400B0
:1002000001208DF80600684600F054F817208DF89C
:10021000080002208DF8090000208DF80A00012056
:100220008DF80B0002A800F0F1FA1FBD0008014094
:100230007047000001B504490098086000BF0248FB
:1002400000680028FBD108BD2404002010B58020E0
:1002500000F01CF820B1802000F012F800F0A2FDA0
:10026000402000F013F850B141F2240000E0401E9D
:100270000028FCD1402000F003F8FFF7A2FF10BDDA
:100280000149086070470000140401400146002045
:100290000022074B1B6803EA0102054B14331B685D
:1002A0000B4013B10AB1012000E0002070470000AC
:1002B00000040140002123498279002A3AD00A46ED
:1002C000126803689A430B461A600A1D1268036895
:1002D0009A430B1D1A60027911440A6803681A4395
:1002E0000A60184A0832126803689A43154B0833AB
:1002F0001A601A1D126803689A43124B0C331A6075
:100300004279102A0ED11A1F126803681A430D4B46
:1003100008331A601A1D126803681A43094B0C331C
:100320001A600DE00749427911440A6803681A43CC
:100330000A6005E0027911440A6803689A430A607A
:10034000704700000004014030B500228B071C0FED
:100350000F2303FA04F20B4B8C1053F82430934311
:10036000084C8D1044F8253023468C1053F8243067
:100370008C07240F00FA04F42343024C8D1044F838
:10038000253030BD080001402DE9F041024600252E
:100390000026002000230024002791F803C00CF061
:1003A0000F0591F803C00CF0100CBCF1000F03D046
:1003B00091F802C04CEA050591F800C0BCF1000FAD
:1003C00031D0146800202BE04FF0010C0CFA00F340
:1003D000B1F800C00CEA03069E4220D183004FF022
:1003E0000F0C0CFA03F7BC4305FA03FC4CEA0404B7
:1003F00091F803C0BCF1280F06D14FF0010C0CFAA4
:1004000000FCC2F814C00AE091F803C0BCF1480F28
:1004100005D14FF0010C0CFA00FCC2F810C0401CD2
:100420000828D1D31460B1F800C0BCF1FF0F34DD4F
:10043000546800202EE000F1080C4FF0010808FA83
:100440000CF3B1F800C00CEA03069E4221D18300F0
:100450004FF00F0C0CFA03F7BC4305FA03FC4CEA0F
:10046000040491F803C0BCF1280F05D100F1080C79
:1004700008FA0CF8C2F8148091F803C0BCF1480FD8
:1004800007D100F1080C4FF0010808FA0CF8C2F887
:100490001080401C0828CED35460BDE8F081416133
:1004A00070470161704700BFFEE7000010B50446C9
:1004B00024B14FF400600C49086003E04FF0006085
:1004C000094908604FF480600749086000F00EF8A1
:1004D0004FF080600449086000F008F84FF40060B5
:1004E0000149086010BD0000100C0140002001E02F
:1004F000411CC8B20A28FBDB7047000010B501217F
:10050000082000F0D1FD14200549C8704FF4406068
:100510000880032088700348FFF736FF10BD0000F5
:1005200020000020000C014070B5002418E04FF4BA
:1005300080600D490860FFF7D9FF0B480838006854
:10054000C0F3C02020B1C4F1070101208840C5B22A
:100550004FF0806004490860FFF7C8FF601CC4B218
:10056000082CE4DB284670BD100C014070B5054630
:1005700000241DE0C4F1070045FA00F000F001007E
:1005800020B14FF400600F49086003E04FF00060B5
:100590000C4908604FF480600A490860FFF7A6FF25
:1005A0004FF0806007490860FFF7A0FF601CC4B2ED
:1005B000082CDFDB4FF4006002490860FFF796FF6C
:1005C00070BD0000100C014010B54FF400600849E8
:1005D000086040100860FFF789FF4FF00060044991
:1005E0000860FFF783FF4FF080600149086010BD8D
:1005F000100C014010B54FF0006006490860401033
:10060000086000140860FFF771FF4FF400600149B3
:10061000086010BD100C014010B54FF400600D498A
:100620000860FFF763FF4FF480600A490860FFF736
:100630005DFF084808380068C0F3C02008B10124F5
:1006400000E000244FF0806002490860FFF74EFF91
:10065000204610BD100C0140002001490870704771
:100660002804002010B500F05BFCFFF7AFFD10BDC3
:1006700001490870704700002804002008B50020D8
:1006800000900121042000F00FFD02211D48FFF71A
:1006900008FF0220ADF8000010208DF803000320B1
:1006A0008DF8020069461748FFF76EFE012104200D
:1006B00000F0FAFC04211348FFF7F3FE0420ADF824
:1006C000000010208DF8030003208DF80200694619
:1006D0000C48FFF759FE0121042000F0E5FC082139
:1006E0000848FFF7DEFE0820ADF8000010208DF866
:1006F000030003208DF8020069460248FFF744FE1C
:1007000008BD00000008014070B504460D462946AA
:100710002046FFF7C6FE70BD70B504460D4629465B
:100720002046FFF7BCFE70BD10B52C4890F90000C4
:1007300000280ADD29480078401E40B22749087089
:1007400002212748FFF7E8FF0CE02448007848B969
:1007500022480078401E40B22049087002212048FB
:10076000FFF7D2FF1F4890F9000000280ADD1D485E
:100770000078401E40B21B49087004211848FFF75A
:10078000CBFF0CE01748007848B916480078401EA7
:1007900040B21449087004211148FFF7B5FF124810
:1007A00090F9000000280ADD0F480078401E40B292
:1007B0000D49087008210A48FFF7AEFF0CE00A480F
:1007C000007848B908480078401E40B206490870D1
:1007D00008210348FFF798FF10BD000029040020FE
:1007E000000801402A0400202B04002002200149B7
:1007F000087070472B0400200220014908707047E0
:100800002A04002000BFFEE77047000070B50021F9
:1008100000230F22C47804B3154C246804F4E06468
:10082000C4F5E064210AC1F10403CA40447804FA23
:1008300003F184781440214309010E4C0678A15538
:10084000047804F01F050124AC4005786D11AD005B
:1008500005F1E025C5F8004109E0047804F01F0522
:100860000124AC40044D0678761145F8264070BD51
:100870000CED00E000E400E080E100E0024901430B
:10088000024A1160704700000000FA050CED00E01C
:100890002DE9F84F81460D4614461E460A9F281939
:1008A000401E00F0FF0AF019401EC0B20090BAF1DD
:1008B000080F06DA0098802803DA012C01DB012FEB
:1008C00002DA36A001F0A2F8FFF77EFE7820FFF7EB
:1008D0004DFE00BFFFF7A0FE0028FBD1FFF746FE4C
:1008E00000BFFFF799FE0028FBD12220FFF73EFE54
:1008F00000BFFFF791FE0028FBD12846FFF736FE28
:1009000000BFFFF789FE0028FBD15046FFF72EFEFF
:1009100000BFFFF781FE0028FBD12120FFF726FE54
:1009200000BFFFF779FE0028FBD13046FFF71EFE1F
:1009300000BFFFF771FE0028FBD10098FFF716FEFD
:1009400000BFFFF769FE0028FBD1FFF73DFE7820CE
:10095000FFF70CFE00BFFFF75FFE0028FBD1402031
:10096000FFF704FE00BFFFF757FE0028FBD104FB92
:1009700007FB80460CE019F80800FFF7F7FD00BF01
:10098000FFF74AFE0028FBD108F101001FFA80F8AA
:10099000D845F0DBFFF72EFEBDE8F88F4F4C4544FD
:1009A0005F44726177506963E68EA5E694B6E58888
:1009B000B0E99D9EE6B395E58F82E695B0210000F3
:1009C00008B5802000230822194600900648FFF74A
:1009D0005FFF002004E00021044A1154411CC8B20A
:1009E0001028F8DB08BD000058040020580800203B
:1009F00010B5FFF7E9FD7820FFF7B8FD00BFFFF75E
:100A00000BFE0028FBD1FFF7B1FD00BFFFF704FE8E
:100A10000028FBD1AF20FFF7A9FD00BFFFF7FCFDC9
:100A20000028FBD18120FFF7A1FD00BFFFF7F4FDF7
:100A30000028FBD17F20FFF799FD00BFFFF7ECFDF9
:100A40000028FBD12020FFF791FD00BFFFF7E4FD58
:100A50000028FBD10120FFF789FD00BFFFF7DCFD77
:100A60000028FBD12220FFF781FD00BFFFF7D4FD56
:100A70000028FBD1FFF77AFD00BFFFF7CDFD00286E
:100A8000FBD10720FFF772FD00BFFFF7C5FD00286F
:100A9000FBD12120FFF76AFD00BFFFF7BDFD002855
:100AA000FBD1FFF763FD00BFFFF7B6FD0028FBD1C8
:100AB0007F20FFF75BFD00BFFFF7AEFD0028FBD1F5
:100AC000A020FFF753FD00BFFFF7A6FD0028FBD1D4
:100AD000C820FFF74BFD00BFFFF79EFD0028FBD1AC
:100AE000D920FFF743FD00BFFFF796FD0028FBD19B
:100AF0002220FFF73BFD00BFFFF78EFD0028FBD152
:100B0000DB20FFF733FD00BFFFF786FD0028FBD198
:100B10002020FFF72BFD00BFFFF77EFD0028FBD153
:100B20008D20FFF723FD00BFFFF776FD0028FBD1E6
:100B30001420FFF71BFD00BFFFF76EFD0028FBD15F
:100B4000AF20FFF713FD00BFFFF766FD0028FBD1C4
:100B5000FFF73AFD7820FFF709FD00BFFFF75CFDC6
:100B60000028FBD14020FFF701FD00BFFFF754FD37
:100B70000028FBD14FF4806408E00020FFF7F6FC6A
:100B800000BFFFF749FD0028FBD1641E002CF4DCF8
:100B9000FFF730FD10BD00002DE9F041FFF714FD17
:100BA0007820FFF7E3FC00BFFFF736FD0028FBD1FC
:100BB000FFF7DCFC00BFFFF72FFD0028FBD1222050
:100BC000FFF7D4FC00BFFFF727FD0028FBD1FFF79C
:100BD000CDFC00BFFFF720FD0028FBD10720FFF769
:100BE000C5FC00BFFFF718FD0028FBD1804600249C
:100BF0006FE03B48005D10B94FF0000867E000254A
:100C00005FE03748005D80212941084010B94FF06E
:100C1000000854E005EBC400C6B2B8F1000F3AD1A9
:100C2000FFF7D2FC7820FFF7A1FC00BFFFF7F4FC30
:100C30000028FBD1FFF79AFC00BFFFF7EDFC00286E
:100C4000FBD12120FFF792FC00BFFFF7E5FC002855
:100C5000FBD13046FFF78AFC00BFFFF7DDFC002820
:100C6000FBD17F20FFF782FC00BFFFF7D5FC0028F7
:100C7000FBD1FFF7A9FC7820FFF778FC00BFFFF756
:100C8000CBFC0028FBD14020FFF770FC00BFFFF732
:100C9000C3FC0028FBD100270CE007EBC601114A7A
:100CA000505CFFF763FC00BFFFF7B6FC0028FBD1E8
:100CB000781CC7B2082FF0DB4FF0010800BF681C9A
:100CC000C5B2082D9DDB00200549085500BF601CFA
:100CD000C4B2102C8DDBFFF78DFCBDE8F081000065
:100CE000580800205804002010B5FFF76DFCE620DE
:100CF000FFF73CFC00BFFFF78FFC0028FBD1EF2083
:100D0000FFF734FC00BFFFF787FC0028FBD1FFF79B
:100D10002DFC00BFFFF780FC0028FBD1002420E061
:100D2000FFF752FCE620FFF721FC00BFFFF774FC41
:100D30000028FBD11A4911F81400FFF717FC00BF77
:100D4000FFF76AFC0028FBD1154901EB4401487804
:100D5000FFF70CFC00BFFFF75FFC0028FBD1601C15
:100D6000C4B21E2CDCD3FFF72FFCE620FFF7FEFBFE
:100D700000BFFFF751FC0028FBD1EF20FFF7F6FB87
:100D800000BFFFF749FC0028FBD1FFF7EFFB00BFD6
:100D9000FFF742FC0028FBD1FFF72CFC10BD000040
:100DA000841B000808B5FFF70FFCE620FFF7DEFB09
:100DB00000BFFFF731FC0028FBD14320FFF7D6FB33
:100DC00000BFFFF729FC0028FBD1FFF7FDFBE72060
:100DD000FFF7CCFB00BFFFF71FFC0028FBD1FFF79C
:100DE000A3FB8DF800000020FFF760FBFFF79CFBE2
:100DF0000002C0B28DF801000120FFF757FBFFF79A
:100E0000F9FB9DF800009DF8011040EA0120082838
:100E100018D006DC012809D002280BD004281DD1E7
:100E20000CE0402812D0802818D113E00320FFF7EF
:100E30001FFC14E00220FFF71BFC10E00520FFF769
:100E400017FC0CE00420FFF713FC08E00620FFF776
:100E50000FFC04E00720FFF70BFC00E000BF00BF21
:100E600008BD000010B5FFF7AFFBE620FFF77EFBE3
:100E700000BFFFF7D1FB0028FBD1EF20FFF776FB87
:100E800000BFFFF7C9FB0028FBD1FFF76FFB00BFD6
:100E9000FFF7C2FB0028FBD1002420E0FFF794FB02
:100EA000E620FFF763FB00BFFFF7B6FB0028FBD18E
:100EB0001A4911F81400FFF759FB00BFFFF7ACFB0C
:100EC0000028FBD1154901EB44014878FFF74EFBA0
:100ED00000BFFFF7A1FB0028FBD1601CC4B2332C7C
:100EE000DCD3FFF771FBE620FFF740FB00BFFFF705
:100EF00093FB0028FBD1EF20FFF738FB00BFFFF783
:100F00008BFB0028FBD1FFF731FB00BFFFF784FB11
:100F10000028FBD1FFF76EFB10BD00001E1B000870
:100F200010B500F021F800F051F810B906A000F05B
:100F30006DFD0520FFF77EF9FFF794FF0520FFF711
:100F400079F9FFF7D1FE10BDE6898BE58ABFE8AFDE
:100F500086E588ABE6A8A1E59D97E594A4E986928D
:100F6000E5A4B1E8B4A500001FB507210020FFF7F4
:100F7000EBF98020ADF80C0028208DF80F0003203D
:100F80008DF80E0003A91048FFF7FEF980200090AD
:100F90000C208DF8050000208DF8040001208DF84C
:100FA00006006846FFF786F917208DF80800022032
:100FB0008DF8090000208DF80A0001208DF80B0043
:100FC00002A8FFF723FC1FBD0008014010B5FFF782
:100FD000FBFAE620FFF7CAFA0520FFF72BF9FFF727
:100FE000F3FAE620FFF7C2FA0520FFF723F9FFF72F
:100FF000EBFAE620FFF7BAFA00BFFFF70DFB002877
:10100000FBD1EF20FFF7B2FA00BFFFF705FB002886
:10101000FBD1FFF7ABFA00BFFFF7FEFA0028FBD1C8
:10102000FFF7D2FAE620FFF7A1FA00BFFFF7F4FAC4
:101030000028FBD1FFF79AFA00BFFFF7EDFA00286E
:10104000FBD1FFF7C1FAE720FFF790FA00BFFFF7E7
:10105000E3FA0028FBD1FFF767FA04460120FFF707
:1010600025FAFFF7C7FA204610BD704710B50121D9
:10107000084600F019F80121042000F015F84FF49B
:10108000A060FFF7FBFB10BD29B1064AD2690243FD
:10109000044BDA6104E0034AD2698243014BDA610E
:1010A000704700000010024029B1064A92690243CD
:1010B000044B9A6104E0034A92698243014B9A61AE
:1010C0007047000000100240704710B500F002F8B1
:1010D00010BD00000CB5002001900090334800685E
:1010E00040F480303149086000BF3048006800F4A7
:1010F000003000900198401C0190009818B90198A8
:10110000B0F5A06FF1D12948006800F4003010B1AB
:101110000120009001E0002000900098012843D1B8
:101120002348006840F01000214908600846006824
:1011300020F0070008600846006840F002000860E0
:101140001A4840681949486008464068486008469F
:10115000406840F4806048600846406820F47C1095
:1011600048600846406840F4E81048600846006857
:1011700040F08070086000BF0C48006800F000700C
:101180000028F9D00948406820F00300074948606A
:101190000846406840F00200486000BF03484068CD
:1011A00000F00C000828F9D10CBD0000001002402E
:1011B0000020024010B500F041F910BD10B51348F1
:1011C000006840F001001149086008464068104975
:1011D00008400E494860084600680E4908400B491F
:1011E00008600846006820F48020086008464068CF
:1011F00020F4FE0048604FF41F008860FFF765FF91
:101200004FF000600449086010BD0000001002406B
:101210000000FFF8FFFFF6FE08ED00E030B51648CD
:1012200000684FF47A72B0FBF2F1B1F1807F01D324
:1012300001201DE021F07F40401E4FF0E022506170
:1012400050170F22002807DA13071D0E0B4B00F072
:101250000F04241F1D5503E013071C0E084B1C54DC
:1012600000BF00204FF0E0229061072010610020B5
:1012700008B100BFFEE730BD0000002018ED00E01F
:1012800000E400E010B50121880700F040F800F00C
:1012900035F810BD1FB51C208DF80C0001208DF80D
:1012A0000D008DF80E008DF80F0003A8FFF7AEFAC1
:1012B00001210846FFF7E8FE40F2F310ADF8040004
:1012C00041F61F40ADF800000020ADF80600ADF873
:1012D00002008DF8080069464FF0804000F030F8B9
:1012E0000121880700F010F801221146900700F054
:1012F0001DF80121880700F00DF81FBD10B500F0A2
:101300008DF8FFF711FA10BDCA4302827047CA4335
:101310000282704721B1028842F00102028004E09B
:1013200002884FF6FE731A40028070471AB1838913
:101330000B43838102E083898B43838170470000E4
:10134000002202881D4B98420ED01D4B98420BD0B4
:10135000B0F1804F08D01B4B984205D01A4B9842F1
:1013600002D01A4B984204D14FF68F731A404B8823
:101370001A43174B984207D0164B984204D04FF6A9
:10138000FF431A40CB881A4302808B8883850B88E1
:1013900003850A4B98420BD0094B984208D00E4B5C
:1013A000984205D00D4B984202D00D4B984201D186
:1013B0000B7A03860123838270470000002C0140D2
:1013C000003401400004004000080040000C0040D0
:1013D0000010004000140040004001400044014063
:1013E0000048014010B500F0DBF901240FE006E0F1
:1013F0000848007818B100F033FA00F0A3F8064866
:1014000000780028F4D100F09DF8FFF7EFF9002CE8
:10141000EDD110BD280400201C00002005480078F4
:10142000401C0549097890FBF1F201FB12000149CB
:10143000087070471C0000201D0000200448006850
:1014400020B103480068401E014908607047000051
:101450002404002000BFFEE72DE9F04706460F46B2
:1014600000210B460C4600200DE00121814039404F
:1014700001B906E02F4901EBC00206CA0B43144331
:1014800000BF411CC8B20A28EFDBC6F1130000EB15
:101490008000173000F0FF0C012546E00CEB050141
:1014A000C8B24FEAE07800EB58784FEAE808DFF876
:1014B000889019F8088002464FEAE07900EB5979E4
:1014C0004FEAE909A0EBC90A4FF0800949FA0AF985
:1014D00048EA090801464FEAE07900EB59794FEAFA
:1014E000E909DFF854A00AF80980144901EBC002A9
:1014F00006CA4FF00F08DFF8489001EA080102EA37
:101500000902DFF8388008EBC008C8E900120B496F
:1015100001EBC00206CA19432243DFF8208008EB22
:10152000C008C8E90012681CC5B2042DB6DDBDE8CC
:10153000F0870000901A0008580800205804002086
:10154000000080FF2DE9F0418C48007800F0010098
:10155000002860D08A480468002559E00A20B4FBBE
:10156000F0F100FB114601234BE0142101EB850152
:101570001944C8B2C71700EB5777FF10DFF804C251
:101580001CF8077002464FEAE07C00EB5C7C4FEAF7
:10159000EC0CA0EBCC084FF0800C4CFA08FC47EAAE
:1015A0000C0701464FEAE07C00EB5C7C4FEAEC0C58
:1015B000DFF8D08108F80C70734901EBC001D1E964
:1015C00000214FF0F84C41EA0C016F4F07EBC007C8
:1015D000C7E9002106EB46016C4A0A44591E515CDA
:1015E0006FEA0161684F07EBC00CDCE9007C3A460A
:1015F00001EA0C01644F07EBC007C7E90021581C42
:10160000C3B2032BB1DD0A20B4FBF0F4681CC5B2F1
:10161000002CA3D100BF5948007800F00200002838
:1016200043D000233FE003F10C01C8B2C41700EB24
:101630005474E410534D2C5D0246C51700EB5575EC
:10164000ED10A0EBC506802535412C430146C5179A
:1016500000EB5575ED104B4E74554B4901EBC00135
:10166000D1E900216FF4FF552A40474C04EBC00438
:10167000C4E90021444901EBC00130C94449454A4D
:10168000127801EB8201CA5C0021490141EAD26172
:101690005601344345EA01023B4901EBC001C1E96F
:1016A0000042581CC3B2042BBDDB3448007800F064
:1016B0000400E0B300233FE003F10C01C8B2C417FB
:1016C00000EB5474E4102F4D2C5D0246C51700EB5F
:1016D0005575ED10A0EBC506802535412C4301461C
:1016E000C51700EB5575ED10264E7455264901EBD4
:1016F000C00206CA6FF0FF452940234C04EBC0042A
:1017000006C4214901EBC00130C92149224A12789F
:1017100001EB8201C95C0022D20542EA5122CE05CA
:10172000344345EA0201184A02EBC00200E005E03A
:10173000C2E90041581CC3B2042BBDDB002417E0F2
:10174000164830F8140000F4004000B90EE01348C9
:1017500030F814102046FFF77FFE104830F81400D0
:10176000C0F30E000D4921F8140000BF601CC4B284
:10177000142CE5DBFFF710FABDE8F0811B00002018
:10178000140000205808002058040020001B000806
:10179000E01A0008190000201A0000202C04002084
:1017A0002DE9F041002421E00020224A02EBC4028E
:1017B00010605060002515E005EBC4001E490E5C6A
:1017C0000027EA0030463946FEF7ACFC194A02EB26
:1017D000C4030CCB10431943164A02EBC40203C2E4
:1017E000681CC5B2082DE7DB601CC4B2802CDBDBB3
:1017F000002005E00021114A22F81010411CC8B257
:101800001428F7DB00200E4908600E4908700E49C5
:1018100008700E4908700E49087001200D490870C3
:1018200000200D4908700D490870FFF7C9F8BDE8A0
:10183000F081000058040020240000202C04002027
:1018400014000020190000201A00002018000020B9
:101850001B0000201C0000201F0000201E00002094
:1018600010B55A485A49097830F8110040F4004040
:101870005649574A127821F8120008465449097807
:1018800030F8110053490A780121914088434F49AB
:101890004F4A127821F8120001244F48007802289C
:1018A00006D003281CD0042832D0052860D147E098
:1018B00047480078401C132803DA45480078401C4C
:1018C00000E013204249087044490978481CC117B8
:1018D00000EB5171C910A0EBC101404A117049E001
:1018E0003B480078401E002803DD39480078401E40
:1018F00000E000203649087038490978C81DC11732
:1019000000EB5171C910A0EBC101344A117031E0F4
:1019100030480078401E002803DD2E480078401E25
:1019200000E000202B4908702D490978C81DC11717
:1019300000EB5171C910A0EBC101294A117019E0E7
:1019400024480078401C092803DA22480078401C0B
:1019500000E009201F49087021490978481CC11777
:1019600000EB5171C910A0EBC1011D4A117001E0DB
:10197000002400BF00BFFEF76FFE0CB1FEF73CFF76
:1019800018480068401C174908601748007840F064
:101990000700154908700D480D49097830F8110005
:1019A00040F4004109480A4A127820F81210084908
:1019B000097830F8110007490A780121914008435D
:1019C0000249034A127821F8120010BD2C040020AD
:1019D0001F0000201E000020280400201900002005
:1019E0001A000020140000201B00002002E008C89C
:1019F000121F08C1002AFAD170477047002001E089
:101A000001C1121F002AFBD17047000002210648C5
:101A1000FEF782FE04210448FEF776FE0821024804
:101A2000FEF772FE00BFFEE700080140FFF71EFB55
:101A3000FEF724FEFFF72EFCFFF7F0FBFEF75EFD3E
:101A4000FEF7D6FFFEF70EFE00BF02210E48FEF79E
:101A500063FE04210C48FEF75FFE08210A48FEF7EA
:101A60005BFE6420FEF7E6FB02210748FEF74CFE12
:101A700004210548FEF748FE08210348FEF744FE0E
:101A8000FFF7B0FCE1E700000008014000000000A3
:101A9000E001000000000000003C00000000000029
:101AA00000800700000000000000F00000000000BF
:101AB0000000001E00000000000000C00300000045
:101AC000000000007800000000000000000F00008F
:101AD0000000000000E001000000000000003C00E9
:101AE0000000000000FFFF007E7E18183C3C3C3CDC
:101AF0001E1E787878781E1E06067E7E60607E7ECA
:101B00007C447C407C445C54747C54547C101C7435
:101B1000545C74547C7C04047C547C7C545CEF00E6
:101B200037073817390641004200462D470F483C19
:101B300049004A1E4C2051105E10602780428144AB
:101B400082048B019006950A960C97059A149C3F87
:101B5000A519CC19CD0BCE13CF64D021EF01020F04
:101B60000310040225012739287F29083EFF5E3D26
:101B70006596679769CD6A016D2C6E0172017335A8
:101B800074007701EF0041004200EF00483C49003B
:101B9000511083209FF9EF01011E020F0310040270
:101BA00041404330659666006797680169CD6A01D8
:101BB0006BB06C046D2C6E017400EF0041FF4201AC
:101BC000E01B0008000000202C0400006801000851
:101BD0008C1C00082C0400203C080000FC190008A4
:101BE0001184A24A0490090102030406070809624D
:101BF000140A15FF012D43680F6D0828217B6B6FB8
:101C00002D3C2060F543686F73BFEA7DE55F6B6F25
:101C10006D3F2220F0439B6F6D7CB52DE5242D3F59
:101C20002069FB0810087FAA64E00FC03F2DBFA405
:101C3000ADFB082914A9083D3F8410C2203CF7D60B
:101C4000DA103CF4D6C3203BF5D6300D163F84D0D5
:101C5000C390380913420821841042FE6955FFFFE2
:101C6000FE0F4C80FF0B080A16FE0809FD2809FD2F
:101C70002809FD2819283BFBFF01480AFE134208EA
:0C1C800021841042FE0F89018100000049
:04000005080000ED02
:00000001FF
