:020000040800F2
:10000000680C00200101000815080008AB04000876
:1000100011080008BF0100086D140008000000006E
:10002000000000000000000000000000DD100008DB
:1000300035020008000000007F100008C911000808
:100040001B0100081B0100081B0100081B01000820
:100050001B0100081B0100081B0100081B01000810
:100060001B0100081B0100081B0100081B01000800
:100070001B0100081B0100081B0100081B010008F0
:100080001B0100081B0100081B0100081B010008E0
:100090001B0100081B0100081B0100085102000899
:1000A0001B0100081B0100081B0100081B010008C0
:1000B000991200081B0100081B0100081B01000821
:1000C0001B0100081B0100081B0100081B010008A0
:1000D0001B0100081B0100081B0100081B01000890
:1000E0001B0100081B0100081B010008DFF80CD0F1
:1000F00000F028F8004800473D1A0008680C00206E
:100100000648804706480047FEE7FEE7FEE7FEE7B1
:10011000FEE7FEE7FEE7FEE7FEE7FEE7D111000897
:10012000ED000008202A04DB203A00FA02F100204A
:1001300070479140C2F1200320FA03F31943904025
:1001400070470000064C074D06E0E06840F00103F0
:1001500094E8070098471034AC42F6D3FFF7CAFF83
:10016000D01B0008F01B000870B58C1810F8015B5C
:1001700015F0070301D110F8013B2A1106D110F840
:10018000012B03E010F8016B01F8016B5B1EF9D144
:100190002B0705D40023521E0DD401F8013BFAE7CA
:1001A00010F8013BCB1A921C03E013F8015B01F835
:1001B000015B521EF9D5A142D8D3002070BD00BF0B
:1001C000FEE7000001200149087070472904002063
:1001D0001FB50621002000F0B9F84020ADF80C0052
:1001E00048208DF80F0003208DF80E0003A9104859
:1001F00000F0CCF8402000900C208DF80500002085
:100200008DF8040001208DF80600684600F054F8CF
:1002100017208DF8080002208DF8090000208DF8C5
:100220000A0001208DF80B0002A800F0F5FA1FBDAE
:10023000000801407047000001B5044900980860BB
:1002400000BF024800680028FBD108BD240400203C
:1002500010B5802000F01CF820B1802000F012F8CA
:1002600000F004FE402000F013F850B141F22400E9
:1002700000E0401E0028FCD1402000F003F8FFF70A
:10028000A1FF10BD0149086070470000140401403F
:10029000014600200022074B1B6803EA0102054BC0
:1002A00014331B680B4013B10AB1012000E0002099
:1002B0007047000000040140002123498279002A90
:1002C0003AD00A46126803689A430B461A600A1D20
:1002D000126803689A430B1D1A60027911440A6878
:1002E00003681A430A60184A0832126803689A437E
:1002F000154B08331A601A1D126803689A43124B93
:100300000C331A604279102A0ED11A1F1268036842
:100310001A430D4B08331A601A1D126803681A43FA
:10032000094B0C331A600DE00749427911440A6801
:1003300003681A430A6005E0027911440A680368F9
:100340009A430A60704700000004014030B5002263
:100350008B071C0F0F2303FA04F20B4B8C1053F87E
:1003600024309343084C8D1044F8253023468C10DC
:1003700053F824308C07240F00FA04F42343024C72
:100380008D1044F8253030BD080001402DE9F041C2
:10039000024600250026002000230024002791F8B3
:1003A00003C00CF00F0591F803C00CF0100CBCF169
:1003B000000F03D091F802C04CEA050591F800C087
:1003C000BCF1000F31D0146800202BE04FF0010C7D
:1003D0000CFA00F3B1F800C00CEA03069E4220D1EB
:1003E00083004FF00F0C0CFA03F7BC4305FA03FC33
:1003F0004CEA040491F803C0BCF1280F06D14FF079
:10040000010C0CFA00FCC2F814C00AE091F803C019
:10041000BCF1480F05D14FF0010C0CFA00FCC2F8FA
:1004200010C0401C0828D1D31460B1F800C0BCF142
:10043000FF0F34DD546800202EE000F1080C4FF06F
:10044000010808FA0CF3B1F800C00CEA03069E425A
:1004500021D183004FF00F0C0CFA03F7BC4305FACF
:1004600003FC4CEA040491F803C0BCF1280F05D149
:1004700000F1080C08FA0CF8C2F8148091F803C0D7
:10048000BCF1480F07D100F1080C4FF0010808FA41
:100490000CF8C2F81080401C0828CED35460BDE888
:1004A000F081416170470161704700BFFEE70000C5
:1004B00010B5044624B14FF400600C49086003E015
:1004C0004FF00060094908604FF4806007490860F8
:1004D00000F00EF84FF080600449086000F008F862
:1004E0004FF400600149086010BD0000100C01408D
:1004F000002001E0411CC8B20A28FBDB7047000065
:1005000010B50121082000F0D9FD14200549C8705C
:100510004FF440600880032088700348FFF736FFDF
:1005200010BD000020000020000C014070B5002428
:1005300018E04FF480600D490860FFF7D9FF0B48C1
:1005400008380068C0F3C02020B1C4F107010120C1
:100550008840C5B24FF0806004490860FFF7C8FFCB
:10056000601CC4B2082CE4DB284670BD100C0140AE
:1005700070B5054600241DE0C4F1070045FA00F0FF
:1005800000F0010020B14FF400600F49086003E063
:100590004FF000600C4908604FF480600A49086021
:1005A000FFF7A6FF4FF0806007490860FFF7A0FF44
:1005B000601CC4B2082CDFDB4FF400600249086005
:1005C000FFF796FF70BD0000100C014010B54FF40E
:1005D00000600849086040100860FFF789FF4FF08D
:1005E000006004490860FFF783FF4FF08060014915
:1005F000086010BD100C014010B54FF000600649B6
:1006000008604010086000140860FFF771FF4FF4A5
:1006100000600149086010BD100C014010B54FF496
:1006200000600D490860FFF763FF4FF480600A49DE
:100630000860FFF75DFF084808380068C0F3C02075
:1006400008B1012400E000244FF0806002490860F6
:10065000FFF74EFF204610BD100C014010B500F012
:1006600069FCFFF7B5FD10BD10B500F0A1FB044615
:1006700034B90448007818B10124002001490870F9
:10068000204610BD2904002008B50020009001215B
:10069000042000F013FD02211D48FFF704FF022093
:1006A000ADF8000010208DF8030003208DF8020043
:1006B00069461748FFF76AFE0121042000F0FEFC9E
:1006C00004211348FFF7EFFE0420ADF800001020CE
:1006D0008DF8030003208DF8020069460C48FFF7EF
:1006E00055FE0121042000F0E9FC08210848FFF72D
:1006F000DAFE0820ADF8000010208DF8030003207A
:100700008DF8020069460248FFF740FE08BD000070
:100710000008014070B504460D4629462046FFF703
:10072000C2FE70BD70B504460D4629462046FFF74F
:10073000B8FE70BD10B52C4890F9000000280ADD05
:1007400029480078401E40B22749087002212748F6
:10075000FFF7E8FF0CE02448007848B92248007809
:10076000401E40B22049087002212048FFF7D2FF06
:100770001F4890F9000000280ADD1D480078401E3F
:1007800040B21B49087004211848FFF7CBFF0CE06A
:100790001748007848B916480078401E40B21449FE
:1007A000087004211148FFF7B5FF124890F90000C6
:1007B00000280ADD0F480078401E40B20D4908703D
:1007C00008210A48FFF7AEFF0CE00A48007848B954
:1007D00008480078401E40B20649087008210348C6
:1007E000FFF798FF10BD00002A0400200008014018
:1007F0002B0400202C0400200220014908707047BF
:100800002C04002002200149087070472B040020AE
:1008100000BFFEE77047000070B5002100230F22E3
:10082000C47804B3154C246804F4E064C4F5E064AF
:10083000210AC1F10403CA40447804FA03F1847820
:100840001440214309010E4C0678A155047804F0A8
:100850001F050124AC4005786D11AD0005F1E025C0
:10086000C5F8004109E0047804F01F050124AC40FC
:10087000044D0678761145F8264070BD0CED00E079
:1008800000E400E080E100E002490143024A116017
:10089000704700000000FA050CED00E02DE9F84F6C
:1008A00081460D4614461E460A9F2819401E00F038
:1008B000FF0AF019401EC0B20090BAF1080F06DA24
:1008C0000098802803DA012C01DB012F02DA36A020
:1008D00001F0A4F8FFF77AFE7820FFF749FE00BF89
:1008E000FFF79CFE0028FBD1FFF742FE00BFFFF799
:1008F00095FE0028FBD12220FFF73AFE00BFFFF74C
:100900008DFE0028FBD12846FFF732FE00BFFFF71F
:1009100085FE0028FBD15046FFF72AFE00BFFFF7F7
:100920007DFE0028FBD12120FFF722FE00BFFFF74C
:1009300075FE0028FBD13046FFF71AFE00BFFFF717
:100940006DFE0028FBD10098FFF712FE00BFFFF7F5
:1009500065FE0028FBD1FFF739FE7820FFF708FE7F
:1009600000BFFFF75BFE0028FBD14020FFF700FE31
:1009700000BFFFF753FE0028FBD104FB07FB8046B6
:100980000CE019F80800FFF7F3FD00BFFFF746FE83
:100990000028FBD108F101001FFA80F8D845F0DBF0
:1009A000FFF72AFEBDE8F88F4F4C45445F44726163
:1009B00077506963E68EA5E694B6E588B0E99D9E1A
:1009C000E6B395E58F82E695B021000008B580205A
:1009D00000230822194600900648FFF75FFF002019
:1009E00004E00021044A1154411CC8B21028F8DB6D
:1009F00008BD0000580400205808002010B5FFF77B
:100A0000E5FD7820FFF7B4FD00BFFFF707FE0028E3
:100A1000FBD1FFF7ADFD00BFFFF700FE0028FBD1C3
:100A2000AF20FFF7A5FD00BFFFF7F8FD0028FBD1C1
:100A30008120FFF79DFD00BFFFF7F0FD0028FBD1EF
:100A40007F20FFF795FD00BFFFF7E8FD0028FBD1F1
:100A50002020FFF78DFD00BFFFF7E0FD0028FBD150
:100A60000120FFF785FD00BFFFF7D8FD0028FBD16F
:100A70002220FFF77DFD00BFFFF7D0FD0028FBD14E
:100A8000FFF776FD00BFFFF7C9FD0028FBD1072067
:100A9000FFF76EFD00BFFFF7C1FD0028FBD121204D
:100AA000FFF766FD00BFFFF7B9FD0028FBD1FFF798
:100AB0005FFD00BFFFF7B2FD0028FBD17F20FFF7ED
:100AC00057FD00BFFFF7AAFD0028FBD1A020FFF7CC
:100AD0004FFD00BFFFF7A2FD0028FBD1C820FFF7A4
:100AE00047FD00BFFFF79AFD0028FBD1D920FFF793
:100AF0003FFD00BFFFF792FD0028FBD12220FFF74A
:100B000037FD00BFFFF78AFD0028FBD1DB20FFF790
:100B10002FFD00BFFFF782FD0028FBD12020FFF74B
:100B200027FD00BFFFF77AFD0028FBD18D20FFF7DE
:100B30001FFD00BFFFF772FD0028FBD11420FFF757
:100B400017FD00BFFFF76AFD0028FBD1AF20FFF7BC
:100B50000FFD00BFFFF762FD0028FBD1FFF736FD58
:100B60007820FFF705FD00BFFFF758FD0028FBD1F7
:100B70004020FFF7FDFC00BFFFF750FD0028FBD130
:100B80004FF4806408E00020FFF7F2FC00BFFFF79D
:100B900045FD0028FBD1641E002CF4DCFFF72CFD82
:100BA00010BD00002DE9F041FFF710FD7820FFF7A0
:100BB000DFFC00BFFFF732FD0028FBD1FFF7D8FCB8
:100BC00000BFFFF72BFD0028FBD12220FFF7D0FC50
:100BD00000BFFFF723FD0028FBD1FFF7C9FC00BFD2
:100BE000FFF71CFD0028FBD10720FFF7C1FC00BF69
:100BF000FFF714FD0028FBD1804600246FE03B483E
:100C0000005D10B94FF0000867E000255FE037484D
:100C1000005D80212941084010B94FF0000854E0E0
:100C200005EBC400C6B2B8F1000F3AD1FFF7CEFC15
:100C30007820FFF79DFC00BFFFF7F0FC0028FBD1F8
:100C4000FFF796FC00BFFFF7E9FC0028FBD121204D
:100C5000FFF78EFC00BFFFF7E1FC0028FBD1304618
:100C6000FFF786FC00BFFFF7D9FC0028FBD17F20EF
:100C7000FFF77EFC00BFFFF7D1FC0028FBD1FFF798
:100C8000A5FC7820FFF774FC00BFFFF7C7FC002825
:100C9000FBD14020FFF76CFC00BFFFF7BFFC002832
:100CA000FBD100270CE007EBC601114A505CFFF7AF
:100CB0005FFC00BFFFF7B2FC0028FBD1781CC7B275
:100CC000082FF0DB4FF0010800BF681CC5B2082DEB
:100CD0009DDB00200549085500BF601CC4B2102CE4
:100CE0008DDBFFF789FCBDE8F0810000580800208B
:100CF0005804002010B5FFF769FCE620FFF738FC28
:100D000000BFFFF78BFC0028FBD1EF20FFF730FC82
:100D100000BFFFF783FC0028FBD1FFF729FC00BFD1
:100D2000FFF77CFC0028FBD1002420E0FFF74EFCFD
:100D3000E620FFF71DFC00BFFFF770FC0028FBD189
:100D40001A4911F81400FFF713FC00BFFFF766FC07
:100D50000028FBD1154901EB44014878FFF708FC56
:100D600000BFFFF75BFC0028FBD1601CC4B21E2C47
:100D7000DCD3FFF72BFCE620FFF7FAFB00BFFFF701
:100D80004DFC0028FBD1EF20FFF7F2FB00BFFFF77F
:100D900045FC0028FBD1FFF7EBFB00BFFFF73EFC53
:100DA0000028FBD1FFF728FC10BD0000941B0008B1
:100DB00008B52D48007808B9002008BD00202A4950
:100DC0000870FFF703FCE620FFF7D2FB00BFFFF738
:100DD00025FC0028FBD14320FFF7CAFB00BFFFF72B
:100DE0001DFC0028FBD1FFF7F1FBE720FFF7C0FB5C
:100DF00000BFFFF713FC0028FBD1FFF797FB8DF82E
:100E000000000020FFF754FBFFF790FB0002C0B288
:100E10008DF801000120FFF74BFBFFF7EDFB9DF87C
:100E200000009DF8011040EA0120082812D006DCDD
:100E3000012809D0022809D0042811D108E040284F
:100E40000AD080280CD109E00320B6E70220B4E7DD
:100E50000520B2E70420B0E70620AEE70720ACE7A4
:100E600000BF00BF0020A8E728040020012001499E
:100E7000087070472804002010B5FFF7A7FBE62094
:100E8000FFF776FB00BFFFF7C9FB0028FBD1EF207F
:100E9000FFF76EFB00BFFFF7C1FB0028FBD1FFF798
:100EA00067FB00BFFFF7BAFB0028FBD1002420E05E
:100EB000FFF78CFBE620FFF75BFB00BFFFF7AEFB05
:100EC0000028FBD11A4911F81400FFF751FB00BFAD
:100ED000FFF7A4FB0028FBD1154901EB440148783A
:100EE000FFF746FB00BFFFF799FB0028FBD1601C12
:100EF000C4B2332CDCD3FFF769FBE620FFF738FBE5
:100F000000BFFFF78BFB0028FBD1EF20FFF730FB82
:100F100000BFFFF783FB0028FBD1FFF729FB00BFD1
:100F2000FFF77CFB0028FBD1FFF766FB10BD00003C
:100F30002E1B000810B500F021F800F051F810B990
:100F400006A000F06BFD0520FFF776F9FFF794FF90
:100F50000520FFF771F9FFF7CDFE10BDE6898BE59F
:100F60008ABFE8AF86E588ABE6A8A1E59D97E59442
:100F7000A4E98692E5A4B1E8B4A500001FB5072155
:100F80000020FFF7E3F98020ADF80C0028208DF851
:100F90000F0003208DF80E0003A91048FFF7F6F9A3
:100FA000802000900C208DF8050000208DF80400B2
:100FB00001208DF806006846FFF77EF917208DF8AE
:100FC000080002208DF8090000208DF80A00012099
:100FD0008DF80B0002A8FFF71FFC1FBD00080140A1
:100FE00010B5FFF7F3FAE620FFF7C2FA0520FFF786
:100FF00023F9FFF7EBFAE620FFF7BAFA0520FFF72F
:101000001BF9FFF7E3FAE620FFF7B2FA00BFFFF79C
:1010100005FB0028FBD1EF20FFF7AAFA00BFFFF77E
:10102000FDFA0028FBD1FFF7A3FA00BFFFF7F6FA9D
:101030000028FBD1FFF7CAFAE620FFF799FA00BFB4
:10104000FFF7ECFA0028FBD1FFF792FA00BFFFF799
:10105000E5FA0028FBD1FFF7B9FAE720FFF788FA95
:1010600000BFFFF7DBFA0028FBD1FFF75FFA044669
:101070000120FFF71DFAFFF7BFFA204610BD7047A9
:1010800010B50121084600F019F80121042000F0F4
:1010900015F84FF4A060FFF7F7FB10BD29B1064A21
:1010A000D2690243044BDA6104E0034AD269824305
:1010B000014BDA61704700000010024029B1064A76
:1010C00092690243044B9A6104E0034A92698243A5
:1010D000014B9A617047000000100240704710B544
:1010E00000F002F810BD00000CB500200190009047
:1010F0003348006840F480303149086000BF304810
:10110000006800F4003000900198401C01900098A5
:1011100018B90198B0F5A06FF1D12948006800F422
:10112000003010B10120009001E0002000900098F4
:10113000012843D12348006840F01000214908608D
:101140000846006820F0070008600846006840F084
:10115000020008601A48406819494860084640681B
:1011600048600846406840F480604860084640682F
:1011700020F47C1048600846406840F4E81048605D
:101180000846006840F08070086000BF0C480068A6
:1011900000F000700028F9D00948406820F00300F2
:1011A000074948600846406840F00200486000BFB8
:1011B0000348406800F00C000828F9D10CBD00007D
:1011C000001002400020024010B500F043F910BDAD
:1011D00010B51348006840F0010011490860084646
:1011E0004068104908400E494860084600680E49AA
:1011F00008400B4908600846006820F48020086019
:101200000846406820F4FE0048604FF41F008860E4
:10121000FFF765FF4FF000600449086010BD000053
:10122000001002400000FFF8FFFFF6FE08ED00E0AE
:1012300030B5164800684FF47A72B0FBF2F1B1F1A4
:10124000807F01D301201DE021F07F40401E4FF040
:10125000E022506150170F22002807DA13071D0EF5
:101260000B4B00F00F04241F1D5503E013071C0E49
:10127000084B1C5400BF00204FF0E0229061072073
:101280001061002008B100BFFEE730BD0000002063
:1012900018ED00E000E400E010B50121880700F03F
:1012A00040F800F035F810BD1FB51C208DF80C007B
:1012B00001208DF80D008DF80E008DF80F0003A8A9
:1012C000FFF7AAFA01210846FFF7E8FE40F2F31003
:1012D000ADF8040041F61F40ADF800000020ADF865
:1012E0000600ADF802008DF8080069464FF0804016
:1012F00000F030F80121880700F010F801221146B3
:10130000900700F01DF80121880700F00DF81FBDBF
:1013100010B500F08FF8FFF70DFA10BDCA43028236
:101320007047CA430282704721B1028842F001022D
:10133000028004E002884FF6FE731A400280704774
:101340001AB183890B43838102E083898B438381B4
:1013500070470000002202881D4B98420ED01D4BA2
:1013600098420BD0B0F1804F08D01B4B984205D06B
:101370001A4B984202D01A4B984204D14FF68F7301
:101380001A404B881A43174B984207D0164B984285
:1013900004D04FF6FF431A40CB881A4302808B8853
:1013A00083850B8803850A4B98420BD0094B9842E2
:1013B00008D00E4B984205D00D4B984202D00D4BF1
:1013C000984201D10B7A0386012383827047000083
:1013D000002C01400034014000040040000800409F
:1013E000000C00400010004000140040004001408C
:1013F000004401400048014070B500F0DDF90125CE
:1014000012E009E0FFF730F9044624B1204600F06D
:1014100033FA00F0A3F800BF054800780028F1D1A6
:1014200000F09CF8FFF7E8F9002DEAD170BD00004C
:101430001C00002005480078401C0549097890FBF5
:10144000F1F201FB12000149087070471C000020F6
:101450001D0000200448006820B103480068401EB9
:1014600001490860704700002404002000BFFEE727
:101470002DE9F04706460F4600210B460C4600209A
:101480000DE001218140394001B906E02F4901EB0F
:10149000C00206CA0B43144300BF411CC8B20A284D
:1014A000EFDBC6F1130000EB8000173000F0FF0CFB
:1014B000012546E00CEB0501C8B24FEAE07800EBED
:1014C00058784FEAE808DFF8889019F80880024653
:1014D0004FEAE07900EB59794FEAE909A0EBC90A34
:1014E0004FF0800949FA0AF948EA090801464FEA2B
:1014F000E07900EB59794FEAE909DFF854A00AF8DE
:101500000980144901EBC00206CA4FF00F08DFF84A
:10151000489001EA080102EA0902DFF8388008EB86
:10152000C008C8E900120B4901EBC00206CA194302
:101530002243DFF8208008EBC008C8E90012681CCD
:10154000C5B2042DB6DDBDE8F0870000A01A000882
:101550005808002058040020000080FF2DE9F041C9
:101560008C48007800F00100002860D08A480468A8
:10157000002559E00A20B4FBF0F100FB11460123DD
:101580004BE0142101EB85011944C8B2C71700EBE9
:101590005777FF10DFF804C21CF8077002464FEAC5
:1015A000E07C00EB5C7C4FEAEC0CA0EBCC084FF04D
:1015B000800C4CFA08FC47EA0C0701464FEAE07C35
:1015C00000EB5C7C4FEAEC0CDFF8D08108F80C7083
:1015D000734901EBC001D1E900214FF0F84C41EA19
:1015E0000C016F4F07EBC007C7E9002106EB46016E
:1015F0006C4A0A44591E515C6FEA0161684F07EB5F
:10160000C00CDCE9007C3A4601EA0C01644F07EBB0
:10161000C007C7E90021581CC3B2032BB1DD0A2063
:10162000B4FBF0F4681CC5B2002CA3D100BF59482C
:10163000007800F00200002843D000233FE003F1CF
:101640000C01C8B2C41700EB5474E410534D2C5D68
:101650000246C51700EB5575ED10A0EBC5068025B9
:1016600035412C430146C51700EB5575ED104B4E27
:1016700074554B4901EBC001D1E900216FF4FF55CE
:101680002A40474C04EBC004C4E90021444901EB63
:10169000C00130C94449454A127801EB8201CA5C55
:1016A0000021490141EAD2615601344345EA010271
:1016B0003B4901EBC001C1E90042581CC3B2042BF5
:1016C000BDDB3448007800F00400E0B300233FE0C5
:1016D00003F10C01C8B2C41700EB5474E4102F4D91
:1016E0002C5D0246C51700EB5575ED10A0EBC50645
:1016F000802535412C430146C51700EB5575ED108B
:10170000264E7455264901EBC00206CA6FF0FF450C
:101710002940234C04EBC00406C4214901EBC0015D
:1017200030C92149224A127801EB8201C95C0022AA
:10173000D20542EA5122CE05344345EA0201184A55
:1017400002EBC00200E005E0C2E90041581CC3B250
:10175000042BBDDB002417E0164830F8140000F419
:10176000004000B90EE0134830F814102046FFF78F
:101770007FFE104830F81400C0F30E000D4921F828
:10178000140000BF601CC4B2142CE5DBFFF70AFA9A
:10179000BDE8F0811B000020140000205808002044
:1017A00058040020101B0008F01A0008190000203F
:1017B0001A000020300400202DE9F041002421E02F
:1017C0000020224A02EBC40210605060002515E0A0
:1017D00005EBC4001E490E5C0027EA00304639467E
:1017E000FEF7A0FC194A02EBC4030CCB10431943CB
:1017F000164A02EBC40203C2681CC5B2082DE7DB1F
:10180000601CC4B2802CDBDB002005E00021114A03
:1018100022F81010411CC8B21428F7DB00200E4932
:1018200008600E4908700E4908700E4908700E498C
:10183000087001200D49087000200D4908700D49FD
:101840000870FFF7C3F8BDE8F081000058040020DD
:101850002400002030040020140000201900002083
:101860001A000020180000201B0000201C0000208F
:101870001F0000201E00002070B50446584859493A
:10188000097830F8110040F400405549554A127863
:1018900021F8120008465349097830F811005249DE
:1018A0000A780121914088434D494E4A127821F827
:1018B00012000125022C06D0032C1CD0042C32D09F
:1018C000052C60D147E047480078401C132803DA14
:1018D00044480078401C00E0132042490870434906
:1018E0000978481CC11700EB5171C910A0EBC10168
:1018F0003E4A117049E03B480078401E002803DD55
:1019000038480078401E00E000203649087037490A
:101910000978C81DC11700EB5171C910A0EBC101B6
:10192000324A117031E030480078401E002803DD53
:101930002D480078401E00E000202B4908702C49FB
:101940000978C81DC11700EB5171C910A0EBC10186
:10195000274A117019E024480078401C092803DA4E
:1019600021480078401C00E009201F4908702049E8
:101970000978481CC11700EB5171C910A0EBC101D7
:101980001B4A117001E0002500BF00BF0DB1FEF73A
:1019900039FF18480068401C16490860164800784E
:1019A00040F00700144908700D480E49097830F8D6
:1019B000110040F400410A480A4A127820F8121037
:1019C0000849097830F8110007490A780121914047
:1019D00008430349034A127821F8120070BD000041
:1019E000300400201F0000201E00002019000020ED
:1019F0001A000020140000201B00002002E008C88C
:101A0000121F08C1002AFAD170477047002001E078
:101A100001C1121F002AFBD17047000002210648B5
:101A2000FEF780FE04210448FEF774FE08210248F8
:101A3000FEF770FE00BFFEE700080140FFF720FB45
:101A4000FEF722FEFFF730FCFFF7F2FBFEF758FD32
:101A5000FEF7D4FFFEF702FE00BF02210E48FEF79C
:101A600061FE04210C48FEF75DFE08210A48FEF7DE
:101A700059FE6420FEF7E0FB02210748FEF74AFE0C
:101A800004210548FEF746FE08210348FEF742FE02
:101A9000FFF7B2FCE1E70000000801400000000091
:101AA000E001000000000000003C00000000000019
:101AB00000800700000000000000F00000000000AF
:101AC0000000001E00000000000000C00300000035
:101AD000000000007800000000000000000F00007F
:101AE0000000000000E001000000000000003C00D9
:101AF0000000000000FFFF007E7E18183C3C3C3CCC
:101B00001E1E787878781E1E06067E7E60607E7EB9
:101B10007C447C407C445C54747C54547C101C7425
:101B2000545C74547C7C04047C547C7C545CEF00D6
:101B300037073817390641004200462D470F483C09
:101B400049004A1E4C2051105E106027804281449B
:101B500082048B019006950A960C97059A149C3F77
:101B6000A519CC19CD0BCE13CF64D021EF01020FF4
:101B70000310040225012739287F29083EFF5E3D16
:101B80006596679769CD6A016D2C6E017201733598
:101B900074007701EF0041004200EF00483C49002B
:101BA000511083209FF9EF01011E020F0310040260
:101BB00041404330659666006797680169CD6A01C8
:101BC0006BB06C046D2C6E017400EF0041FF42019C
:101BD000F01B00080000002030040000680100082D
:101BE0009C1C000830040020380800000C1A000873
:101BF0001184A24A0490090102030406070809623D
:101C0000140A15FF012D43680F6D0828217B6B6FA7
:101C10002D3C2060F543686F73BFEA7DE55F6B6F15
:101C20006D3F2220F0439B6F6D7CB52DE5242D3F49
:101C30002069FB0810087FAA64E00FC03F2DBFA4F5
:101C4000ADFB082914A9083D3F8410C2203CF7D6FB
:101C5000DA103CF4D6C3203BF5D6300D163F84D0C5
:101C6000C390380913420821841042FE6955FFFFD2
:101C7000FE0F4C80FF0B080A16FE0809FD2809FD1F
:101C80002809FD2819283BFBFF01480AFE134208DA
:0C1C900021841042FE0F8901C1000000F9
:04000005080000ED02
:00000001FF
