:020000040800F2
:10000000800C00200101000839080008CF04000816
:1000100035080008E30100082D1500080000000065
:100020000000000000000000000000008B1100082C
:100030005902000800000000A31000087512000813
:100040001B0100081B0100081B0100081B01000820
:100050001B0100081B0100081B0100081B01000810
:100060001B0100081B0100081B0100081B01000800
:100070001B0100081B0100081B0100081B010008F0
:100080001B0100081B0100081B0100081B010008E0
:100090001B0100081B0100081B0100087502000875
:1000A0001B0100081B0100081B0100081B010008C0
:1000B000451300081B0100081B0100081B01000874
:1000C0001B0100081B0100081B0100081B010008A0
:1000D0001B0100081B0100081B0100081B01000890
:1000E0001B0100081B0100081B010008DFF80CD0F1
:1000F00000F03AF800480047B91D0008800C0020C5
:100100000648804706480047FEE7FEE7FEE7FEE7B1
:10011000FEE7FEE7FEE7FEE7FEE7FEE77D120008EA
:10012000ED000008202A04DB203A00FA02F100204A
:1001300070479140C2F1200320FA03F31943904025
:10014000704700000649074A0868504343F23902E5
:10015000104408604008704701490860704700007B
:10016000400400206D4EC641064C074D06E0E06895
:1001700040F0010394E8070098471034AC42F6D3EE
:10018000FFF7B8FF901F0008B01F000870B58C186B
:1001900010F8015B15F0070301D110F8013B2A119B
:1001A00006D110F8012B03E010F8016B01F8016B88
:1001B0005B1EF9D12B0705D40023521E0DD401F884
:1001C000013BFAE710F8013BCB1A921C03E013F84D
:1001D000015B01F8015B521EF9D5A142D8D3002082
:1001E00070BD00BFFEE700000120014908707047A4
:1001F000390400201FB50621002000F0B9F8402086
:10020000ADF80C0048208DF80F0003208DF80E008B
:1002100003A9104800F0CCF8402000900C208DF885
:10022000050000208DF8040001208DF806006846C6
:1002300000F054F817208DF8080002208DF809000E
:1002400000208DF80A0001208DF80B0002A800F0B4
:10025000F5FA1FBD000801407047000001B50449D0
:100260000098086000BF024800680028FBD108BD64
:100270003404002010B5802000F01CF820B180204C
:1002800000F012F800F004FE402000F013F850B126
:1002900041F2240000E0401E0028FCD1402000F084
:1002A00003F8FFF7A1FF10BD014908607047000087
:1002B00014040140014600200022074B1B6803EA9A
:1002C0000102054B14331B680B4013B10AB1012026
:1002D00000E0002070470000000401400021234995
:1002E0008279002A3AD00A46126803689A430B467C
:1002F0001A600A1D126803689A430B1D1A6002797E
:1003000011440A6803681A430A60184A08321268DE
:1003100003689A43154B08331A601A1D1268036864
:100320009A43124B0C331A604279102A0ED11A1FCD
:10033000126803681A430D4B08331A601A1D1268BD
:1003400003681A43094B0C331A600DE007494279E0
:1003500011440A6803681A430A6005E002791144EF
:100360000A6803689A430A6070470000000401406D
:1003700030B500228B071C0F0F2303FA04F20B4B3E
:100380008C1053F824309343084C8D1044F82530DA
:1003900023468C1053F824308C07240F00FA04F401
:1003A0002343024C8D1044F8253030BD0800014035
:1003B0002DE9F041024600250026002000230024FC
:1003C000002791F803C00CF00F0591F803C00CF062
:1003D000100CBCF1000F03D091F802C04CEA0505E7
:1003E00091F800C0BCF1000F31D0146800202BE060
:1003F0004FF0010C0CFA00F3B1F800C00CEA030650
:100400009E4220D183004FF00F0C0CFA03F7BC433F
:1004100005FA03FC4CEA040491F803C0BCF1280F70
:1004200006D14FF0010C0CFA00FCC2F814C00AE02F
:1004300091F803C0BCF1480F05D14FF0010C0CFA44
:1004400000FCC2F810C0401C0828D1D31460B1F8D9
:1004500000C0BCF1FF0F34DD546800202EE000F135
:10046000080C4FF0010808FA0CF3B1F800C00CEAD0
:1004700003069E4221D183004FF00F0C0CFA03F7C4
:10048000BC4305FA03FC4CEA040491F803C0BCF138
:10049000280F05D100F1080C08FA0CF8C2F81480F6
:1004A00091F803C0BCF1480F07D100F1080C4FF0E0
:1004B000010808FA0CF8C2F81080401C0828CED3B6
:1004C0005460BDE8F081416170470161704700BF31
:1004D000FEE7000010B5044624B14FF400600C495B
:1004E000086003E04FF00060094908604FF4806045
:1004F0000749086000F00EF84FF08060044908607A
:1005000000F008F84FF400600149086010BD0000D9
:10051000100C0140002001E0411CC8B20A28FBDB9E
:100520007047000010B50121082000F0D9FD14200B
:100530000549C8704FF44060088003208870034864
:10054000FFF736FF10BD00002E000020000C014018
:1005500070B5002418E04FF480600D490860FFF783
:10056000D9FF0B4808380068C0F3C02020B1C4F19F
:10057000070101208840C5B24FF08060044908603F
:10058000FFF7C8FF601CC4B2082CE4DB284670BD2E
:10059000100C014070B5054600241DE0C4F10700B1
:1005A00045FA00F000F0010020B14FF400600F495F
:1005B000086003E04FF000600C4908604FF4806071
:1005C0000A490860FFF7A6FF4FF0806007490860FE
:1005D000FFF7A0FF601CC4B2082CDFDB4FF4006003
:1005E00002490860FFF796FF70BD0000100C014043
:1005F00010B54FF400600849086040100860FFF72C
:1006000089FF4FF0006004490860FFF783FF4FF057
:1006100080600149086010BD100C014010B54FF01A
:100620000060064908604010086000140860FFF789
:1006300071FF4FF400600149086010BD100C0140CB
:1006400010B54FF400600D490860FFF763FF4FF4E9
:1006500080600A490860FFF75DFF084808380068B5
:10066000C0F3C02008B1012400E000244FF08060F6
:1006700002490860FFF74EFF204610BD100C0140F4
:1006800010B500F069FCFFF7B5FD10BD10B500F026
:10069000A1FB044634B90448007818B101240020B5
:1006A00001490870204610BD3904002008B500201B
:1006B00000900121042000F013FD02211D48FFF7E6
:1006C00004FF0220ADF8000010208DF80300032085
:1006D0008DF8020069461748FFF76AFE01210420E1
:1006E00000F0FEFC04211348FFF7EFFE0420ADF8F4
:1006F000000010208DF8030003208DF802006946E9
:100700000C48FFF755FE0121042000F0E9FC082108
:100710000848FFF7DAFE0820ADF8000010208DF839
:10072000030003208DF8020069460248FFF740FEEF
:1007300008BD00000008014070B504460D4629467A
:100740002046FFF7C2FE70BD70B504460D4629462F
:100750002046FFF7B8FE70BD10B52C4890F9000098
:1007600000280ADD29480078401E40B22749087059
:1007700002212748FFF7E8FF0CE02448007848B939
:1007800022480078401E40B22049087002212048CB
:10079000FFF7D2FF1F4890F9000000280ADD1D482E
:1007A0000078401E40B21B49087004211848FFF72A
:1007B000CBFF0CE01748007848B916480078401E77
:1007C00040B21449087004211148FFF7B5FF1248E0
:1007D00090F9000000280ADD0F480078401E40B262
:1007E0000D49087008210A48FFF7AEFF0CE00A48DF
:1007F000007848B908480078401E40B206490870A1
:1008000008210348FFF798FF10BD00003A040020BC
:10081000000801403B0400203C0400200220014964
:10082000087070473C04002002200149087070479E
:100830003B04002000BFFEE77047000070B50021B8
:1008400000230F22C47804B3154C246804F4E06438
:10085000C4F5E064210AC1F10403CA40447804FAF3
:1008600003F184781440214309010E4C0678A15508
:10087000047804F01F050124AC4005786D11AD002B
:1008800005F1E025C5F8004109E0047804F01F05F2
:100890000124AC40044D0678761145F8264070BD21
:1008A0000CED00E000E400E080E100E002490143DB
:1008B000024A1160704700000000FA050CED00E0EC
:1008C0002DE9F84F81460D4614461E460A9F281909
:1008D000401E00F0FF0AF019401EC0B20090BAF1AD
:1008E000080F06DA0098802803DA012C01DB012FBB
:1008F00002DA36A001F050FAFFF77AFE7820FFF70F
:1009000049FE00BFFFF79CFE0028FBD1FFF742FE27
:1009100000BFFFF795FE0028FBD12220FFF73AFE2B
:1009200000BFFFF78DFE0028FBD12846FFF732FEFF
:1009300000BFFFF785FE0028FBD15046FFF72AFED7
:1009400000BFFFF77DFE0028FBD12120FFF722FE2C
:1009500000BFFFF775FE0028FBD13046FFF71AFEF7
:1009600000BFFFF76DFE0028FBD10098FFF712FED5
:1009700000BFFFF765FE0028FBD1FFF739FE7820A6
:10098000FFF708FE00BFFFF75BFE0028FBD1402009
:10099000FFF700FE00BFFFF753FE0028FBD104FB6A
:1009A00007FB80460CE019F80800FFF7F3FD00BFD5
:1009B000FFF746FE0028FBD108F101001FFA80F87E
:1009C000D845F0DBFFF72AFEBDE8F88F4F4C4544D1
:1009D0005F44726177506963E68EA5E694B6E58858
:1009E000B0E99D9EE6B395E58F82E695B0210000C3
:1009F00008B5802000230822194600900648FFF71A
:100A00005FFF002004E00021044A1154411CC8B2D9
:100A10001028F8DB08BD00007004002070080020DA
:100A200010B5FFF7E5FD7820FFF7B4FD00BFFFF735
:100A300007FE0028FBD1FFF7ADFD00BFFFF700FE6A
:100A40000028FBD1AF20FFF7A5FD00BFFFF7F8FDA1
:100A50000028FBD18120FFF79DFD00BFFFF7F0FDCF
:100A60000028FBD17F20FFF795FD00BFFFF7E8FDD1
:100A70000028FBD12020FFF78DFD00BFFFF7E0FD30
:100A80000028FBD10120FFF785FD00BFFFF7D8FD4F
:100A90000028FBD12220FFF77DFD00BFFFF7D0FD2E
:100AA0000028FBD1FFF776FD00BFFFF7C9FD002846
:100AB000FBD10720FFF76EFD00BFFFF7C1FD002847
:100AC000FBD12120FFF766FD00BFFFF7B9FD00282D
:100AD000FBD1FFF75FFD00BFFFF7B2FD0028FBD1A0
:100AE0007F20FFF757FD00BFFFF7AAFD0028FBD1CD
:100AF000A020FFF74FFD00BFFFF7A2FD0028FBD1AC
:100B0000C820FFF747FD00BFFFF79AFD0028FBD183
:100B1000D920FFF73FFD00BFFFF792FD0028FBD172
:100B20002220FFF737FD00BFFFF78AFD0028FBD129
:100B3000DB20FFF72FFD00BFFFF782FD0028FBD170
:100B40002020FFF727FD00BFFFF77AFD0028FBD12B
:100B50008D20FFF71FFD00BFFFF772FD0028FBD1BE
:100B60001420FFF717FD00BFFFF76AFD0028FBD137
:100B7000AF20FFF70FFD00BFFFF762FD0028FBD19C
:100B8000FFF736FD7820FFF705FD00BFFFF758FDA2
:100B90000028FBD14020FFF7FDFC00BFFFF750FD10
:100BA0000028FBD14FF4806408E00020FFF7F2FC3E
:100BB00000BFFFF745FD0028FBD1641E002CF4DCCC
:100BC000FFF72CFD10BD00002DE9F041FFF710FDEF
:100BD0007820FFF7DFFC00BFFFF732FD0028FBD1D4
:100BE000FFF7D8FC00BFFFF72BFD0028FBD1222028
:100BF000FFF7D0FC00BFFFF723FD0028FBD1FFF774
:100C0000C9FC00BFFFF71CFD0028FBD10720FFF740
:100C1000C1FC00BFFFF714FD0028FBD18046002473
:100C20006FE03B48005D10B94FF0000867E0002519
:100C30005FE03748005D80212941084010B94FF03E
:100C4000000854E005EBC400C6B2B8F1000F3AD179
:100C5000FFF7CEFC7820FFF79DFC00BFFFF7F0FC0C
:100C60000028FBD1FFF796FC00BFFFF7E9FC002846
:100C7000FBD12120FFF78EFC00BFFFF7E1FC00282D
:100C8000FBD13046FFF786FC00BFFFF7D9FC0028F8
:100C9000FBD17F20FFF77EFC00BFFFF7D1FC0028CF
:100CA000FBD1FFF7A5FC7820FFF774FC00BFFFF72E
:100CB000C7FC0028FBD14020FFF76CFC00BFFFF70A
:100CC000BFFC0028FBD100270CE007EBC601114A4E
:100CD000505CFFF75FFC00BFFFF7B2FC0028FBD1C0
:100CE000781CC7B2082FF0DB4FF0010800BF681C6A
:100CF000C5B2082D9DDB00200549085500BF601CCA
:100D0000C4B2102C8DDBFFF789FCBDE8F081000038
:100D1000700800207004002010B5FFF769FCE62081
:100D2000FFF738FC00BFFFF78BFC0028FBD1EF205A
:100D3000FFF730FC00BFFFF783FC0028FBD1FFF773
:100D400029FC00BFFFF77CFC0028FBD1002420E039
:100D5000FFF74EFCE620FFF71DFC00BFFFF770FC1D
:100D60000028FBD11A4911F81400FFF713FC00BF4B
:100D7000FFF766FC0028FBD1154901EB44014878D8
:100D8000FFF708FC00BFFFF75BFC0028FBD1601CED
:100D9000C4B21E2CDCD3FFF72BFCE620FFF7FAFBD6
:100DA00000BFFFF74DFC0028FBD1EF20FFF7F2FB5F
:100DB00000BFFFF745FC0028FBD1FFF7EBFB00BFAE
:100DC000FFF73EFC0028FBD1FFF728FC10BD000018
:100DD000541F000808B52D48007808B9002008BD48
:100DE00000202A490870FFF703FCE620FFF7D2FB3A
:100DF00000BFFFF725FC0028FBD14320FFF7CAFB0B
:100E000000BFFFF71DFC0028FBD1FFF7F1FBE72037
:100E1000FFF7C0FB00BFFFF713FC0028FBD1FFF773
:100E200097FB8DF800000020FFF754FBFFF790FBC5
:100E30000002C0B28DF801000120FFF74BFBFFF765
:100E4000EDFB9DF800009DF8011040EA0120082804
:100E500012D006DC012809D0022809D0042811D1BB
:100E600008E040280AD080280CD109E00320B6E72A
:100E70000220B4E70520B2E70420B0E70620AEE781
:100E80000720ACE700BF00BF0020A8E7380400201F
:100E900001200149087070473804002010B5FFF7A1
:100EA000A7FBE620FFF776FB00BFFFF7C9FB002892
:100EB000FBD1EF20FFF76EFB00BFFFF7C1FB00285F
:100EC000FBD1FFF767FB00BFFFF7BAFB0028FBD1A0
:100ED000002420E0FFF78CFBE620FFF75BFB00BF60
:100EE000FFF7AEFB0028FBD11A4911F81400FFF7F9
:100EF00051FB00BFFFF7A4FB0028FBD1154901EB14
:100F000044014878FFF746FB00BFFFF799FB002834
:100F1000FBD1601CC4B2332CDCD3FFF769FBE620A5
:100F2000FFF738FB00BFFFF78BFB0028FBD1EF205A
:100F3000FFF730FB00BFFFF783FB0028FBD1FFF773
:100F400029FB00BFFFF77CFB0028FBD1FFF766FB06
:100F500010BD0000EE1E000810B500F021F800F0F2
:100F600051F810B906A000F017FF0520FFF776F939
:100F7000FFF794FF0520FFF771F9FFF7CDFE10BDD5
:100F8000E6898BE58ABFE8AF86E588ABE6A8A1E5F0
:100F90009D97E594A4E98692E5A4B1E8B4A5000084
:100FA0001FB507210020FFF7E3F98020ADF80C0002
:100FB00028208DF80F0003208DF80E0003A910489B
:100FC000FFF7F6F9802000900C208DF80500002036
:100FD0008DF8040001208DF806006846FFF77EF9C1
:100FE00017208DF8080002208DF8090000208DF8E8
:100FF0000A0001208DF80B0002A8FFF71FFC1FBD9F
:101000000008014010B5FFF7F3FAE620FFF7C2FA37
:101010000520FFF723F9FFF7EBFAE620FFF7BAFA0E
:101020000520FFF71BF9FFF7E3FAE620FFF7B2FA16
:1010300000BFFFF705FB0028FBD1EF20FFF7AAFA5E
:1010400000BFFFF7FDFA0028FBD1FFF7A3FA00BFAE
:10105000FFF7F6FA0028FBD1FFF7CAFAE620FFF700
:1010600099FA00BFFFF7ECFA0028FBD1FFF792FADC
:1010700000BFFFF7E5FA0028FBD1FFF7B9FAE72038
:10108000FFF788FA00BFFFF7DBFA0028FBD1FFF774
:101090005FFA04460120FFF71DFAFFF7BFFA20466A
:1010A00010BD704710B50121084600F019F8012164
:1010B000042000F015F84FF4A060FFF7F7FB10BD17
:1010C00029B1064AD2690243044BDA6104E0034ABB
:1010D000D2698243014BDA61704700000010024080
:1010E00029B1064A92690243044B9A6104E0034A1B
:1010F00092698243014B9A617047000000100240E0
:10110000704710B50020FFF727F810BD2DE9F04714
:101110008046894616461C46002003E000212154E3
:10112000411CC8B24845F9DB00252AE0FFF70AF860
:10113000C7B23846FFF710F800201DE0A84204D1DE
:10114000275408EB0501315418E0215CB94200DC5A
:1011500010E06A1E51B206E0635C4A1CA354735C43
:10116000B3544A1E51B28142F6DA275408EB050106
:10117000315403E0411CC8B2A842DFDD00BF681C47
:10118000C5B24D45D2DBBDE8F087704710B500F021
:1011900001F810BD0CB500200190009033480068A4
:1011A00040F480303149086000BF3048006800F4E6
:1011B000003000900198401C0190009818B90198E7
:1011C000B0F5A06FF1D12948006800F4003010B1EB
:1011D0000120009001E0002000900098012843D1F8
:1011E0002348006840F01000214908600846006864
:1011F00020F0070008600846006840F00200086020
:101200001A484068194948600846406848600846DE
:10121000406840F4806048600846406820F47C10D4
:1012200048600846406840F4E81048600846006896
:1012300040F08070086000BF0C48006800F000704B
:101240000028F9D00948406820F0030007494860A9
:101250000846406840F00200486000BF034840680C
:1012600000F00C000828F9D10CBD0000001002406D
:101270000020024010B500F04DF910BD10B5134824
:10128000006840F0010011490860084640681049B4
:1012900008400E494860084600680E4908400B495E
:1012A00008600846006820F480200860084640680E
:1012B00020F4FE0048604FF41F008860FFF766FFCF
:1012C0004FF000600449086010BD000000100240AB
:1012D0000000FFF8FFFFF6FE08ED00E030B516480D
:1012E00000684FF47A72B0FBF2F1B1F1807F01D364
:1012F00001201DE021F07F40401E4FF0E0225061B0
:1013000050170F22002807DA13071D0E0B4B00F0B1
:101310000F04241F1D5503E013071C0E084B1C541B
:1013200000BF00204FF0E0229061072010610020F4
:1013300008B100BFFEE730BD0000002018ED00E05E
:1013400000E400E010B50121880700F040F800F04B
:1013500035F810BD1FB51C208DF80C0001208DF84C
:101360000D008DF80E008DF80F0003A8FFF766FA48
:1013700001210846FFF7A4FE40F2F310ADF8040087
:1013800041F61F40ADF800000020ADF80600ADF8B2
:1013900002008DF8080069464FF0804000F030F8F8
:1013A0000121880700F010F801221146900700F093
:1013B0001DF80121880700F00DF81FBD10B500F0E1
:1013C00099F8FFF7C9F910BDCA4302827047CA43B2
:1013D0000282704721B1028842F00102028004E0DB
:1013E00002884FF6FE731A40028070471AB1838953
:1013F0000B43838102E083898B4383817047000024
:10140000002202881D4B98420ED01D4B98420BD0F3
:10141000B0F1804F08D01B4B984205D01A4B984230
:1014200002D01A4B984204D14FF68F731A404B8862
:101430001A43174B984207D0164B984204D04FF6E8
:10144000FF431A40CB881A4302808B8883850B8820
:1014500003850A4B98420BD0094B984208D00E4B9B
:10146000984205D00D4B984202D00D4B984201D1C5
:101470000B7A03860123838270470000002C014011
:10148000003401400004004000080040000C00400F
:1014900000100040001400400040014000440140A2
:1014A0000048014010B500F027FA19E009E0FFF705
:1014B000EDF8044624B1204600F08CFA00F0AEF8B6
:1014C00000BF0A4800780028F1D100F045FB00F089
:1014D000A5F8FFF7A3F900BF044800780028FBD067
:1014E000034800780028E1D110BD00001F00002053
:1014F0002100002005480078401C0549097890FB30
:10150000F1F201FB12000149087070471F00002032
:10151000200000200448006820B103480068401EF5
:1015200001490860704700003404002000BFFEE756
:101530002DE9F04706460F4600210B460C460020D9
:101540000DE001218140394001B906E02F4901EB4E
:10155000C00206CA0B43144300BF411CC8B20A288C
:10156000EFDBC6F1130000EB8000173000F0FF0C3A
:10157000012546E00CEB0501C8B24FEAE07800EB2C
:1015800058784FEAE808DFF8889019F80880024692
:101590004FEAE07900EB59794FEAE909A0EBC90A73
:1015A0004FF0800949FA0AF948EA090801464FEA6A
:1015B000E07900EB59794FEAE909DFF854A00AF81D
:1015C0000980144901EBC00206CA4FF00F08DFF88A
:1015D000489001EA080102EA0902DFF8388008EBC6
:1015E000C008C8E900120B4901EBC00206CA194342
:1015F0002243DFF8208008EBC008C8E90012681C0D
:10160000C5B2042DB6DDBDE8F0870000201E00083D
:101610007008002070040020000080FF2DE9F041D8
:101620008C48007800F00100002860D08A480468E7
:10163000002559E00A20B4FBF0F100FB114601231C
:101640004BE0142101EB85011944C8B2C71700EB28
:101650005777FF10DFF804C21CF8077002464FEA04
:10166000E07C00EB5C7C4FEAEC0CA0EBCC084FF08C
:10167000800C4CFA08FC47EA0C0701464FEAE07C74
:1016800000EB5C7C4FEAEC0CDFF8D08108F80C70C2
:10169000734901EBC001D1E900214FF0F84C41EA58
:1016A0000C016F4F07EBC007C7E9002106EB4601AD
:1016B0006C4A0A44591E515C6FEA0161684F07EB9E
:1016C000C00CDCE9007C3A4601EA0C01644F07EBF0
:1016D000C007C7E90021581CC3B2032BB1DD0A20A3
:1016E000B4FBF0F4681CC5B2002CA3D100BF59486C
:1016F000007800F00200002843D000233FE003F10F
:101700000C01C8B2C41700EB5474E410534D2C5DA7
:101710000246C51700EB5575ED10A0EBC5068025F8
:1017200035412C430146C51700EB5575ED104B4E66
:1017300074554B4901EBC001D1E900216FF4FF550D
:101740002A40474C04EBC004C4E90021444901EBA2
:10175000C00130C94449454A127801EB8201CA5C94
:101760000021490141EAD2615601344345EA0102B0
:101770003B4901EBC001C1E90042581CC3B2042B34
:10178000BDDB3448007800F00400E0B300233FE004
:1017900003F10C01C8B2C41700EB5474E4102F4DD0
:1017A0002C5D0246C51700EB5575ED10A0EBC50684
:1017B000802535412C430146C51700EB5575ED10CA
:1017C000264E7455264901EBC00206CA6FF0FF454C
:1017D0002940234C04EBC00406C4214901EBC0019D
:1017E00030C92149224A127801EB8201C95C0022EA
:1017F000D20542EA5122CE05344345EA0201184A95
:1018000002EBC00200E005E0C2E90041581CC3B28F
:10181000042BBDDB002417E0164830F8140000F458
:10182000004000B90EE0134830F814102046FFF7CE
:101830007FFE104830F81400C0F30E000D4921F867
:10184000140000BF601CC4B2142CE5DBFFF7BCF928
:10185000BDE8F0811E000020140000207008002068
:1018600070040020901E0008701E00081C0000205C
:101870001D000020440400202DE9F04705460E46D7
:1018800017469846DDF8209015B910A000F084FAAC
:10189000184800EBC50030F81640002011E004F0B5
:1018A0000301394449B209F81010A41004F00301EF
:1018B00041444AB24100491C09F80120A410411CCE
:1018C000C8B20428EBDBBDE8F087000054726965FC
:1018D0006420746F2067657420626C6F636B732083
:1018E0006F6620426C6F636B547970655F4E6F6EEC
:1018F00065000000AE1E00082DE9F041002422E042
:101900000021264A02EBC40211605160002516E056
:1019100005EBC40022490E5C0027EA003046394638
:10192000FEF700FC1D4A02EBC402D2E90032184364
:1019300011431A4A02EBC40203C2681CC5B2082D47
:10194000E6DB601CC4B2802CDADB002005E000215D
:10195000144A22F81010411CC8B21428F7DB0020EA
:10196000114908601149087011490870114908703F
:101970001149087011490870114908700120114976
:10198000087011490870FFF7BCFB00200F49087070
:101990000F490870FFF72CF8BDE8F08170040020B3
:1019A0003200002044040020140000201C0000200D
:1019B0001D000020180000201E0000202200002032
:1019C0002A000020210000201F0000202C00002001
:1019D0002B00002070B5044658485949097830F862
:1019E000110040F400405549554A127821F8120080
:1019F00008465349097830F8110052490A78012104
:101A0000914088434D494E4A127821F81200012531
:101A1000022C06D0032C1CD0042C32D0052C60D113
:101A200047E047480078401C132803DA4448007810
:101A3000401C00E013204249087043490978481CC3
:101A4000C11700EB5171C910A0EBC1013E4A1170E2
:101A500049E03B480078401E002803DD3848007804
:101A6000401E00E000203649087037490978C81D3B
:101A7000C11700EB5171C910A0EBC101324A1170BE
:101A800031E030480078401E002803DD2D48007802
:101A9000401E00E000202B4908702C490978C81D21
:101AA000C11700EB5171C910A0EBC101274A117099
:101AB00019E024480078401C092803DA21480078FE
:101AC000401C00E009201F49087020490978481C83
:101AD000C11700EB5171C910A0EBC1011B4A117075
:101AE00001E0002500BF00BF0DB1FEF79DFE1848C4
:101AF0000068401C164908601648007840F007004E
:101B0000144908700D480E49097830F8110040F466
:101B100000410A480A4A127820F812100849097848
:101B200030F8110007490A78012191400843034920
:101B3000034A127821F8120070BD0000440400200E
:101B40002C0000202B0000201C0000201D00002085
:101B5000140000201E0000200EB56748007838B938
:101B600003206649087014206549087000F0CEF81B
:101B700001A80090624890F90030604890F9002078
:101B8000604801785C480078FFF776FE002046E068
:101B900001A901EB400191F90010002914DB01A912
:101BA00001EB400191F900100A290DDA01A901EBBE
:101BB000400191F90110002906DB01A901EB400168
:101BC00091F90110142900DB27E001A901EB400184
:101BD00091F901104C4A32F8111001AA12F8103094
:101BE00001229A40914301AA02EB400292F901209E
:101BF000454B23F8121001A901EB400191F90110A6
:101C00001A4632F8111041F4004101AA02EB4002D9
:101C100092F9012023F8121000BF411CC8B2042819
:101C2000B6DB374890F90000002803DA002032497B
:101C300008700EBD32480078401E40B2304908702E
:101C400001A80090084690F900302C4890F9002037
:101C50002C48017828480078FFF70EFE002046E067
:101C600001A901EB400191F90010002914DB01A941
:101C700001EB400191F900100A290DDA01A901EBED
:101C8000400191F90110002906DB01A901EB400197
:101C900091F90110142900DB27E001A901EB4001B3
:101CA00091F90110184A32F8111001AA12F81030F7
:101CB00001229A40114301AA02EB400292F901204D
:101CC000114B23F8121001A901EB400191F9011009
:101CD0001A4632F8111041F4004101AA02EB400209
:101CE00092F9012023F8121000BF411CC8B2042849
:101CF000B6DB00BF9DE70000180000201A0000209E
:101D00001B00002019000020440400201CB51548C9
:101D1000007830B96B46144A07210120FFF7F6F925
:101D200000BF12480078124908700F480D49097821
:101D3000405C0E4908700B480078401C072190FB5E
:101D4000F1F201FB1200074908700A48007840F0E0
:101D50000400084908700648007808B9FFF7D6FF64
:101D60001CBD00002A000020230000201D000020D0
:101D7000180000201E00002002E008C8121F08C141
:101D8000002AFAD170477047002001E001C1121FFC
:101D9000002AFBD17047000002210648FEF7D4FC60
:101DA00004210448FEF7C8FC08210248FEF7C4FCE1
:101DB00000BFFEE700080140FFF774F9FEF776FC6C
:101DC000FFF7C8FAFFF78AFAFEF7ACFBFEF728FE2A
:101DD000FEF756FCFFF794F900BF02210E48FEF70C
:101DE000B3FC04210C48FEF7AFFC08210A48FEF7BB
:101DF000ABFC6420FEF732FA02210748FEF79CFC98
:101E000004210548FEF798FC08210348FEF794FCDE
:101E1000FFF748FBE1E70000000801400000000078
:101E2000E001000000000000003C00000000000095
:101E300000800700000000000000F000000000002B
:101E40000000001E00000000000000C003000000B1
:101E5000000000007800000000000000000F0000FB
:101E60000000000000E001000000000000003C0055
:101E70000000000000FFFF007E7E18183C3C3C3C48
:101E80001E1E787878781E1E06067E7E60607E7E36
:101E90007C447C407C445C54747C54547C101C74A2
:101EA000545C74547C7C04047C547C7C545C000042
:101EB0000000000000009D1567459D1567456915E8
:101EC00056145914694556125612561256126A156E
:101ED00045126A15451269255601692556016A128F
:101EE00068459A155624591256049A266A45EF00F9
:101EF00037073817390641004200462D470F483C46
:101F000049004A1E4C2051105E10602780428144D7
:101F100082048B019006950A960C97059A149C3FB3
:101F2000A519CC19CD0BCE13CF64D021EF01020F30
:101F30000310040225012739287F29083EFF5E3D52
:101F40006596679769CD6A016D2C6E0172017335D4
:101F500074007701EF0041004200EF00483C490067
:101F6000511083209FF9EF01011E020F031004029C
:101F700041404330659666006797680169CD6A0104
:101F80006BB06C046D2C6E017400EF0041FF4201D8
:101F9000B01F000800000020440400008C0100086D
:101FA0005C200008440400203C080000881D000854
:101FB0001184A24A04C009010203040607080902A9
:101FC00011140A15FF012D43680F6D0828217B6B42
:101FD0006F2D3C2060F543686F73BFEA7DE55F6B52
:101FE0006F6D3F2220F0439B6F6D7CB52DE5242D56
:101FF0003F2069FB0810087FAA64E00FC03F2DBF97
:10200000A4ADFB082914A9083D3F8410C2203CF769
:10201000D6DA103CF4D6C3203BF5D6300D163F84FB
:10202000D0C390380913420821841042FE6955FF3D
:10203000FFFE0F4C80FF0B080A16FE0809FD280959
:10204000FD2809FD2819283BFBFF01480AFE134221
:0C2050000821841042FE0F8901011200DB
:04000005080000ED02
:00000001FF
