:020000040800F2
:10000000A816002001010008D1110008690E00089F
:10001000CD110008970A0008F11E0008000000003A
:100020000000000000000000000000003B1B000872
:100030000D0B0008000000003B1A0008251C0008FA
:100040001B0100081B0100081B0100081B01000820
:100050001B0100081B0100081B0100081B01000810
:100060001B0100081B0100081B0100081B01000800
:100070001B0100081B0100081B0100081B010008F0
:100080001B0100081B0100081B0100081B010008E0
:100090001B0100081B0100081B010008290B0008B8
:1000A0001B0100081B0100081B0100081B010008C0
:1000B000F51C00081B0100081B0100081B010008BB
:1000C0001B0100081B0100081B0100081B010008A0
:1000D0001B0100081B0100081B0100081B01000890
:1000E0001B0100081B0100081B010008DFF80CD0F1
:1000F00000F0A8FA0048004721330008A8160020A5
:100100000648804706480047FEE7FEE7FEE7FEE7B1
:10011000FEE7FEE7FEE7FEE7FEE7FEE72D1C000830
:10012000ED000008202A04DB203A00FA02F100204A
:1001300070479140C2F1200320FA03F31943904025
:10014000704700000649074A0868504343F23902E5
:10015000104408604008704701490860704700007B
:100160003C0C00206D4EC6412DE9FE4F804681EAD1
:100170000300C00F0C46009021F0004123F0004521
:10018000B8EB0200A94105D24046214690461C46E4
:100190000B46024623F00040104347D0270DC7F31B
:1001A0000A00C3F30A510290401A019040286BDA0A
:1001B000C3F3130040F4801B0098924620B1002343
:1001C000D2EB030A63EB0B0B01985946C0F14002D6
:1001D0005046FFF7A7FF06460D4650465946019A7E
:1001E00000F091F910EB08006141002487EA1152F8
:1001F00084EAE7731A4340D0009A62B3019A012A55
:100200004FEA075215DC001B61EB02014FF0004280
:1002100002EA0752CDE90042001C41F58011324646
:100220002B4600F091F903B0BDE8F08F404621461F
:10023000F9E7001B61EB0201001C41F58013001877
:100240005B412018A2F5001747EB030140EAD57087
:10025000B6196D4111E06D084FEA360645EAC075E2
:100260004FEA0752001B61EB0201001C41F58011AF
:1002700049084FEA30000019514132462B4603B07D
:10028000BDE8F04F00F051B9009801224000002372
:10029000D0EB020263EBE073009821464FEAE07472
:1002A000B8EB000061EB0401E9E783F000435BE792
:1002B00081F0004158E72DE9FE4F81EA030404F084
:1002C000004421F0004100944FF0000B23F0004364
:1002D00050EA01045ED052EA03045BD0C3F30A542F
:1002E000C1F30A552C44A4F2F3340194A0FB025448
:1002F000C1F3130141F48011C3F3130343F48013DA
:1003000001FB024400FB034E840A970A44EA81542D
:1003100047EA8357A4FB076802958D0A05FB07850A
:100320004FEA932C04FB0C542705029D4FEA065814
:1003300047EA1637B5EB08056EEB070C870E920EF1
:1003400047EA811742EA8312A7FB0201B6EB0B01D1
:1003500064EB00042B0D43EA0C335E1844EB1C5095
:10036000DA465146E7FB0201C5F313044FEA0B33AB
:1003700043EA14534FEA0432019C43EA0603A4F112
:100380000C040294009CCDE900B400F0DDF803B049
:10039000BDE8F08F00200146F9E72DE9F04D81EA34
:1003A000030404F0004B21F0004514464FF0000A0E
:1003B00023F0004150EA050220D054EA01021DD08A
:1003C000C5F30A570246C5F31303C1F31300C1F383
:1003D0000A5640F4801543F48013A7EB0608101B5F
:1003E000D64608F2FD3873EB050002D308F1010888
:1003F00001E092185B41B8F1000F03DA00200146DA
:10040000BDE8F08D00204FF48011064684460EE0D2
:10041000171B73EB050705D3121B63EB050306439C
:100420004CEA010C49084FEA300092185B4150EA4F
:100430000107EDD152EA030012D082EA040083EAF8
:100440000501084305D0101BAB4106D20122002351
:1004500006E000224FF0004302E06FF0010253106B
:100460001AEB06004CEB085110EB0A0041EB0B01B4
:10047000BDE8F04D00F059B80EB5C10F80EAE0704C
:100480000844CA07002140F233438DE80E000A46B3
:100490000B4600F059F803B000BD0EB540F23341F1
:1004A00002910021CDE900110A460B4600F04CF8FC
:1004B00003B000BDC1F30A5210B5C1F3130140F2FD
:1004C000FF3341F480119A4201DA002010BD40F25E
:1004D00033439A42A2F2334203DC524200F003F863
:1004E00010BD904010BD202A04DB203A21FA02F012
:1004F0000021704721FA02F3D040C2F1200291405E
:10050000084319467047202A06DBCB17203A41FAE8
:1005100002F043EAE07306E041FA02F3D040C2F190
:100520002002914008431946704710B5141E73F11C
:10053000000408DA401C41F1000192185B411A43A3
:1005400001D120F0010010BD2DE9F04D92469B46EF
:1005500011B1B1FA81F202E0B0FA80F22032904695
:10056000FFF7E0FD04460F4640EA0A0041EA0B01AE
:1005700053465A46084313D0114653EA010019D096
:10058000C8F140025046FFF7AEFF05460E46504602
:1005900059464246FFF7C6FD084305D0012004E056
:1005A00020463946BDE8F08D0020054346EAE07656
:1005B0002C4337430A986305E40AA0EB08000022A5
:1005C000FD0A44EA47540A3002D500200146E9E713
:1005D000010510196941DDE9084500196941BDE8C7
:1005E000F04DA2E770B521F0004303430CD0C1F3F6
:1005F0000A550024D5EB040564EB0403D617AD1AA5
:10060000B34102DB0020014670BD201841EB0251CE
:1006100070BD000030B5041E71F1000404DB4FF022
:100620000044404264EB0101141E73F1000405DB39
:100630001C464FF00043524263EB0403994208BF4B
:10064000904230BD064C074D06E0E06840F00103E3
:1006500094E8070098471034AC42F6D3FFF74AFD00
:10066000A0400008C04000082DE9F04D00231A46C4
:100670001B1A8A4103DB00200146BDE8F08DC1F35F
:100680000A52C1F3130141F480154FF0000BD1075A
:1006900002D100186D41521E0027044640F2FF119E
:1006A000384601EB620A3E468046024600204FF47F
:1006B0008011FFF718FFC2197141BB1846EB01000A
:1006C000B4EB030C75EB000C04D3E41A65EB0005E6
:1006D00017460E46241908F101006D418046342862
:1006E000E3DDF91946EB0600091BA84103D24FF0E0
:1006F000FF32134601E0002213461BEB070046EBD6
:100700000A51BDE8F04DFFF710BF000030B5041EE0
:1007100071F1000404DB4FF00044404264EB01013E
:10072000141E73F1000405DB1C464FF000435242D7
:1007300063EB04038B4208BF824230BD70B58C1856
:1007400010F8015B15F0070301D110F8013B2A11E5
:1007500006D110F8012B03E010F8016B01F8016BD2
:100760005B1EF9D12B0705D40023521E0DD401F8CE
:10077000013BFAE710F8013BCB1A921C03E013F897
:10078000015B01F8015B521EF9D5A142D8D30020CC
:1007900070BD000070B500BF02210D4800F0CEF81A
:1007A0000028F9D00A4800F0C5F80646022108489A
:1007B00000F0A8F80121064800F05DF93046FFF787
:1007C0006CFE04460022034BFFF7E7FD70BD0000FE
:1007D000002801400000B04070B50024002518E05A
:1007E00000BF02210D4800F0A9F80028F9D00B48FD
:1007F00000F0A0F806460221084800F083F8012125
:10080000064800F038F906F0010004436400681C53
:10081000C5B2202DE4DB204670BD0000002401405D
:1008200000B587B0012140F2046001F025F92120D4
:10083000ADF8180000208DF81B0003208DF81A0079
:1008400006A92D4800F00EFA002001908DF808004E
:100850008DF809004FF460200390002004900120DF
:100860008DF8140001A9254800F07CF80523012229
:100870000021224800F09EF80121204800F045F8B0
:1008800001A91F4800F06EF80623012205211C482B
:1008900000F090F801211A4800F037F8174800F0EE
:1008A000E5F800BF154800F052F80028FAD11348C7
:1008B00000F0ECF800BF114800F032F80028FAD13F
:1008C0000F4800F0D3F800BF0D4800F040F80028B2
:1008D000FAD10B4800F0DAF800BF094800F020F820
:1008E0000028FAD10121054800F0C5F8012104488B
:1008F00000F0C1F807B000BD00080140002401402D
:1009000000280140CA430260704721B1826842F06A
:100910000102826003E0826822F001028260704777
:10092000014600208A6802F004020AB1012000E0BA
:10093000002070470146C86C80B270470246002014
:1009400013680B400BB1012000E000207047014606
:1009500000208A6802F008020AB1012000E00020AD
:100960007047000030B502460020002350680F4C4D
:1009700020400D790C6844EA0524204350609068BB
:100980000B4C2040D1E902542C434D7944EA4504F4
:1009900020439060D06A20F470000C7C641EE4B2A6
:1009A000234340EA0350D06230BD0000FFFEF0FF59
:1009B000FDF7F1FFF0B504460D4600200021092D9A
:1009C00011DDE068A5F10A0606EB4607072606FAE0
:1009D00007F18843A5F10A0606EB460603FA06F17D
:1009E0000843E0600CE0206905EB4507072606FA9E
:1009F00007F1884305EB450603FA06F10843206139
:100A0000072A0FDA606B561E06EB86071F2606FACA
:100A100007F18843561E06EB860605FA06F10843E1
:100A2000606322E00D2A0FDA206BD61F06EB8607E3
:100A30001F2606FA07F18843D61F06EB860605FA3D
:100A400006F10843206310E0E06AA2F10D0606EB10
:100A500086071F2606FA07F18843A2F10D0606EB6A
:100A6000860605FA06F10843E062F0BD816841F0B0
:100A700008018160704721B1826842F4A00282605F
:100A800003E0826822F4A00282607047816841F02E
:100A900004018160704700BFFEE7000001200149AA
:100AA00008707047350C00201FB50621002000F0AB
:100AB000B9F84020ADF80C0048208DF80F00032055
:100AC0008DF80E0003A9104800F0CCF840200090EB
:100AD0000C208DF8050000208DF8040001208DF811
:100AE0000600684600F054F817208DF80800022030
:100AF0008DF8090000208DF80A0001208DF80B0008
:100B000002A800F067FB1FBD00080140704700000D
:100B100001B504490098086000BF02480068002839
:100B2000FBD108BD300C002010B5802000F01CF86F
:100B300020B1802000F012F800F076FE402000F096
:100B400013F850B141F2240000E0401E0028FCD10F
:100B5000402000F003F8FFF7A1FF10BD0149086035
:100B60007047000014040140014600200022074B9A
:100B70001B6803EA0102054B14331B680B4013B1D9
:100B80000AB1012000E0002070470000000401408D
:100B9000002123498279002A3AD00A461268036864
:100BA0009A430B461A600A1D126803689A430B1D8C
:100BB0001A60027911440A6803681A430A60184AE5
:100BC0000832126803689A43154B08331A601A1DDD
:100BD000126803689A43124B0C331A604279102A48
:100BE0000ED11A1F126803681A430D4B08331A609E
:100BF0001A1D126803681A43094B0C331A600DE082
:100C00000749427911440A6803681A430A6005E0FB
:100C1000027911440A6803689A430A607047000029
:100C20000004014030B500228B071C0F0F2303FA8C
:100C300004F20B4B8C1053F824309343084C8D1066
:100C400044F8253023468C1053F824308C07240FA9
:100C500000FA04F42343024C8D1044F8253030BDD3
:100C6000080001402DE9F041024600250026002041
:100C700000230024002791F803C00CF00F0591F821
:100C800003C00CF0100CBCF1000F03D091F802C0AF
:100C90004CEA050591F800C0BCF1000F31D0146892
:100CA00000202BE04FF0010C0CFA00F3B1F800C06B
:100CB0000CEA03069E4220D183004FF00F0C0CFA81
:100CC00003F7BC4305FA03FC4CEA040491F803C0A3
:100CD000BCF1280F06D14FF0010C0CFA00FCC2F851
:100CE00014C00AE091F803C0BCF1480F05D14FF0E1
:100CF000010C0CFA00FCC2F810C0401C0828D1D32B
:100D00001460B1F800C0BCF1FF0F34DD546800205E
:100D10002EE000F1080C4FF0010808FA0CF3B1F8CE
:100D200000C00CEA03069E4221D183004FF00F0C55
:100D30000CFA03F7BC4305FA03FC4CEA040491F8EF
:100D400003C0BCF1280F05D100F1080C08FA0CF81B
:100D5000C2F8148091F803C0BCF1480F07D100F12C
:100D6000080C4FF0010808FA0CF8C2F81080401C7B
:100D70000828CED35460BDE8F0814161704701611D
:100D80007047000038B50446002012490870124927
:100D9000087000F047F980200023082219460090CF
:100DA0000E4800F059FA204601F054FF11E000BF50
:100DB000084800780028FBD00748007800B138BD0B
:100DC00000F030F9012801D10349087000200149E1
:100DD0000870ECE7390C00203A0C002030080020A5
:100DE0002DE9F843002019490870194908700024BA
:100DF00000F018F9802000230822194600901548B9
:100E000000F02AFA21E000BF104800780028FBD04B
:100E10000F48007810B12046BDE8F88300F002F9D1
:100E2000012801D10A490870FFF7B4FC05460022E9
:100E3000094BFFF740FA0746FFF73CFBC4B22046D8
:100E400001F008FF002001490870DCE7390C0020A0
:100E50003A0C0020300400200000304001200149FD
:100E600008707047390C002000BFFEE710B504463B
:100E700024B14FF400600C49086003E04FF00060BB
:100E8000094908604FF480600749086000F00EF8D7
:100E90004FF080600449086000F008F84FF40060EB
:100EA0000149086010BD0000100C0140002001E065
:100EB000411CC8B20A28FBDB7047000010B50121B5
:100EC000082000F0D9FD14200549C8704FF4406097
:100ED0000880032088700348FFF7C4FE10BD00009F
:100EE0002C000020000C014070B5002418E04FF4E5
:100EF00080600D490860FFF7D9FF0B48083800688B
:100F0000C0F3C02020B1C4F1070101208840C5B260
:100F10004FF0806004490860FFF7C8FF601CC4B24E
:100F2000082CE4DB284670BD100C014070B5054666
:100F300000241DE0C4F1070045FA00F000F00100B4
:100F400020B14FF400600F49086003E04FF00060EB
:100F50000C4908604FF480600A490860FFF7A6FF5B
:100F60004FF0806007490860FFF7A0FF601CC4B223
:100F7000082CDFDB4FF4006002490860FFF796FFA2
:100F800070BD0000100C014010B54FF4006008491E
:100F9000086040100860FFF789FF4FF000600449C7
:100FA0000860FFF783FF4FF080600149086010BDC3
:100FB000100C014010B54FF0006006490860401069
:100FC000086000140860FFF771FF4FF400600149EA
:100FD000086010BD100C014010B54FF400600D49C1
:100FE0000860FFF763FF4FF480600A490860FFF76D
:100FF0005DFF084808380068C0F3C02008B101242C
:1010000000E000244FF0806002490860FFF74EFFC7
:10101000204610BD100C014010B500F069FCFFF730
:1010200043FD10BD10B500F0A1FB044634B90448DF
:10103000007818B10124002001490870204610BD35
:10104000350C002008B5002000900121042000F09C
:1010500013FD02211D48FFF792FE0220ADF80000AB
:1010600010208DF8030003208DF802006946174810
:10107000FFF7F8FD0121042000F0FEFC04211348D5
:10108000FFF77DFE0420ADF8000010208DF803006E
:1010900003208DF8020069460C48FFF7E3FD0121AB
:1010A000042000F0E9FC08210848FFF768FE08204A
:1010B000ADF8000010208DF8030003208DF8020029
:1010C00069460248FFF7CEFD08BD00000008014058
:1010D00070B504460D4629462046FFF750FE70BD08
:1010E00070B504460D4629462046FFF746FE70BD02
:1010F00010B52C4890F9000000280ADD2948007836
:10110000401E40B22749087002212748FFF7E8FF38
:101110000CE02448007848B922480078401E40B2CC
:101120002049087002212048FFF7D2FF1F4890F99C
:10113000000000280ADD1D480078401E40B21B490F
:10114000087004211848FFF7CBFF0CE0174800781F
:1011500048B916480078401E40B21449087004216E
:101160001148FFF7B5FF124890F9000000280ADD8A
:101170000F480078401E40B20D49087008210A4807
:10118000FFF7AEFF0CE00A48007848B9084800783D
:10119000401E40B20649087008210348FFF798FF37
:1011A00010BD0000360C002000080140370C002064
:1011B000380C00200220014908707047380C0020CC
:1011C0000220014908707047370C002000BFFEE77D
:1011D0007047000070B5002100230F22C47804B3CB
:1011E000154C246804F4E064C4F5E064210AC1F1FC
:1011F0000403CA40447804FA03F18478144021437C
:1012000009010E4C0678A155047804F01F0501244D
:10121000AC4005786D11AD0005F1E025C5F8004141
:1012200009E0047804F01F050124AC40044D067861
:10123000761145F8264070BD0CED00E000E400E0BA
:1012400080E100E002490143024A1160704700005A
:101250000000FA050CED00E02DE9F84F81460D463F
:1012600014461E460A9F2819401E00F0FF0AF01976
:10127000401EC0B20090BAF1080F06DA009880282C
:1012800003DA012C01DB012F02DA36A001F0F0FDB8
:10129000FFF77AFE7820FFF749FE00BFFFF79CFEBC
:1012A0000028FBD1FFF742FE00BFFFF795FE0028A4
:1012B000FBD12220FFF73AFE00BFFFF78DFE00288A
:1012C000FBD12846FFF732FE00BFFFF785FE00285E
:1012D000FBD15046FFF72AFE00BFFFF77DFE002836
:1012E000FBD12120FFF722FE00BFFFF775FE00288B
:1012F000FBD13046FFF71AFE00BFFFF76DFE002856
:10130000FBD10098FFF712FE00BFFFF765FE002833
:10131000FBD1FFF739FE7820FFF708FE00BFFFF78B
:101320005BFE0028FBD14020FFF700FE00BFFFF767
:1013300053FE0028FBD104FB07FB80460CE019F8A4
:101340000800FFF7F3FD00BFFFF746FE0028FBD1C2
:1013500008F101001FFA80F8D845F0DBFFF72AFEFC
:10136000BDE8F88F4F4C45445F4472617750696324
:10137000E68EA5E694B6E588B0E99D9EE6B395E5D0
:101380008F82E695B021000008B580200023082256
:10139000194600900648FFF75FFF002004E0002197
:1013A000044A1154411CC8B21028F8DB08BD0000E3
:1013B000800C00208010002010B5FFF7E5FD78209C
:1013C000FFF7B4FD00BFFFF707FE0028FBD1FFF7D2
:1013D000ADFD00BFFFF700FE0028FBD1AF20FFF7F7
:1013E000A5FD00BFFFF7F8FD0028FBD18120FFF726
:1013F0009DFD00BFFFF7F0FD0028FBD17F20FFF728
:1014000095FD00BFFFF7E8FD0028FBD12020FFF786
:101410008DFD00BFFFF7E0FD0028FBD10120FFF7A5
:1014200085FD00BFFFF7D8FD0028FBD12220FFF784
:101430007DFD00BFFFF7D0FD0028FBD1FFF776FD53
:1014400000BFFFF7C9FD0028FBD10720FFF76EFDA5
:1014500000BFFFF7C1FD0028FBD12120FFF766FD8B
:1014600000BFFFF7B9FD0028FBD1FFF75FFD00BF0C
:10147000FFF7B2FD0028FBD17F20FFF757FD00BF2B
:10148000FFF7AAFD0028FBD1A020FFF74FFD00BF0A
:10149000FFF7A2FD0028FBD1C820FFF747FD00BFE2
:1014A000FFF79AFD0028FBD1D920FFF73FFD00BFD1
:1014B000FFF792FD0028FBD12220FFF737FD00BF88
:1014C000FFF78AFD0028FBD1DB20FFF72FFD00BFCF
:1014D000FFF782FD0028FBD12020FFF727FD00BF8A
:1014E000FFF77AFD0028FBD18D20FFF71FFD00BF1D
:1014F000FFF772FD0028FBD11420FFF717FD00BF96
:10150000FFF76AFD0028FBD1AF20FFF70FFD00BFFA
:10151000FFF762FD0028FBD1FFF736FD7820FFF7CB
:1015200005FD00BFFFF758FD0028FBD14020FFF765
:10153000FDFC00BFFFF750FD0028FBD14FF4806495
:1015400008E00020FFF7F2FC00BFFFF745FD002890
:10155000FBD1641E002CF4DCFFF72CFD10BD000055
:101560002DE9F041FFF710FD7820FFF7DFFC00BF09
:10157000FFF732FD0028FBD1FFF7D8FC00BFFFF7D3
:101580002BFD0028FBD12220FFF7D0FC00BFFFF786
:1015900023FD0028FBD1FFF7C9FC00BFFFF71CFDAE
:1015A0000028FBD10720FFF7C1FC00BFFFF714FDA7
:1015B0000028FBD1804600246FE03B48005D10B955
:1015C0004FF0000867E000255FE03748005D8021AC
:1015D0002941084010B94FF0000854E005EBC40061
:1015E000C6B2B8F1000F3AD1FFF7CEFC7820FFF772
:1015F0009DFC00BFFFF7F0FC0028FBD1FFF796FC35
:1016000000BFFFF7E9FC0028FBD12120FFF78EFC8B
:1016100000BFFFF7E1FC0028FBD13046FFF786FC56
:1016200000BFFFF7D9FC0028FBD17F20FFF77EFC2D
:1016300000BFFFF7D1FC0028FBD1FFF7A5FC782005
:10164000FFF774FC00BFFFF7C7FC0028FBD1402068
:10165000FFF76CFC00BFFFF7BFFC0028FBD10027A1
:101660000CE007EBC601114A505CFFF75FFC00BFBE
:10167000FFF7B2FC0028FBD1781CC7B2082FF0DBC3
:101680004FF0010800BF681CC5B2082D9DDB00208B
:101690000549085500BF601CC4B2102C8DDBFFF754
:1016A00089FCBDE8F081000080100020800C002043
:1016B00010B5FFF769FCE620FFF738FC00BFFFF725
:1016C0008BFC0028FBD1EF20FFF730FC00BFFFF7B9
:1016D00083FC0028FBD1FFF729FC00BFFFF77CFC4F
:1016E0000028FBD1002420E0FFF74EFCE620FFF7A6
:1016F0001DFC00BFFFF770FC0028FBD11A4911F850
:101700001400FFF713FC00BFFFF766FC0028FBD1B5
:10171000154901EB44014878FFF708FC00BFFFF7CB
:101720005BFC0028FBD1601CC4B21E2CDCD3FFF78D
:101730002BFCE620FFF7FAFB00BFFFF74DFC00286B
:10174000FBD1EF20FFF7F2FB00BFFFF745FC0028BD
:10175000FBD1FFF7EBFB00BFFFF73EFC0028FBD1FE
:10176000FFF728FC10BD0000643F000808B52D48B5
:10177000007808B9002008BD00202A490870FFF74A
:1017800003FCE620FFF7D2FB00BFFFF725FC002893
:10179000FBD14320FFF7CAFB00BFFFF71DFC002869
:1017A000FBD1FFF7F1FBE720FFF7C0FB00BFFFF71E
:1017B00013FC0028FBD1FFF797FB8DF800000020F9
:1017C000FFF754FBFFF790FB0002C0B28DF8010059
:1017D0000120FFF74BFBFFF7EDFB9DF800009DF8A4
:1017E000011040EA0120082812D006DC012809D0A7
:1017F000022809D0042811D108E040280AD0802806
:101800000CD109E00320B6E70220B4E70520B2E7D7
:101810000420B0E70620AEE70720ACE700BF00BF1A
:101820000020A8E7340C002001200149087070470F
:10183000340C002010B5FFF7A7FBE620FFF776FB7E
:1018400000BFFFF7C9FB0028FBD1EF20FFF76EFBBD
:1018500000BFFFF7C1FB0028FBD1FFF767FB00BF0C
:10186000FFF7BAFB0028FBD1002420E0FFF78CFB38
:10187000E620FFF75BFB00BFFFF7AEFB0028FBD1C4
:101880001A4911F81400FFF751FB00BFFFF7A4FB42
:101890000028FBD1154901EB44014878FFF746FBCE
:1018A00000BFFFF799FB0028FBD1601CC4B2332CAA
:1018B000DCD3FFF769FBE620FFF738FB00BFFFF73B
:1018C0008BFB0028FBD1EF20FFF730FB00BFFFF7B9
:1018D00083FB0028FBD1FFF729FB00BFFFF77CFB50
:1018E0000028FBD1FFF766FB10BD0000FE3E00089C
:1018F00010B500F021F800F051F810B906A001F081
:10190000B7FA0520FFF704F9FFF794FF0520FFF76A
:10191000FFF8FFF7CDFE10BDE6898BE58ABFE8AF83
:1019200086E588ABE6A8A1E59D97E594A4E98692B3
:10193000E5A4B1E8B4A500001FB507210020FFF71A
:1019400071F98020ADF80C0028208DF80F000320DD
:101950008DF80E0003A91048FFF784F9802000904D
:101960000C208DF8050000208DF8040001208DF872
:1019700006006846FFF70CF917208DF808000220D2
:101980008DF8090000208DF80A0001208DF80B0069
:1019900002A8FFF71FFC1FBD0008014010B5FFF7AC
:1019A000F3FAE620FFF7C2FA0520FFF7B1F8FFF7D8
:1019B000EBFAE620FFF7BAFA0520FFF7A9F8FFF7E0
:1019C000E3FAE620FFF7B2FA00BFFFF705FB0028B5
:1019D000FBD1EF20FFF7AAFA00BFFFF7FDFA0028BE
:1019E000FBD1FFF7A3FA00BFFFF7F6FA0028FBD1FF
:1019F000FFF7CAFAE620FFF799FA00BFFFF7ECFA03
:101A00000028FBD1FFF792FA00BFFFF7E5FA0028A4
:101A1000FBD1FFF7B9FAE720FFF788FA00BFFFF71D
:101A2000DBFA0028FBD1FFF75FFA04460120FFF73D
:101A30001DFAFFF7BFFA204610BD704710B501210F
:101A4000084600F019F80121042000F015F84FF4C1
:101A5000A060FFF7F7FB10BD29B1064AD269024327
:101A6000044BDA6104E0034AD2698243014BDA6134
:101A7000704700000010024029B1064A92690243F3
:101A8000044B9A6104E0034A92698243014B9A61D4
:101A9000704700000010024010B5FEF79DFE04469E
:101AA0002046FEF759FB10BD2DE9F04781460F4651
:101AB0001646BA46504601F071FC0446002003E089
:101AC00000212154411CC8B2B842F9DB00252DE0A9
:101AD000FEF738FB00F0FF084046FEF73DFB002014
:101AE0001FE0A84205D104F8008009EB050131543C
:101AF00019E0215C414500DC11E06A1E51B206E0AC
:101B0000635C4A1CA354735CB3544A1E51B28142B5
:101B1000F6DA04F8008009EB0501315403E0411CBA
:101B2000C8B2A842DDDD00BF681CC5B2BD42CFDB34
:101B3000204601F0ADF9BDE8F087704710B500F020
:101B400001F810BD0CB500200190009033480068EA
:101B500040F480303149086000BF3048006800F42C
:101B6000003000900198401C0190009818B901982D
:101B7000B0F5A06FF1D12948006800F4003010B131
:101B80000120009001E0002000900098012843D13E
:101B90002348006840F010002149086008460068AA
:101BA00020F0070008600846006840F00200086066
:101BB0001A48406819494860084640684860084625
:101BC000406840F4806048600846406820F47C101B
:101BD00048600846406840F4E810486008460068DD
:101BE00040F08070086000BF0C48006800F0007092
:101BF0000028F9D00948406820F0030007494860F0
:101C00000846406840F00200486000BF0348406852
:101C100000F00C000828F9D10CBD000000100240B3
:101C20000020024010B500F057F910BD10B5134860
:101C3000006840F0010011490860084640681049FA
:101C400008400E494860084600680E4908400B49A4
:101C500008600846006820F4802008600846406854
:101C600020F4FE0048604FF41F008860FFF766FF15
:101C70004FF000600449086010BD000000100240F1
:101C80000000FFF8FFFFF6FE08ED00E030B5164853
:101C900000684FF47A72B0FBF2F1B1F1807F01D3AA
:101CA00001201DE021F07F40401E4FF0E0225061F6
:101CB00050170F22002807DA13071D0E0B4B00F0F8
:101CC0000F04241F1D5503E013071C0E084B1C5462
:101CD00000BF00204FF0E02290610720106100203B
:101CE00008B100BFFEE730BD0000002018ED00E0A5
:101CF00000E400E010B50121880700F042F800F090
:101D000035F810BD1FB51C208DF80C0001208DF892
:101D10000D008DF80E008DF80F0003A8FFF75AFA9A
:101D200001210846FFF798FE40F2F310ADF80400D9
:101D300041F61F40ADF800000020ADF80600ADF8F8
:101D400002008DF8080069464FF0804000F032F83C
:101D50000121880700F012F801221146900700F0D7
:101D60001FF80121880700F00FF81FBD10B500F023
:101D7000A1F8FFF773F8FFF7BBF910BDCA43028261
:101D80007047CA430282704721B1028842F00102C3
:101D9000028004E002884FF6FE731A40028070470A
:101DA0001AB183890B43838102E083898B4383814A
:101DB00070470000002202881D4B98420ED01D4B38
:101DC00098420BD0B0F1804F08D01B4B984205D001
:101DD0001A4B984202D01A4B984204D14FF68F7397
:101DE0001A404B881A43174B984207D0164B98421B
:101DF00004D04FF6FF431A40CB881A4302808B88E9
:101E000083850B8803850A4B98420BD0094B984277
:101E100008D00E4B984205D00D4B984202D00D4B86
:101E2000984201D10B7A0386012383827047000018
:101E3000002C014000340140000400400008004034
:101E4000000C004000100040001400400040014021
:101E5000004401400048014070B504461248047037
:101E600000F0DCFB1BE009E0FFF7DCF8054625B1DC
:101E7000284600F03BFC00F075F900BF0B4890F9D4
:101E800000000028F0DC00F0DFFC00F06BF9FFF749
:101E900091F900BF054890F900000028FADD0448D8
:101EA00000780028DFD170BD200000201F00002036
:101EB00021000020064890F90000401C05490978DF
:101EC00090FBF1F201FB120040B20149087070472B
:101ED0001F000020200000200448006820B10348B3
:101EE0000068401E0149086070470000300C002067
:101EF00000BFFEE72DE9F04788B04548007840B1C3
:101F00000020434908704348007840F0FE004149F2
:101F10000870002401E0601CC4B23F4830F814008F
:101F200008B1182CF7DB4FF0000AD1462EE03A48F2
:101F300030F81900C0F3090040F2FF31884204D0A4
:101F400009F1010000F0FF0920E00AF1010000F0B2
:101F5000FF0A484617E0611E814204D100212E4A43
:101F600022F8101005E02C4A411C32F8111022F81A
:101F70001010294931F8101041F40041264A22F886
:101F80001010411CC8B2A042E5DB00BFA145CEDB6A
:101F9000BAF1000F31D01F48007840F001001D4910
:101FA00008701E490978C1F11300FEF765FA07466B
:101FB00088465046FEF771FA02460B46CDE900010D
:101FC00000204FF0804101F01FFA3A464346CDE928
:101FD0000201FEF770F905460E4611480068FEF74B
:101FE0005CFA2A463346CDE90401FEF7BDF8CDE997
:101FF0000601FEF75FFA0A4908600748008DC0F342
:10200000090010B100200749087008B0BDE8F0874A
:10201000230000201E0000204C0C00202000002087
:1020200014000020210000202DE9F04706460F464D
:1020300000210B460C4600200DE001218140394073
:1020400001B906E02F4901EBC00206CA0B43144355
:1020500000BF411CC8B20A28EFDBC6F1130000EB39
:102060008000173000F0FF0C012546E00CEB050165
:10207000C8B24FEAE07800EB58784FEAE808DFF89A
:10208000889019F8088002464FEAE07900EB597908
:102090004FEAE909A0EBC90A4FF0800949FA0AF9A9
:1020A00048EA090801464FEAE07900EB59794FEA1E
:1020B000E909DFF854A00AF80980144901EBC002CD
:1020C00006CA4FF00F08DFF8489001EA080102EA5B
:1020D0000902DFF8388008EBC008C8E900120B4994
:1020E00001EBC00206CA19432243DFF8208008EB47
:1020F000C008C8E90012681CC5B2042DB6DDBDE8F1
:10210000F0870000303E000880100020800C002086
:10211000000080FFF0B503460D46164600211BE087
:10212000585C284442B2481C185C304444B2142C19
:1021300000DB0FE0002A0ADB0A2A08DA002C06DBA3
:10214000074830F8140001279740384008B10020B4
:10215000F0BD00BF881CC1B20829E1DB0120F7E710
:102160004C0C00202DE9F0419F48007800F0010060
:10217000002861D09D48046800255AE00A20B4FB7D
:10218000F0F100FB114601234CE0142101EB850125
:102190001944C8B2C71700EB5777FF10DFF850C2D9
:1021A0001CF8077002464FEAE07C00EB5C7C4FEACB
:1021B000EC0CA0EBCC084FF0800C4CFA08FC47EA82
:1021C0000C0701464FEAE07C00EB5C7C4FEAEC0C2C
:1021D000DFF81C8208F80C70864901EBC001D1E9D8
:1021E00000214FF0F8473943824F07EBC007C7E99A
:1021F000002106EB4601804A0A44591E515C0F0635
:102200000021CA43F9437B4F07EBC00CDCE9007C9B
:102210003A4001EA0C01774F07EBC007C7E90021FC
:10222000581CC3B2032BB0DD0A20B4FBF0F4681CC9
:10223000C5B2002CA2D100BF6B48007800F00200AC
:10224000002843D000233FE003F10C01C8B2C417BB
:1022500000EB5474E410664D2C5D0246C51700EB8C
:102260005575ED10A0EBC506802535412C43014680
:10227000C51700EB5575ED105D4E74555D4901EBCA
:10228000C001D1E900216FF4FF552A40594C04EBFD
:10229000C004C4E90021574901EBC00130C95749C6
:1022A000574A127801EB8201CA5C0021490141EAD8
:1022B000D2615601344345EA01024E4901EBC001A7
:1022C000C1E90042581CC3B2042BBDDB464800786C
:1022D00000F00400F0B3002341E003F10C01C8B2A8
:1022E000C41700EB5474E410414D2C5D0246C51731
:1022F00000EB5575ED10A0EBC506802535412C434C
:102300000146C51700EB5575ED10394E7455394926
:1023100001EBC001D1E900216FF0FF452A40354CA7
:1023200004EBC004C4E90021324901EBC00130C90B
:102330003249344A127801EB8201C95C0022D2058D
:1023400042EA5122CE05344345EA0201294A02EB12
:10235000C00200E005E0C2E90041581CC3B2042BF2
:10236000BBDB2148007800F00800D0B1204800789D
:1023700040F004001E4908702348007840B11D4811
:10238000D0E90A10214B19401A4AC2E90A1008E0A4
:102390001849D1E90A011D4AD2431043154AC2E93E
:1023A0000A01002417E01A4830F8140000F4004035
:1023B00000B90EE0164830F814102046FFF734FE3E
:1023C000134830F81400C0F30E00114921F814002E
:1023D00000BF601CC4B2142CE5DB00200249087069
:1023E000FFF7BEF8BDE8F0811E00002014000020B9
:1023F00080100020800C0020A03E0008803E0008D5
:102400001C0000201D00002023000020BD97FEFFBF
:102410004C0C00203EB55C48007800B93EBD01A8D8
:1024200000905A4890F90030594890F900205948D6
:1024300001785548007800F0B1F8002031E001A99A
:1024400001EB400191F90110182900DB27E001A9F7
:1024500001EB400191F901104F4A32F8111001AA25
:1024600012F8103001229A40914301AA02EB400277
:1024700092F90120484B23F8121001A901EB400109
:1024800091F901101A4632F8111041F4004101AAE5
:1024900002EB400292F9012023F8121000BF411C08
:1024A000C8B20428CBDB0125002407E0601E44B23B
:1024B0002246002101A8FFF72DFEC5B2002DF5D15F
:1024C000601C44B231480078204440B22F49087063
:1024D00001A80090084690F900302D4890F900209E
:1024E0002C4801782848007800F058F8002046E091
:1024F00001A901EB400191F90010002914DB01A9A9
:1025000001EB400191F900100A290DDA01A901EB54
:10251000400191F90110002906DB01A901EB4001FE
:1025200091F90110182900DB27E001A901EB400116
:1025300091F90110184A32F8111001AA12F810305E
:1025400001229A40114301AA02EB400292F90120B4
:10255000114B23F8121001A901EB400191F9011070
:102560001A4632F8111041F4004101AA02EB400270
:1025700092F9012023F8121000BF411CC8B20428B0
:10258000B6DB00BF4AE70000180000201B00002057
:102590001A000020190000204C0C00202DE9F04703
:1025A00005460E4617469846DDF8209015B910A04E
:1025B00000F05EFC184800EBC50030F81640002023
:1025C00011E004F00301394449B209F81010A410D5
:1025D00004F0030141444AB24100491C09F80120BA
:1025E000A410411CC8B20428EBDBBDE8F087000052
:1025F000547269656420746F2067657420626C6F23
:10260000636B73206F6620426C6F636B54797065E7
:102610005F4E6F6E65000000BE3E00082DE9F04180
:10262000002421E00021244A02EBC4021160516021
:10263000002515E005EBC40020490E5C0027EA00E8
:1026400030463946FDF76EFD1B4A02EBC4030CCB46
:1026500010431943184A02EBC40203C2681CC5B2F6
:10266000082DE7DB601CC4B2802CDBDB002005E01A
:102670000021134A22F81010411CC8B21828F7DBB9
:10268000002010490860104908701049087010496E
:1026900008701049087010490870104908701049F6
:1026A000087001200F4908700F490870FEF7BAFC46
:1026B000FEF76AFEBDE8F081800C002030000020AB
:1026C0004C0C0020140000201C0000201D000020E5
:1026D000180000201E0000202200002023000020FF
:1026E0002B000020210000201F00002070B50446B0
:1026F0000125A01E062821D2DFE800F003060D12F6
:10270000171B00F027F81BE0012010490870FF207C
:102710000F49087014E00021481E00F0C9F80FE0CE
:102720000021012000F0C4F80AE0012000F084F943
:1027300006E04FF0FF3000F07FF901E0002500BF18
:1027400000BF0DB1FEF73CFD70BD0000220000206F
:102750001F0000203EB53448007800B13EBD33482C
:10276000007800B9FAE701202F49087001A800900D
:102770002F4890F900302F4890F900202E4801781A
:102780002A480078FFF70AFF002031E001A901EB99
:10279000400191F90110182900DB27E001A901EBA4
:1027A000400191F90110254A32F8111001AA12F8DE
:1027B000103001229A40914301AA02EB400292F9A3
:1027C00001201E4B23F8121001A901EB400191F9E1
:1027D00001101A4632F8111041F4004101AA02EB2F
:1027E000400292F9012023F8121000BF411CC8B228
:1027F0000428CBDB1248007840F00A00104908702A
:1028000003200C49087014200949087000200A4967
:1028100008700C480478054800780A490870034895
:10282000047000BF9AE70000230000201800002079
:102830001B0000201A000020190000204C0C002072
:102840001E0000201C00002010B51448007850B96C
:1028500003201349087014201249087000201249FF
:10286000087000F0C3F91148007848B1FFF7D2FDB5
:1028700000200E49087009490870FFF73BFB10BDA6
:102880004FF0FF31002000F013F828B90020034971
:102890000870FFF72FFBF2E700BFF0E718000020F9
:1028A0001A0000201B000020190000202200002038
:1028B000FEB504460D465B48007808B90120FEBD10
:1028C00001A80090584890F90030584890F900202D
:1028D0005748017853480078FFF760FE002031E048
:1028E00001A901EB400191F90110182900DB27E053
:1028F00001A901EB400191F901104E4A32F8111083
:1029000001AA12F8103001229A40914301AA02EB69
:10291000400292F90120474B23F8121001A901EB64
:10292000400191F901101A4632F8111041F40041AA
:1029300001AA02EB400292F9012023F8121000BF15
:10294000411CC8B20428CBDB2A46214601A8FFF768
:10295000E1FB06465EB135480078204440B2334979
:10296000087031480078284440B22F49087001A807
:1029700000902D4890F900302C4890F900202C4808
:10298000017828480078FFF709FE002046E001A9F9
:1029900001EB400191F90010002914DB01A901EBC2
:1029A000400191F900100A290DDA01A901EB40015B
:1029B00091F90110002906DB01A901EB400191F911
:1029C0000110182900DB27E001A901EB400191F972
:1029D0000110184A32F8111001AA12F81030012221
:1029E0009A40114301AA02EB400292F90120114BD7
:1029F00023F8121001A901EB400191F901101A46C8
:102A000032F8111041F4004101AA02EB400292F9A0
:102A1000012023F8121000BF411CC8B20428B6DB05
:102A200030464CE7180000201B0000201A00002050
:102A3000190000204C0C0020FEB5044666480078C2
:102A400008B90120FEBD01A80090644890F900304B
:102A5000634890F90020634801785F480078FFF7E9
:102A60009DFD002031E001A901EB400191F9011029
:102A7000182900DB27E001A901EB400191F90110C1
:102A8000594A32F8111001AA12F8103001229A4066
:102A9000914301AA02EB400292F90120524B23F824
:102AA000121001A901EB400191F901101A4632F808
:102AB000111041F4004101AA02EB400292F90120F9
:102AC00023F8121000BF411CC8B20428CBDB01A8B8
:102AD000009044480078001D0619F01706EB90702E
:102AE0008010A6EB8000C1B23C4890F900303C4811
:102AF00090F9002038480078FFF750FD0022114679
:102B000001A8FFF707FB05465DB136490978091DA5
:102B10000819C11700EB91718910A0EB8101314AAE
:102B2000117001A800902D4890F900302C4890F9C0
:102B300000202C48017828480078FFF72FFD00205E
:102B400046E001A901EB400191F90010002914DBD6
:102B500001A901EB400191F900100A290DDA01A940
:102B600001EB400191F90110002906DB01A901EBFD
:102B7000400191F90110182900DB27E001A901EBC0
:102B8000400191F90110184A32F8111001AA12F807
:102B9000103001229A40114301AA02EB400292F93F
:102BA0000120114B23F8121001A901EB400191F90A
:102BB00001101A4632F8111041F4004101AA02EB4B
:102BC000400292F9012023F8121000BF411CC8B244
:102BD0000428B6DB284635E7180000201B0000203B
:102BE0001A000020190000204C0C002010B51448D9
:102BF000007820B9134A07210120FEF755FF12483B
:102C00000078124908700F480D490978405C0E4958
:102C100008700B480078401C072190FBF1F201FB83
:102C20001200074908700A48007840F0040008497B
:102C300008700648007808B9FFF7D8FF10BD0000FB
:102C40002B000020240000201D0000201800002080
:102C50001E0000202DE9FF5F0546002007E000224E
:102C60002F4B03EBC0031A605A60411CC8B2052801
:102C7000F5DB6DB12846FDF710FCCDE9000100F051
:102C8000DDFA0022274BCDE90201FDF76DFA01E0E4
:102C9000002024498046FDF70DFCC6B21C2000EB45
:102CA000460000F0FF0B4FF000082CE0042000FB72
:102CB00018B000F0FF0900241CE00A20B5FBF0F179
:102CC00000FB115000EB800017490844075D4FF0EE
:102CD000000A4A4638465146FDF724FA104A02EBEC
:102CE000C4030CCB104319430D4A02EBC40203C2C8
:102CF000601CC4B2052CE0DB0A20B5FBF0F508F13E
:102D0000010000F0FF08B045D0DB05203E2308227B
:102D1000002100900248FEF79FFABDE8FF9F0000E7
:102D2000901000200000F03FA03F0008490050EA4A
:102D3000C12018BF04204A0D18BF40F0010040F226
:102D4000FF72B2EB515F08BF40F00200012808BFDC
:102D5000052070472DE9F0414F1E00EBC7010446E6
:102D6000D1E9000115461E4637F006020DD02A466D
:102D70003346FDF7A0FA7F1E04EBC703D3E9002317
:102D8000FDF7F2F937F00602F1D1022F25D0042F1A
:102D900013D0062F18BFBDE8F0812A463346FDF751
:102DA0008AFAD4E90A23FDF7DFF92A463346FDF70C
:102DB00082FAD4E90823FDF7D7F92A463346FDF70E
:102DC0007AFAD4E90623FDF7CFF92A463346FDF710
:102DD00072FAD4E90423FDF7C7F92A463346FDF712
:102DE0006AFAD4E90223FDF7BFF92A463346FDF714
:102DF00062FAD4E90023BDE8F041FDF7B5B900005F
:102E00000022134610460149FDF7C7BA0000F03F03
:102E10000122FDF7E7BBFDF7A7B9002213461046D4
:102E20001146FDF7BABA40F2013200204FF0E041FE
:102E3000FDF7D8BB024A00201107FDF7D3BB000005
:102E400001FDFFFF02E008C8121F08C1002AFAD1E5
:102E500070477047002001E001C1121F002AFBD11A
:102E6000704700000149086070470000480C0020CE
:102E700002210648FEF734F904210448FEF728F938
:102E800008210248FEF724F900BFFEE700080140D0
:102E900010B5002821D0114B0022001F196803E053
:102EA000814203D80A4649680029F9D152B1136812
:102EB000841A9C4204D1006818441060104602E055
:102EC000506000E0186039B102680B1A934203D1D8
:102ED0000B681A4402604968416010BD400C002034
:102EE0002DE9F04DC84A002490B0914205DA21F056
:102EF0000043934201D805D120B110B0BDE8F04D98
:102F0000FFF786BFB1F5801F1BDA53EA000209D034
:102F1000002911DA0120FFF7A5FF10B0BDE8F04D40
:102F2000FFF77BBF0220FFF79DFFFFF769FF10B09F
:102F300081F00041BDE8F08D6FF035043622FDF7D9
:102F400051FB04EB2152C1F31308B049A2F2FF3345
:102F5000414401F4801282F07F6103EB225281F040
:102F60004051009241EA08010022A94BFDF79DF96A
:102F7000044608F10200A74EC0F313000D467E443C
:102F8000032867D2D6E900232046FDF7BFFB1ED1F8
:102F90000098002802BFD6E9000110B0BDE8F08D0E
:102FA000FDF76AFA07460C469B4A9C4BFDF783F9EE
:102FB00006460D469A4A9B4B38462146FDF77BF95B
:102FC00010B032462B46BDE8F04DFDF7CDB84FF0BE
:102FD0005532954B20462946FDF76DF90022934B5B
:102FE000FDF766F906460F4622462B46104619465F
:102FF000FDF761F932463B46FDF75DF9064600985C
:103000000F46F0B1FDF738FA80468A46824A834B74
:10301000FDF751F932463B46FDF74AF922462B4669
:10302000FDF743F905460C467D4A7E4B4046514626
:10303000FDF741F910B02A462346BDE8F04DFDF7F3
:1030400034B90B4610B0324620462946BDE8F04D53
:10305000FDF72BB900224FF080432046FDF784F89E
:1030600002460B4620462946FDF797F906460F46CD
:103070000098FDF701FACDE9040132463B461046BF
:103080003946FDF718F90C9069480C9A40440190B4
:1030900009910B461046FDF70EF982460246654837
:1030A0008B46C8F151080B4608F5D7280321784410
:1030B000FFF750FE52465B46FDF7FDF80A905E486A
:1030C0000D9152465B4604217844FFF743FE099B6D
:1030D0000C9AFDF7F0F8844601980D9B40EA080829
:1030E00060460A9AFDF740F883460891B8F1000F50
:1030F0004EDD4FF0FF3220462946FDF773FA224697
:103100002B46FDF7D8F8804600988A4660B3DDE983
:103110000401414A414BFDF7CEF8099100905A460F
:1031200040465146089BFDF71FF832463B46FDF7E7
:10313000C2F8099B009AFDF717F842465346FDF77F
:10314000B7F822462B46FDF7B0F804460D46DDE9F8
:103150000401334A334BFDF7AEF810B022462B463C
:10316000BDE8F04DFDF7A1B85A464046089BFCF774
:10317000FBFF32463B46FDF79EF842465346FDF7BD
:1031800097F810B022462B46BDE8F04DFDF790B8F9
:10319000009840B3DDE904011F4A204BFDF78BF88E
:1031A00080468A465A4620462946089BFDF77DF808
:1031B00032463B46FDF77FF842465346FDF775F829
:1031C00022462B46FDF771F804460D46DDE9040161
:1031D000134A144BFDF76FF810B022462B46BDE89A
:1031E000F04DFDF762B80B465A4620462946FDF7DA
:1031F0005CF832463B46FDF75EF810B022462B469F
:10320000BDE8F04DFDF754B80000F07F645F0900A1
:103210000000F03F16110000763C7935EF39EA3DA9
:103220000000E0FE422EE63F5555D53F0000E03F4E
:1032300086EBF9FFAE0F0000AC0F00002DE9F04166
:10324000044630480025814205DA21F000428242DE
:1032500001D805D124B12046BDE8F041FFF7D8BD23
:10326000B1F5801F1BDA52EA040008D000290FDAFA
:103270000120FFF7F7FDBDE8F041FFF7CEBD0220CA
:10328000FFF7F0FDFFF7BCFD81F00041BDE8F081E4
:103290006FF0350536222046FDF7A4F9044605EB0C
:1032A0002150A0F2FF32D00F40F2FF331B1A0D461F
:1032B00063F31F551044FDF7DFF806460F46294615
:1032C0002046FFF70DFE104A104BFCF7F4FF0446B2
:1032D0000D460F4A0F4B30463946FCF7ECFF2246AD
:1032E0002B46FCF741FF05460C460B4A0B4B30467C
:1032F0003946FCF7E0FF2A462346BDE8F041FCF7DB
:1033000033BF00000000F07F0EE526157BCBDB3FCE
:10331000362BF111F3FE593D00609F501344D33F0B
:10332000FEF78CFBFDF78EFEFEF7ECFCFEF7AEFC25
:10333000FDF776FAFDF7C2FDFEF73EF8FDF76CFEED
:10334000FEF7AAFB02211448FDF7CAFE0421124829
:10335000FDF7C6FE08211048FDF7C2FE6420FDF708
:10336000D7FB02210C48FDF7B3FE04210A48FDF704
:10337000AFFE08210848FDF7ABFE00BFFDF730FDAA
:103380000446C4F11100C5B22846FEF765FD0646A5
:103390002046FDF7F7FCF1E700080140F0B50B30DF
:1033A000154D20F007010024144A0FE003688B42FA
:1033B0000BD38B4205D95E1A43184768C3E90067EF
:1033C00000E04368136002C004E0021D106800289A
:1033D000ECD12046002802D1286808B10020F0BDB9
:1033E000064A07481060074A121A22F00702C0E98D
:1033F000002401202860D7E7440C0020400C002066
:10340000AC100020A81200202DE9F04D1D460C46FE
:1034100098B0174621F0004123F00043002814BF64
:103420004FF0010C4FF0000C0CEB440CFE4A0CEB7F
:1034300002064FEA620C66452BD33E0018BF0126F8
:1034400006EB45061644F94A964222D3F84A53EA57
:10345000070C02D0944205D148B918B0002011469B
:10346000BDE8F08D002808BF4FF0000C01D04FF0F0
:10347000010C0CEB440212F5001F0AD8002F14BFF8
:103480004FF0010C4FF0000C0CEB450212F5001F41
:1034900007D918B03A462B462146BDE8F04DFFF754
:1034A000BABC0022DFF88CA3002CB8BF534526DA43
:1034B000DFF884C36345A8BF022220DADFF870C3B7
:1034C0009C451CDCDFF874C30CEB235CBCF1140FCF
:1034D00008DDCCF1340627FA06FC0CFA06F6BE42EB
:1034E0000DD108E05FB9CCF1140623FA06FC0CFA02
:1034F00006F69E4203D10CF00102C2F1020251EA2B
:10350000000C19D1002D17DA002C18BF022A01D0A7
:10351000012A07D00220FFF7A5FC18B0BDE8F04D46
:10352000FFF76EBC0220FFF79DFCFFF769FC18B0A7
:1035300081F00041BDE8F08DB7F1000C6CD153452E
:1035400025D104F1804212F5801201BF002800202D
:10355000B74918B008BFBDE8F08DB548884207DC10
:10356000002DA1BF6046294618B0BDE8F08D07E0E8
:10357000281E05DA80F0004118B06046BDE8F08DE5
:10358000AF497944D1E9000118B0BDE8F08DDFF80A
:10359000A0C2634525D1002D1FDA19B1514512D1C2
:1035A000D8B909E0002840F0EC82A24A214618B0C0
:1035B00062F31E01BDE8F08D0020214618B060F3D3
:1035C0001E01BDE8F08D08DA18B02346BDE8F04DC5
:1035D000024600206146FCF7E0BE18B02146BDE877
:1035E000F08D514518DAB5F1804F0DD0A5F1005C92
:1035F000BCF1FF5C10D1B4F1000C0DDB18B06146DA
:10360000BDE8F04D00F0ECBB234618B00246BDE823
:10361000F04D1946FCF74FBE060024F0004C3BD19C
:10362000D9B1514533D1002C06DD002DA1BF0020BA
:10363000514618B0BDE8F08D002C01DD002D1BDBDC
:10364000002C13DA002D11DB012A4FF0000014BF0B
:1036500078497C4918B0BDE8F08D022A18BF002CCB
:103660000AD0012A08D1002C06DA0AE0002CB8BFE3
:10367000002D11DA012A04D0002018B00146BDE85F
:10368000F08D18B000204FF00041BDE8F08DA1F1A1
:103690004050B0F17F601AD0012000EBE47050EA96
:1036A000020421D0624C521E4FF0000B104304BFA5
:1036B0004FF0000B644C654883427CDD644A6548EA
:1036C00093421FDD884217DB002D25DB37E0002CFD
:1036D00000DA4AB1022A0CBF01204FF0FF3018B0C7
:1036E000BDE8F04DFCF7C8BE0120FFF7BBFB18B0EA
:1036F000BDE8F04DFFF791BB4D4A8A4202DC002D38
:103700000ADC1CE0814202DA002D18DA04E0484BA2
:10371000994220DD002D12DD0220FFF7A3FBFFF709
:1037200082FB05460E460022534658462146FCF7CA
:10373000C2FD18B066F31E012846BDE8F08D0220D8
:10374000FFF790FBFFF776FB0A46214618B062F3BD
:103750001E01BDE8F08D002230466146FCF7A5FD54
:1037600080460E466FF00102FCF73CFF4FF05532E9
:10377000394BFCF79DFD42463346FCF79CFD002289
:10378000364BFCF795FD824642463346049110467F
:103790001946FCF790FD5246049BFCF78CFD8A46C7
:1037A00000904FF0C0422E4B40463146FCF783FD5F
:1037B0002C4A2B4B00E027E0CDE90601514600984A
:1037C000FCF779FD82460191274A284B4046314655
:1037D000FCF771FD5246019BFCF767FD82460B46E4
:1037E00002460591DDE90601FCF7BEFCDDE9062392
:1037F000002688463046FCF758FD5246059BFCF7EC
:1038000057FD024600F07EB90020B1F5801F07DAAF
:10381000352230466146FCF7E5FE06466FF034007F
:1038200000EB215024E00000FFFF1F00FFFF0F000E
:103830000000F03F0000F07F0000404301FCFFFF6C
:10384000120B00000000F0FF0000F0BF0000E0419C
:103850000000F043FFFFEF3F5555D53F0000E03F2C
:103860004715F73FFE822B6544DF5DF80BAE543EF3
:10387000A0F2FF300190C1F3130040F07F6141F0EE
:1038800040510291FE498842D8BF002004DDFD4925
:103890008142C8BF012001DD0D9008E000200D909D
:1038A0000198401C01900298A0F5801002900299A6
:1038B000F54878440B910D9900EBC100D0E9002345
:1038C0000F9330460A920B99FCF7EFFCCDE9060105
:1038D000DDE90A2130460F9BFCF746FC02460B4609
:1038E0000020EA49FCF759FD059102460B4600907D
:1038F000DDE90601FCF7DFFC1490E5488A464FF04D
:10390000000878440299006812904FF0005040EA95
:1039100061010D980F9B01EB804000F5002109919A
:103920000A9A1298FCF7C1FC32460B9BFCF7C0FCCC
:1039300042465346FCF7BFFC0646029140465146BC
:10394000099B129AFCF7B7FCDDE90623FCF7B0FCF3
:103950003246029BFCF7A9FC059B009AFCF7ABFCE6
:103960000091149A0490534610461946FCF7A3FCA4
:1039700006460246C7480B46029106217844FFF7E7
:10398000E9F9CDE90510029B324610461946FCF7CD
:1039900092FCDDE90532FCF78EFC059106465346A4
:1039A00040461946149AFCF7DFFB009B049AFCF78B
:1039B00082FC3246059BFCF7D7FBCDE90510424659
:1039C000534610461946FCF776FC0022B24B029192
:1039D0000A90FCF7C9FBDDE90532FCF7C5FB0E4692
:1039E0004246AD4B4046FCF760FC029B0A9AFCF74E
:1039F0005CFCDDE90532FCF75BFC424602910A9073
:103A0000334610465146FCF756FCCDE906015346B5
:103A1000149A02990A98FCF74EFC8A4602903346A3
:103A2000424600990498FCF746FC5346029AFCF77C
:103A30009BFB82460B4602460591DDE90601FCF739
:103A400093FBDDE90623002088460646FCF72DFCA3
:103A50005246059BFCF72CFC824609914FF06042D0
:103A60008E4B30464146FCF726FC049006918C4A6A
:103A70008A4B50460999FCF71EFC82460291894AFE
:103A8000894B30464146FCF716FC5246029BFCF738
:103A90006BFB864B7B440D9A03EBC203D3E90023F7
:103AA000FCF762FB0E9007910198FCF7E5FC05918D
:103AB000DDE9061382460E9A0498FCF755FB7C4A12
:103AC0007A440D9B02EBC303D3E9002300930292D7
:103AD000FCF74AFB5246059BFCF746FB002688464E
:103AE00052463046059BFCF7E0FB009B029AFCF730
:103AF000DCFB069B049AFCF7D8FB079B0E9AFCF7AD
:103B0000D7FB024600200B46029038462946FCF7B8
:103B1000D2FB824601912B4638461946029AFCF7A1
:103B2000C4FB32464346FCF7C6FB5246019BFCF7FA
:103B30001BFB07468A463246434629460298FCF755
:103B4000BAFB05460E463A465346FCF70DFB594A6A
:103B50008846914221DBA8EB020353EA000210D110
:103B60002A463346FCF7A1FBCDE90401524A534BE8
:103B700038465146FCF7F8FADDE90423FCF74AFD24
:103B800021D20220FFF76EF9FFF74DF90A462146D0
:103B900018B062F31E01BDE8F08D494B28F00042D9
:103BA0009A4210D3474A08EB020353EA00027FF41B
:103BB000C6AD2A463346FCF778FB3A465346FCF737
:103BC00029FD7FF6BCAD0022019228F000403E495D
:103BD0003E4A01EB2051824223DA481C4FF4801107
:103BE00021FA00F040443A4AC0F30A517A44394B72
:103BF000A1F2FF31CB4020EA0303C0F3130040F4ED
:103C00008010C1F11401C84012680190B8F1000F92
:103C1000BCBF4042019028463146FCF746FB0546B2
:103C20000E462A46334638465146FCF79DFA4FF079
:103C300000084246284B40460591FCF73CFBCDE985
:103C40000601264A264B40460599FCF734FB0091B5
:103C500002902A46334640460599FCF726FB3A4631
:103C60005346FCF725FB1F4A1F4BFCF724FB009B28
:103C7000029AFCF779FA0746884602460B4635E079
:103C80008E9803007AB60B00220700000000F03F78
:103C900092070000880600000000084009C7EE3FB8
:103CA000FD033ADCF5015B14E02F3EBE6005000029
:103CB0002405000000009040FE822B654715973CCC
:103CC00000CC904000346F3F01FCFFFF0000E03F5C
:103CD000A8040000FFFF0F00432EE63F396CA80C3C
:103CE000615C20BEEF39FAFE422EE63FDDE90601B7
:103CF000FCF73AFADDE9062305460E46FCF7D5FA4D
:103D00003A464346FCF7D4FA0F462A46334600901B
:103D100010461946FCF7CFFA824602462E488846DE
:103D20000B4605217844FFF715F852464346FCF749
:103D3000C2FA2A463346FCF7BBFA80468A463B461F
:103D400028463146009AFCF7B6FA3B46009AFCF743
:103D50000BFA0691009000224FF0804340465146F6
:103D6000FCF7A3FA0F460C904246534628463146CC
:103D7000FCF7A1FA3B460C9AFCF70FFB069B009A56
:103D8000FCF793FA2A463346FCF78FFA0022134BCE
:103D9000FCF78EFA054601980E4601EB0051081516
:103DA000002810DC28463146019AFCF71BFCFEF780
:103DB000BDFF042808BFFFF73DF828463146019AA9
:103DC000FCF710FC05460B4618B02A46584621461B
:103DD000BDE8F04DFCF76FBA100300000000F03FA3
:103DE0002DE9F04106460F46FCF73EFC041E0D4649
:103DF00018BF0120284320F00040C0F17F6000F18F
:103E0000E040C00F0ED0301C18BF0120384320F016
:103E10000040C0F17F6000F1E040C00F04BF01200E
:103E2000FFF720F820462946BDE8F0810000000099
:103E3000E001000000000000003C00000000000065
:103E400000800700000000000000F00000000000FB
:103E50000000001E00000000000000C00300000081
:103E6000000000007800000000000000000F0000CB
:103E70000000000000E001000000000000003C0025
:103E80000000000000FFFF007E7E18183C3C3C3C18
:103E90001E1E787878781E1E06067E7E60607E7E06
:103EA0007C447C407C445C54747C54547C101C7472
:103EB000545C74547C7C04047C547C7C545C000012
:103EC0000000000000009D1567459D1567456915B8
:103ED00056145914694556125612561256126A153E
:103EE00045126A15451269255601692556016A125F
:103EF00068459A155624591256049A266A45EF00C9
:103F000037073817390641004200462D470F483C15
:103F100049004A1E4C2051105E10602780428144A7
:103F200082048B019006950A960C97059A149C3F83
:103F3000A519CC19CD0BCE13CF64D021EF01020F00
:103F40000310040225012739287F29083EFF5E3D22
:103F50006596679769CD6A016D2C6E0172017335A4
:103F600074007701EF0041004200EF00483C490037
:103F7000511083209FF9EF01011E020F031004026C
:103F800041404330659666006797680169CD6A01D4
:103F90006BB06C046D2C6E017400EF0041FF4201A8
:103FA00007050505070302020207070407010707C3
:103FB00004070407050507040407010704070701B0
:103FC0000705070704040404070507050707050795
:103FD0000407000000000000000000000000F03FA7
:103FE000000000000000F83F00000000000000009A
:103FF0000000004003B8E23F0000000000000000A5
:1040000006D0CF43EBFD4C3E033333333333E33F32
:10401000FFAB6FDBB66DDB3F4D268F515555D53F5E
:1040200001411DA96074D13F65DBC9934A86CD3F2C
:10403000EF4E454A287ECA3F3E5555555555C53F1A
:1040400093BDBE166CC166BF2CDE25AF6A56113F0C
:10405000F16BD2C541BDBBBED0A4BE726937663E0E
:1040600004FA97999999D93FAF788E1DC571CC3FC5
:104070009FC678D0099AC33F935555555555E53F8E
:10408000599322942449D23FDE03CB966446C73F1E
:1040900044523EDF12F1C23F000000000000000069
:1040A000C0400008000000204C0C00003C07000845
:1040B0000C4300084C0C00205C0A0000542E000841
:1040C0001184A24A04C0090102030406070809F288
:1040D0000A0A15FF012D43680F6D0828217B6B6FBD
:1040E0002D3C2060F543686F73BFEA7DE55F6B6F21
:1040F0006D3F2220F0439B6F6D7CB52DE5242D3F55
:104100002069FB0810087FAA64E00FC03F2DBFA400
:10411000ADFB082914A9083D3F8410C2203CF7D606
:10412000DA103CF4D6C3203BF5D6300D163F84D0D0
:10413000C390380913420821841042FE6955FFFFDD
:10414000FE0F4C80FF0B080A16FE0809FD2809FD2A
:104150002809FD2819283BFBFF01480AFE134208E5
:1041600021841042FE0F89010121320422081044EB
:1041700090D5FF4918080802705422FDC6FF0902B5
:10418000484422490204080248DFFF7902049C0FD8
:10419000FC0408481EFC080A481404781284080A23
:1041A000C8157E481282C81F78C841FC12820805D3
:1041B0004808221B12810800101116102811419C7A
:1041C00008E8110C441138601014800F1042015A95
:1041D000021C690845C2799A7145221226894CE26F
:1041E0001302103C100281083B92021805C4C26100
:1041F000827345107E157A452F2A7C2F457D7E13CC
:1042000012452D2A7E6E3D7A3A2A13104412667E9C
:104210003C786D7D1001FF01C14512723E12457F51
:10422000651457454A781475457E2B7F054B2B76D0
:104230001045122B12523C6B761110015742902AF6
:1042400002082B2484082791074482F07F2E7A707D
:104250007FF1071826470487E03F27114444842054
:10426000221E725228F227082D5062280F181FCAEA
:104270004710F00703C726A2181C840A1E412224F7
:104280001344E10712312343F037621F0E117D4EB4
:10429000F43D5026B1055114445B8152084A12087E
:1042A000279D123D91F23C27D117059112141B5105
:1042B00014083A24081B11112007C35E147D0EF167
:1042C000451C3E727ADF214522294963547F127AC8
:1042D0003D5569433E081B137AF7213C27205208BD
:1042E00005FF5413623301C54512725A3A457F6582
:1042F0002911454A787A7A457E2B29553D2B765BE4
:0C4300001B28442B087C05566B767B2B99
:04000005080000ED02
:00000001FF
